{
  "address": "0x0dC27424480c9B67dd90122761FCd72d0bd75bE2",
  "abi": [
    {
      "anonymous": false,
      "inputs": [
        {
          "indexed": true,
          "internalType": "uint256",
          "name": "distributorId",
          "type": "uint256"
        },
        {
          "indexed": true,
          "internalType": "uint256",
          "name": "substationId",
          "type": "uint256"
        },
        {
          "indexed": true,
          "internalType": "address",
          "name": "owner",
          "type": "address"
        }
      ],
      "name": "DistributorAdded",
      "type": "event"
    },
    {
      "anonymous": false,
      "inputs": [
        {
          "indexed": true,
          "internalType": "uint256",
          "name": "powerplantId",
          "type": "uint256"
        },
        {
          "indexed": false,
          "internalType": "uint256",
          "name": "energyAdded",
          "type": "uint256"
        },
        {
          "indexed": false,
          "internalType": "uint256",
          "name": "date",
          "type": "uint256"
        }
      ],
      "name": "EnergyAddedByPowerPlant",
      "type": "event"
    },
    {
      "anonymous": false,
      "inputs": [
        {
          "indexed": true,
          "internalType": "uint256",
          "name": "distributorId",
          "type": "uint256"
        },
        {
          "indexed": false,
          "internalType": "uint256",
          "name": "energyBought",
          "type": "uint256"
        },
        {
          "indexed": false,
          "internalType": "uint256",
          "name": "date",
          "type": "uint256"
        }
      ],
      "name": "EnergyBoughtByDistributor",
      "type": "event"
    },
    {
      "anonymous": false,
      "inputs": [
        {
          "indexed": true,
          "internalType": "uint256",
          "name": "substationId",
          "type": "uint256"
        },
        {
          "indexed": false,
          "internalType": "uint256",
          "name": "energyBought",
          "type": "uint256"
        },
        {
          "indexed": false,
          "internalType": "uint256",
          "name": "date",
          "type": "uint256"
        }
      ],
      "name": "EnergyBoughtBySubstation",
      "type": "event"
    },
    {
      "anonymous": false,
      "inputs": [
        {
          "indexed": true,
          "internalType": "uint256",
          "name": "powerplantId",
          "type": "uint256"
        },
        {
          "indexed": true,
          "internalType": "address",
          "name": "owner",
          "type": "address"
        }
      ],
      "name": "PowerPlantAdded",
      "type": "event"
    },
    {
      "anonymous": false,
      "inputs": [
        {
          "indexed": true,
          "internalType": "uint256",
          "name": "substationId",
          "type": "uint256"
        },
        {
          "indexed": true,
          "internalType": "uint256",
          "name": "powerplantId",
          "type": "uint256"
        },
        {
          "indexed": true,
          "internalType": "address",
          "name": "owner",
          "type": "address"
        }
      ],
      "name": "SubstationAdded",
      "type": "event"
    },
    {
      "inputs": [
        {
          "internalType": "string",
          "name": "_name",
          "type": "string"
        },
        {
          "internalType": "string",
          "name": "_area",
          "type": "string"
        },
        {
          "internalType": "uint256",
          "name": "_substationIndex",
          "type": "uint256"
        }
      ],
      "name": "addDistributor",
      "outputs": [],
      "stateMutability": "nonpayable",
      "type": "function"
    },
    {
      "inputs": [
        {
          "internalType": "uint256",
          "name": "_energyAvailableToBuy",
          "type": "uint256"
        }
      ],
      "name": "addEnergyAvailableToBuy",
      "outputs": [],
      "stateMutability": "nonpayable",
      "type": "function"
    },
    {
      "inputs": [
        {
          "internalType": "string",
          "name": "_name",
          "type": "string"
        },
        {
          "internalType": "string",
          "name": "_area",
          "type": "string"
        },
        {
          "internalType": "uint256",
          "name": "_energyAvailableToBuy",
          "type": "uint256"
        }
      ],
      "name": "addPowerPlant",
      "outputs": [],
      "stateMutability": "nonpayable",
      "type": "function"
    },
    {
      "inputs": [
        {
          "internalType": "uint256",
          "name": "_powerPlantId",
          "type": "uint256"
        },
        {
          "internalType": "string",
          "name": "_name",
          "type": "string"
        },
        {
          "internalType": "string",
          "name": "_area",
          "type": "string"
        }
      ],
      "name": "addSubstation",
      "outputs": [],
      "stateMutability": "nonpayable",
      "type": "function"
    },
    {
      "inputs": [
        {
          "internalType": "uint256",
          "name": "_energyAmount",
          "type": "uint256"
        }
      ],
      "name": "buyEnergyFromPowerPlant",
      "outputs": [],
      "stateMutability": "nonpayable",
      "type": "function"
    },
    {
      "inputs": [
        {
          "internalType": "uint256",
          "name": "_energyAmount",
          "type": "uint256"
        }
      ],
      "name": "buyEnergyFromSubstation",
      "outputs": [],
      "stateMutability": "nonpayable",
      "type": "function"
    },
    {
      "inputs": [
        {
          "internalType": "address",
          "name": "",
          "type": "address"
        }
      ],
      "name": "distributorAddressToIds",
      "outputs": [
        {
          "internalType": "uint256",
          "name": "",
          "type": "uint256"
        }
      ],
      "stateMutability": "view",
      "type": "function"
    },
    {
      "inputs": [
        {
          "internalType": "uint256",
          "name": "",
          "type": "uint256"
        }
      ],
      "name": "distributors",
      "outputs": [
        {
          "internalType": "uint256",
          "name": "substationId",
          "type": "uint256"
        },
        {
          "internalType": "address",
          "name": "distributorAddress",
          "type": "address"
        },
        {
          "internalType": "string",
          "name": "name",
          "type": "string"
        },
        {
          "internalType": "string",
          "name": "area",
          "type": "string"
        },
        {
          "internalType": "uint256",
          "name": "energyAvailable",
          "type": "uint256"
        },
        {
          "internalType": "uint256",
          "name": "totalEnergySold",
          "type": "uint256"
        },
        {
          "internalType": "uint256",
          "name": "totalEnergyBought",
          "type": "uint256"
        }
      ],
      "stateMutability": "view",
      "type": "function"
    },
    {
      "inputs": [
        {
          "internalType": "uint256",
          "name": "_distributorIndex",
          "type": "uint256"
        }
      ],
      "name": "getDistributorById",
      "outputs": [
        {
          "components": [
            {
              "internalType": "uint256",
              "name": "substationId",
              "type": "uint256"
            },
            {
              "internalType": "address",
              "name": "distributorAddress",
              "type": "address"
            },
            {
              "internalType": "string",
              "name": "name",
              "type": "string"
            },
            {
              "internalType": "string",
              "name": "area",
              "type": "string"
            },
            {
              "internalType": "uint256",
              "name": "energyAvailable",
              "type": "uint256"
            },
            {
              "internalType": "uint256[]",
              "name": "consumerIds",
              "type": "uint256[]"
            },
            {
              "internalType": "uint256",
              "name": "totalEnergySold",
              "type": "uint256"
            },
            {
              "internalType": "uint256",
              "name": "totalEnergyBought",
              "type": "uint256"
            }
          ],
          "internalType": "struct ElectricitySupplyChain.Distributor",
          "name": "",
          "type": "tuple"
        }
      ],
      "stateMutability": "view",
      "type": "function"
    },
    {
      "inputs": [
        {
          "internalType": "uint256",
          "name": "_distributorIndex",
          "type": "uint256"
        },
        {
          "internalType": "uint256",
          "name": "_day",
          "type": "uint256"
        }
      ],
      "name": "getDistributorEnergyBoguhtByDay",
      "outputs": [
        {
          "internalType": "uint256",
          "name": "",
          "type": "uint256"
        }
      ],
      "stateMutability": "view",
      "type": "function"
    },
    {
      "inputs": [
        {
          "internalType": "uint256",
          "name": "_powerplantIndex",
          "type": "uint256"
        },
        {
          "internalType": "uint256",
          "name": "_day",
          "type": "uint256"
        }
      ],
      "name": "getPowerPlantEnergyProducedByDay",
      "outputs": [
        {
          "internalType": "uint256",
          "name": "",
          "type": "uint256"
        }
      ],
      "stateMutability": "view",
      "type": "function"
    },
    {
      "inputs": [
        {
          "internalType": "uint256",
          "name": "_powerplantIndex",
          "type": "uint256"
        },
        {
          "internalType": "uint256",
          "name": "_day",
          "type": "uint256"
        }
      ],
      "name": "getPowerPlantEnergySoldByDay",
      "outputs": [
        {
          "internalType": "uint256",
          "name": "",
          "type": "uint256"
        }
      ],
      "stateMutability": "view",
      "type": "function"
    },
    {
      "inputs": [
        {
          "internalType": "uint256",
          "name": "_powerplantIndex",
          "type": "uint256"
        }
      ],
      "name": "getPowerplantById",
      "outputs": [
        {
          "components": [
            {
              "internalType": "string",
              "name": "name",
              "type": "string"
            },
            {
              "internalType": "string",
              "name": "area",
              "type": "string"
            },
            {
              "internalType": "address",
              "name": "powerplantAddress",
              "type": "address"
            },
            {
              "internalType": "uint256[]",
              "name": "substationIds",
              "type": "uint256[]"
            },
            {
              "internalType": "uint256",
              "name": "totalEnergyProduced",
              "type": "uint256"
            },
            {
              "internalType": "uint256",
              "name": "totalEnergySold",
              "type": "uint256"
            },
            {
              "internalType": "uint256",
              "name": "energyAvailableToBuy",
              "type": "uint256"
            }
          ],
          "internalType": "struct ElectricitySupplyChain.PowerPlant",
          "name": "",
          "type": "tuple"
        }
      ],
      "stateMutability": "view",
      "type": "function"
    },
    {
      "inputs": [
        {
          "internalType": "uint256",
          "name": "_substationIndex",
          "type": "uint256"
        }
      ],
      "name": "getSubstationById",
      "outputs": [
        {
          "components": [
            {
              "internalType": "string",
              "name": "name",
              "type": "string"
            },
            {
              "internalType": "string",
              "name": "area",
              "type": "string"
            },
            {
              "internalType": "uint256",
              "name": "powerplantId",
              "type": "uint256"
            },
            {
              "internalType": "address",
              "name": "substationAddress",
              "type": "address"
            },
            {
              "internalType": "uint256",
              "name": "totalEnergyReceived",
              "type": "uint256"
            },
            {
              "internalType": "uint256",
              "name": "totalEnergySold",
              "type": "uint256"
            },
            {
              "internalType": "uint256[]",
              "name": "distributorIds",
              "type": "uint256[]"
            },
            {
              "internalType": "uint256",
              "name": "energyAvailableToBuy",
              "type": "uint256"
            }
          ],
          "internalType": "struct ElectricitySupplyChain.Substation",
          "name": "",
          "type": "tuple"
        }
      ],
      "stateMutability": "view",
      "type": "function"
    },
    {
      "inputs": [
        {
          "internalType": "uint256",
          "name": "_substationIndex",
          "type": "uint256"
        },
        {
          "internalType": "uint256",
          "name": "_day",
          "type": "uint256"
        }
      ],
      "name": "getSubstationEnergyBoughtByDay",
      "outputs": [
        {
          "internalType": "uint256",
          "name": "",
          "type": "uint256"
        }
      ],
      "stateMutability": "view",
      "type": "function"
    },
    {
      "inputs": [
        {
          "internalType": "uint256",
          "name": "_substationIndex",
          "type": "uint256"
        },
        {
          "internalType": "uint256",
          "name": "_day",
          "type": "uint256"
        }
      ],
      "name": "getSubstationEnergySoldByDay",
      "outputs": [
        {
          "internalType": "uint256",
          "name": "",
          "type": "uint256"
        }
      ],
      "stateMutability": "view",
      "type": "function"
    },
    {
      "inputs": [
        {
          "internalType": "uint256",
          "name": "_powerplantIndex",
          "type": "uint256"
        }
      ],
      "name": "getSubstationsOfPowerPlant",
      "outputs": [
        {
          "components": [
            {
              "internalType": "string",
              "name": "name",
              "type": "string"
            },
            {
              "internalType": "string",
              "name": "area",
              "type": "string"
            },
            {
              "internalType": "uint256",
              "name": "powerplantId",
              "type": "uint256"
            },
            {
              "internalType": "address",
              "name": "substationAddress",
              "type": "address"
            },
            {
              "internalType": "uint256",
              "name": "totalEnergyReceived",
              "type": "uint256"
            },
            {
              "internalType": "uint256",
              "name": "totalEnergySold",
              "type": "uint256"
            },
            {
              "internalType": "uint256[]",
              "name": "distributorIds",
              "type": "uint256[]"
            },
            {
              "internalType": "uint256",
              "name": "energyAvailableToBuy",
              "type": "uint256"
            }
          ],
          "internalType": "struct ElectricitySupplyChain.Substation[]",
          "name": "",
          "type": "tuple[]"
        }
      ],
      "stateMutability": "view",
      "type": "function"
    },
    {
      "inputs": [
        {
          "internalType": "uint256",
          "name": "",
          "type": "uint256"
        }
      ],
      "name": "powerPlants",
      "outputs": [
        {
          "internalType": "string",
          "name": "name",
          "type": "string"
        },
        {
          "internalType": "string",
          "name": "area",
          "type": "string"
        },
        {
          "internalType": "address",
          "name": "powerplantAddress",
          "type": "address"
        },
        {
          "internalType": "uint256",
          "name": "totalEnergyProduced",
          "type": "uint256"
        },
        {
          "internalType": "uint256",
          "name": "totalEnergySold",
          "type": "uint256"
        },
        {
          "internalType": "uint256",
          "name": "energyAvailableToBuy",
          "type": "uint256"
        }
      ],
      "stateMutability": "view",
      "type": "function"
    },
    {
      "inputs": [
        {
          "internalType": "address",
          "name": "",
          "type": "address"
        }
      ],
      "name": "powerPlantsAddressToIds",
      "outputs": [
        {
          "internalType": "uint256",
          "name": "",
          "type": "uint256"
        }
      ],
      "stateMutability": "view",
      "type": "function"
    },
    {
      "inputs": [
        {
          "internalType": "uint256",
          "name": "",
          "type": "uint256"
        }
      ],
      "name": "substations",
      "outputs": [
        {
          "internalType": "string",
          "name": "name",
          "type": "string"
        },
        {
          "internalType": "string",
          "name": "area",
          "type": "string"
        },
        {
          "internalType": "uint256",
          "name": "powerplantId",
          "type": "uint256"
        },
        {
          "internalType": "address",
          "name": "substationAddress",
          "type": "address"
        },
        {
          "internalType": "uint256",
          "name": "totalEnergyReceived",
          "type": "uint256"
        },
        {
          "internalType": "uint256",
          "name": "totalEnergySold",
          "type": "uint256"
        },
        {
          "internalType": "uint256",
          "name": "energyAvailableToBuy",
          "type": "uint256"
        }
      ],
      "stateMutability": "view",
      "type": "function"
    },
    {
      "inputs": [
        {
          "internalType": "address",
          "name": "",
          "type": "address"
        }
      ],
      "name": "substationsAddressToIds",
      "outputs": [
        {
          "internalType": "uint256",
          "name": "",
          "type": "uint256"
        }
      ],
      "stateMutability": "view",
      "type": "function"
    }
  ],
  "transactionHash": "0x5af89f534fdd4469fd1ee74577d406f0f0596db11717b1556f5feb03587f4f9c",
  "args": [],
  "numDeployments": 1,
  "solcInputHash": "5e0647475413ab95b16ca8fff9ce0465",
  "bytecode": "0x608060405234801561001057600080fd5b50613e69806100206000396000f3fe608060405234801561001057600080fd5b50600436106101375760003560e01c806376ba67c2116100b8578063ad37ed741161007c578063ad37ed74146103db578063b581aae314610411578063c3a3ebad14610441578063d4eac34d1461045d578063f2ff91451461048d578063fa386264146104a957610137565b806376ba67c2146102eb5780637c4e15e81461031b5780637d4706701461034b5780637e0673151461037b578063942d33ce146103ab57610137565b8063608b74c6116100ff578063608b74c61461021e5780636451164c1461024e57806365dbb9861461028357806366c280631461029f5780636ef435d4146102cf57610137565b80630b636f3a1461013c5780631b3bec251461016c57806330b2edf11461019c57806350b492ba146101cc57806359516f1b14610202575b600080fd5b61015660048036038101906101519190612910565b6104c5565b6040516101639190612b76565b60405180910390f35b61018660048036038101906101819190612b98565b610787565b6040516101939190612be7565b60405180910390f35b6101b660048036038101906101b19190612910565b61085d565b6040516101c39190612cc0565b60405180910390f35b6101e660048036038101906101e19190612910565b610b2c565b6040516101f99796959493929190612d3b565b60405180910390f35b61021c60048036038101906102179190612eed565b610c9e565b005b61023860048036038101906102339190612b98565b610ea2565b6040516102459190612be7565b60405180910390f35b61026860048036038101906102639190612910565b610f78565b60405161027a96959493929190612f78565b60405180910390f35b61029d60048036038101906102989190612eed565b6110e4565b005b6102b960048036038101906102b49190613013565b611340565b6040516102c69190612be7565b60405180910390f35b6102e960048036038101906102e49190612910565b611358565b005b61030560048036038101906103009190612b98565b611699565b6040516103129190612be7565b60405180910390f35b61033560048036038101906103309190612910565b61176e565b60405161034291906130fe565b60405180910390f35b61036560048036038101906103609190612910565b611a3d565b60405161037291906132a0565b60405180910390f35b61039560048036038101906103909190612b98565b611bba565b6040516103a29190612be7565b60405180910390f35b6103c560048036038101906103c09190613013565b611c8f565b6040516103d29190612be7565b60405180910390f35b6103f560048036038101906103f09190612910565b611ca7565b60405161040897969594939291906132c2565b60405180910390f35b61042b60048036038101906104269190613013565b611e19565b6040516104389190612be7565b60405180910390f35b61045b60048036038101906104569190612910565b611e31565b005b61047760048036038101906104729190612b98565b6121cb565b6040516104849190612be7565b60405180910390f35b6104a760048036038101906104a29190612910565b6122a1565b005b6104c360048036038101906104be919061333f565b612523565b005b6104cd6127bd565b81600073ffffffffffffffffffffffffffffffffffffffff1660008083815260200190815260200160002060020160009054906101000a900473ffffffffffffffffffffffffffffffffffffffff1673ffffffffffffffffffffffffffffffffffffffff1603610572576040517f08c379a000000000000000000000000000000000000000000000000000000000815260040161056990613416565b60405180910390fd5b6000808481526020019081526020016000206040518060e001604052908160008201805461059f90613465565b80601f01602080910402602001604051908101604052809291908181526020018280546105cb90613465565b80156106185780601f106105ed57610100808354040283529160200191610618565b820191906000526020600020905b8154815290600101906020018083116105fb57829003601f168201915b5050505050815260200160018201805461063190613465565b80601f016020809104026020016040519081016040528092919081815260200182805461065d90613465565b80156106aa5780601f1061067f576101008083540402835291602001916106aa565b820191906000526020600020905b81548152906001019060200180831161068d57829003601f168201915b505050505081526020016002820160009054906101000a900473ffffffffffffffffffffffffffffffffffffffff1673ffffffffffffffffffffffffffffffffffffffff1673ffffffffffffffffffffffffffffffffffffffff1681526020016003820180548060200260200160405190810160405280929190818152602001828054801561075857602002820191906000526020600020905b815481526020019060010190808311610744575b505050505081526020016004820154815260200160058201548152602001600682015481525050915050919050565b600082600073ffffffffffffffffffffffffffffffffffffffff166004600083815260200190815260200160002060010160009054906101000a900473ffffffffffffffffffffffffffffffffffffffff1673ffffffffffffffffffffffffffffffffffffffff160361082f576040517f08c379a0000000000000000000000000000000000000000000000000000000008152600401610826906134e2565b60405180910390fd5b6006600085815260200190815260200160002060008481526020019081526020016000205491505092915050565b610865612810565b81600073ffffffffffffffffffffffffffffffffffffffff166007600083815260200190815260200160002060030160009054906101000a900473ffffffffffffffffffffffffffffffffffffffff1673ffffffffffffffffffffffffffffffffffffffff160361090b576040517f08c379a00000000000000000000000000000000000000000000000000000000081526004016109029061354e565b60405180910390fd5b600760008481526020019081526020016000206040518061010001604052908160008201805461093a90613465565b80601f016020809104026020016040519081016040528092919081815260200182805461096690613465565b80156109b35780601f10610988576101008083540402835291602001916109b3565b820191906000526020600020905b81548152906001019060200180831161099657829003601f168201915b505050505081526020016001820180546109cc90613465565b80601f01602080910402602001604051908101604052809291908181526020018280546109f890613465565b8015610a455780601f10610a1a57610100808354040283529160200191610a45565b820191906000526020600020905b815481529060010190602001808311610a2857829003601f168201915b50505050508152602001600282015481526020016003820160009054906101000a900473ffffffffffffffffffffffffffffffffffffffff1673ffffffffffffffffffffffffffffffffffffffff1673ffffffffffffffffffffffffffffffffffffffff168152602001600482015481526020016005820154815260200160068201805480602002602001604051908101604052809291908181526020018280548015610b1157602002820191906000526020600020905b815481526020019060010190808311610afd575b50505050508152602001600782015481525050915050919050565b60046020528060005260406000206000915090508060000154908060010160009054906101000a900473ffffffffffffffffffffffffffffffffffffffff1690806002018054610b7b90613465565b80601f0160208091040260200160405190810160405280929190818152602001828054610ba790613465565b8015610bf45780601f10610bc957610100808354040283529160200191610bf4565b820191906000526020600020905b815481529060010190602001808311610bd757829003601f168201915b505050505090806003018054610c0990613465565b80601f0160208091040260200160405190810160405280929190818152602001828054610c3590613465565b8015610c825780601f10610c5757610100808354040283529160200191610c82565b820191906000526020600020905b815481529060010190602001808311610c6557829003601f168201915b5050505050908060040154908060060154908060070154905087565b6000600160003373ffffffffffffffffffffffffffffffffffffffff1673ffffffffffffffffffffffffffffffffffffffff16815260200190815260200160002054905060008114610d25576040517f08c379a0000000000000000000000000000000000000000000000000000000008152600401610d1c906135ba565b60405180910390fd5b6001600b6000828254610d389190613609565b925050819055506000806000600b5481526020019081526020016000209050600b54600160003373ffffffffffffffffffffffffffffffffffffffff1673ffffffffffffffffffffffffffffffffffffffff16815260200190815260200160002081905550338160020160006101000a81548173ffffffffffffffffffffffffffffffffffffffff021916908373ffffffffffffffffffffffffffffffffffffffff16021790555084816000019081610df191906137e9565b5083816001019081610e0391906137e9565b5082816006018190555082816004018190555060006201518042610e2791906138ea565b90508360026000600b5481526020019081526020016000206000838152602001908152602001600020819055503373ffffffffffffffffffffffffffffffffffffffff16600b547f8ed0f10f8db3aa7c553ea6a6b03c61058dfa62a9ad1b85b4e7ab759ff8165dd760405160405180910390a3505050505050565b600082600073ffffffffffffffffffffffffffffffffffffffff166007600083815260200190815260200160002060030160009054906101000a900473ffffffffffffffffffffffffffffffffffffffff1673ffffffffffffffffffffffffffffffffffffffff1603610f4a576040517f08c379a0000000000000000000000000000000000000000000000000000000008152600401610f419061354e565b60405180910390fd5b600a600085815260200190815260200160002060008481526020019081526020016000205491505092915050565b6000602052806000526040600020600091509050806000018054610f9b90613465565b80601f0160208091040260200160405190810160405280929190818152602001828054610fc790613465565b80156110145780601f10610fe957610100808354040283529160200191611014565b820191906000526020600020905b815481529060010190602001808311610ff757829003601f168201915b50505050509080600101805461102990613465565b80601f016020809104026020016040519081016040528092919081815260200182805461105590613465565b80156110a25780601f10611077576101008083540402835291602001916110a2565b820191906000526020600020905b81548152906001019060200180831161108557829003601f168201915b5050505050908060020160009054906101000a900473ffffffffffffffffffffffffffffffffffffffff16908060040154908060050154908060060154905086565b600073ffffffffffffffffffffffffffffffffffffffff166007600083815260200190815260200160002060030160009054906101000a900473ffffffffffffffffffffffffffffffffffffffff1673ffffffffffffffffffffffffffffffffffffffff1603611189576040517f08c379a00000000000000000000000000000000000000000000000000000000081526004016111809061354e565b60405180910390fd5b6000600560003373ffffffffffffffffffffffffffffffffffffffff1673ffffffffffffffffffffffffffffffffffffffff168152602001908152602001600020541461120b576040517f08c379a00000000000000000000000000000000000000000000000000000000081526004016112029061398d565b60405180910390fd5b6001600c600082825461121e9190613609565b925050819055506000600760008381526020019081526020016000209050600060046000600c54815260200190815260200160002090508481600201908161126691906137e9565b508381600301908161127891906137e9565b50338160010160006101000a81548173ffffffffffffffffffffffffffffffffffffffff021916908373ffffffffffffffffffffffffffffffffffffffff16021790555082816000018190555081600601600c5490806001815401808255809150506001900390600052602060002001600090919091909150553373ffffffffffffffffffffffffffffffffffffffff1683600c547fe8b8f4b4aa7938b032de88dc82ad808ff9c9fac95d056ede2a732f354c714a6f60405160405180910390a45050505050565b60016020528060005260406000206000915090505481565b6000600560003373ffffffffffffffffffffffffffffffffffffffff1673ffffffffffffffffffffffffffffffffffffffff16815260200190815260200160002054036113da576040517f08c379a00000000000000000000000000000000000000000000000000000000081526004016113d190613a1f565b60405180910390fd5b3373ffffffffffffffffffffffffffffffffffffffff1660046000600560003373ffffffffffffffffffffffffffffffffffffffff1673ffffffffffffffffffffffffffffffffffffffff16815260200190815260200160002054815260200190815260200160002060010160009054906101000a900473ffffffffffffffffffffffffffffffffffffffff1673ffffffffffffffffffffffffffffffffffffffff16146114bd576040517f08c379a00000000000000000000000000000000000000000000000000000000081526004016114b490613a8b565b60405180910390fd5b6000600560003373ffffffffffffffffffffffffffffffffffffffff1673ffffffffffffffffffffffffffffffffffffffff1681526020019081526020016000205490506000600460008381526020019081526020016000209050600060076000836000015481526020019081526020016000209050838160070154101561157a576040517f08c379a000000000000000000000000000000000000000000000000000000000815260040161157190613b1d565b60405180910390fd5b8381600701600082825461158e9190613b3d565b92505081905550838260070160008282546115a99190613609565b92505081905550600062015180426115c191906138ea565b90508460066000868152602001908152602001600020600083815260200190815260200160002060008282546115f79190613609565b92505081905550848360040160008282546116129190613609565b9250508190555084600a600085600001548152602001908152602001600020600083815260200190815260200160002060008282546116519190613609565b92505081905550837f73adff80ab623465da18a83132be6ce95cb48b93c74c4a33915d3abdc75d5092868360405161168a929190613b71565b60405180910390a25050505050565b600082600073ffffffffffffffffffffffffffffffffffffffff1660008083815260200190815260200160002060020160009054906101000a900473ffffffffffffffffffffffffffffffffffffffff1673ffffffffffffffffffffffffffffffffffffffff1603611740576040517f08c379a000000000000000000000000000000000000000000000000000000000815260040161173790613416565b60405180910390fd5b6003600085815260200190815260200160002060008481526020019081526020016000205491505092915050565b61177661286b565b81600073ffffffffffffffffffffffffffffffffffffffff166004600083815260200190815260200160002060010160009054906101000a900473ffffffffffffffffffffffffffffffffffffffff1673ffffffffffffffffffffffffffffffffffffffff160361181c576040517f08c379a0000000000000000000000000000000000000000000000000000000008152600401611813906134e2565b60405180910390fd5b6004600084815260200190815260200160002060405180610100016040529081600082015481526020016001820160009054906101000a900473ffffffffffffffffffffffffffffffffffffffff1673ffffffffffffffffffffffffffffffffffffffff1673ffffffffffffffffffffffffffffffffffffffff1681526020016002820180546118ab90613465565b80601f01602080910402602001604051908101604052809291908181526020018280546118d790613465565b80156119245780601f106118f957610100808354040283529160200191611924565b820191906000526020600020905b81548152906001019060200180831161190757829003601f168201915b5050505050815260200160038201805461193d90613465565b80601f016020809104026020016040519081016040528092919081815260200182805461196990613465565b80156119b65780601f1061198b576101008083540402835291602001916119b6565b820191906000526020600020905b81548152906001019060200180831161199957829003601f168201915b505050505081526020016004820154815260200160058201805480602002602001604051908101604052809291908181526020018280548015611a1857602002820191906000526020600020905b815481526020019060010190808311611a04575b5050505050815260200160068201548152602001600782015481525050915050919050565b606081600073ffffffffffffffffffffffffffffffffffffffff1660008083815260200190815260200160002060020160009054906101000a900473ffffffffffffffffffffffffffffffffffffffff1673ffffffffffffffffffffffffffffffffffffffff1603611ae4576040517f08c379a0000000000000000000000000000000000000000000000000000000008152600401611adb90613416565b60405180910390fd5b6000611aef846104c5565b6060015190506000815167ffffffffffffffff811115611b1257611b11612dc2565b5b604051908082528060200260200182016040528015611b4b57816020015b611b38612810565b815260200190600190039081611b305790505b50905060005b8251811015611bae57611b7d838281518110611b7057611b6f613b9a565b5b602002602001015161085d565b828281518110611b9057611b8f613b9a565b5b60200260200101819052508080611ba690613bc9565b915050611b51565b50809350505050919050565b600082600073ffffffffffffffffffffffffffffffffffffffff1660008083815260200190815260200160002060020160009054906101000a900473ffffffffffffffffffffffffffffffffffffffff1673ffffffffffffffffffffffffffffffffffffffff1603611c61576040517f08c379a0000000000000000000000000000000000000000000000000000000008152600401611c5890613416565b60405180910390fd5b6002600085815260200190815260200160002060008481526020019081526020016000205491505092915050565b60086020528060005260406000206000915090505481565b6007602052806000526040600020600091509050806000018054611cca90613465565b80601f0160208091040260200160405190810160405280929190818152602001828054611cf690613465565b8015611d435780601f10611d1857610100808354040283529160200191611d43565b820191906000526020600020905b815481529060010190602001808311611d2657829003601f168201915b505050505090806001018054611d5890613465565b80601f0160208091040260200160405190810160405280929190818152602001828054611d8490613465565b8015611dd15780601f10611da657610100808354040283529160200191611dd1565b820191906000526020600020905b815481529060010190602001808311611db457829003601f168201915b5050505050908060020154908060030160009054906101000a900473ffffffffffffffffffffffffffffffffffffffff16908060040154908060050154908060070154905087565b60056020528060005260406000206000915090505481565b6000600860003373ffffffffffffffffffffffffffffffffffffffff1673ffffffffffffffffffffffffffffffffffffffff1681526020019081526020016000205403611eb3576040517f08c379a0000000000000000000000000000000000000000000000000000000008152600401611eaa90613c83565b60405180910390fd5b3373ffffffffffffffffffffffffffffffffffffffff1660076000600860003373ffffffffffffffffffffffffffffffffffffffff1673ffffffffffffffffffffffffffffffffffffffff16815260200190815260200160002054815260200190815260200160002060030160009054906101000a900473ffffffffffffffffffffffffffffffffffffffff1673ffffffffffffffffffffffffffffffffffffffff1614611f96576040517f08c379a0000000000000000000000000000000000000000000000000000000008152600401611f8d90613a8b565b60405180910390fd5b6000600860003373ffffffffffffffffffffffffffffffffffffffff1673ffffffffffffffffffffffffffffffffffffffff168152602001908152602001600020549050600060076000838152602001908152602001600020905060008060008360020154815260200190815260200160002090508381600601541015612052576040517f08c379a000000000000000000000000000000000000000000000000000000000815260040161204990613b1d565b60405180910390fd5b838160060160008282546120669190613b3d565b92505081905550838260040160008282546120819190613609565b925050819055506000620151804261209991906138ea565b90508460096000868152602001908152602001600020600083815260200190815260200160002060008282546120cf9190613609565b92505081905550848360070160008282546120ea9190613609565b92505081905550846003600085600201548152602001908152602001600020600083815260200190815260200160002060008282546121299190613609565b92505081905550848260050160008282546121449190613609565b92505081905550600860003373ffffffffffffffffffffffffffffffffffffffff1673ffffffffffffffffffffffffffffffffffffffff168152602001908152602001600020547fd751c239d69943b20a7a994414c35ad1948382a57234874e2df47560fe29df1386836040516121bc929190613b71565b60405180910390a25050505050565b600082600073ffffffffffffffffffffffffffffffffffffffff166007600083815260200190815260200160002060030160009054906101000a900473ffffffffffffffffffffffffffffffffffffffff1673ffffffffffffffffffffffffffffffffffffffff1603612273576040517f08c379a000000000000000000000000000000000000000000000000000000000815260040161226a9061354e565b60405180910390fd5b6009600085815260200190815260200160002060008481526020019081526020016000205491505092915050565b6000600160003373ffffffffffffffffffffffffffffffffffffffff1673ffffffffffffffffffffffffffffffffffffffff1681526020019081526020016000205403612323576040517f08c379a000000000000000000000000000000000000000000000000000000000815260040161231a90613d15565b60405180910390fd5b3373ffffffffffffffffffffffffffffffffffffffff16600080600160003373ffffffffffffffffffffffffffffffffffffffff1673ffffffffffffffffffffffffffffffffffffffff16815260200190815260200160002054815260200190815260200160002060020160009054906101000a900473ffffffffffffffffffffffffffffffffffffffff1673ffffffffffffffffffffffffffffffffffffffff1614612405576040517f08c379a00000000000000000000000000000000000000000000000000000000081526004016123fc90613a8b565b60405180910390fd5b6000600160003373ffffffffffffffffffffffffffffffffffffffff1673ffffffffffffffffffffffffffffffffffffffff16815260200190815260200160002054905060008060008381526020019081526020016000209050828160060160008282546124739190613609565b925050819055506000620151804261248b91906138ea565b90508360026000858152602001908152602001600020600083815260200190815260200160002060008282546124c19190613609565b92505081905550838260040160008282546124dc9190613609565b92505081905550827ff9996ab4e5c178ed609618b0b9ab2a55506a5816b5cbb5a0f6a117e1f85e18ce8583604051612515929190613b71565b60405180910390a250505050565b600073ffffffffffffffffffffffffffffffffffffffff1660008085815260200190815260200160002060020160009054906101000a900473ffffffffffffffffffffffffffffffffffffffff1673ffffffffffffffffffffffffffffffffffffffff16036125c7576040517f08c379a00000000000000000000000000000000000000000000000000000000081526004016125be90613d81565b60405180910390fd5b6000600860003373ffffffffffffffffffffffffffffffffffffffff1673ffffffffffffffffffffffffffffffffffffffff1681526020019081526020016000205414612649576040517f08c379a000000000000000000000000000000000000000000000000000000000815260040161264090613e13565b60405180910390fd5b6001600d600082825461265c9190613609565b92505081905550600060076000600d5481526020019081526020016000209050600d54600860003373ffffffffffffffffffffffffffffffffffffffff1673ffffffffffffffffffffffffffffffffffffffff16815260200190815260200160002081905550828160000190816126d391906137e9565b50818160010190816126e591906137e9565b50338160030160006101000a81548173ffffffffffffffffffffffffffffffffffffffff021916908373ffffffffffffffffffffffffffffffffffffffff160217905550838160020181905550600080858152602001908152602001600020600301600d5490806001815401808255809150506001900390600052602060002001600090919091909150553373ffffffffffffffffffffffffffffffffffffffff1684600d547fded3b8e6e2d65f54ee85a6cdf66205b321005b189172b8f4813577529a1883d860405160405180910390a450505050565b6040518060e001604052806060815260200160608152602001600073ffffffffffffffffffffffffffffffffffffffff168152602001606081526020016000815260200160008152602001600081525090565b604051806101000160405280606081526020016060815260200160008152602001600073ffffffffffffffffffffffffffffffffffffffff168152602001600081526020016000815260200160608152602001600081525090565b60405180610100016040528060008152602001600073ffffffffffffffffffffffffffffffffffffffff1681526020016060815260200160608152602001600081526020016060815260200160008152602001600081525090565b6000604051905090565b600080fd5b600080fd5b6000819050919050565b6128ed816128da565b81146128f857600080fd5b50565b60008135905061290a816128e4565b92915050565b600060208284031215612926576129256128d0565b5b6000612934848285016128fb565b91505092915050565b600081519050919050565b600082825260208201905092915050565b60005b8381101561297757808201518184015260208101905061295c565b60008484015250505050565b6000601f19601f8301169050919050565b600061299f8261293d565b6129a98185612948565b93506129b9818560208601612959565b6129c281612983565b840191505092915050565b600073ffffffffffffffffffffffffffffffffffffffff82169050919050565b60006129f8826129cd565b9050919050565b612a08816129ed565b82525050565b600081519050919050565b600082825260208201905092915050565b6000819050602082019050919050565b612a43816128da565b82525050565b6000612a558383612a3a565b60208301905092915050565b6000602082019050919050565b6000612a7982612a0e565b612a838185612a19565b9350612a8e83612a2a565b8060005b83811015612abf578151612aa68882612a49565b9750612ab183612a61565b925050600181019050612a92565b5085935050505092915050565b600060e0830160008301518482036000860152612ae98282612994565b91505060208301518482036020860152612b038282612994565b9150506040830151612b1860408601826129ff565b5060608301518482036060860152612b308282612a6e565b9150506080830151612b456080860182612a3a565b5060a0830151612b5860a0860182612a3a565b5060c0830151612b6b60c0860182612a3a565b508091505092915050565b60006020820190508181036000830152612b908184612acc565b905092915050565b60008060408385031215612baf57612bae6128d0565b5b6000612bbd858286016128fb565b9250506020612bce858286016128fb565b9150509250929050565b612be1816128da565b82525050565b6000602082019050612bfc6000830184612bd8565b92915050565b6000610100830160008301518482036000860152612c208282612994565b91505060208301518482036020860152612c3a8282612994565b9150506040830151612c4f6040860182612a3a565b506060830151612c6260608601826129ff565b506080830151612c756080860182612a3a565b5060a0830151612c8860a0860182612a3a565b5060c083015184820360c0860152612ca08282612a6e565b91505060e0830151612cb560e0860182612a3a565b508091505092915050565b60006020820190508181036000830152612cda8184612c02565b905092915050565b612ceb816129ed565b82525050565b600082825260208201905092915050565b6000612d0d8261293d565b612d178185612cf1565b9350612d27818560208601612959565b612d3081612983565b840191505092915050565b600060e082019050612d50600083018a612bd8565b612d5d6020830189612ce2565b8181036040830152612d6f8188612d02565b90508181036060830152612d838187612d02565b9050612d926080830186612bd8565b612d9f60a0830185612bd8565b612dac60c0830184612bd8565b98975050505050505050565b600080fd5b600080fd5b7f4e487b7100000000000000000000000000000000000000000000000000000000600052604160045260246000fd5b612dfa82612983565b810181811067ffffffffffffffff82111715612e1957612e18612dc2565b5b80604052505050565b6000612e2c6128c6565b9050612e388282612df1565b919050565b600067ffffffffffffffff821115612e5857612e57612dc2565b5b612e6182612983565b9050602081019050919050565b82818337600083830152505050565b6000612e90612e8b84612e3d565b612e22565b905082815260208101848484011115612eac57612eab612dbd565b5b612eb7848285612e6e565b509392505050565b600082601f830112612ed457612ed3612db8565b5b8135612ee4848260208601612e7d565b91505092915050565b600080600060608486031215612f0657612f056128d0565b5b600084013567ffffffffffffffff811115612f2457612f236128d5565b5b612f3086828701612ebf565b935050602084013567ffffffffffffffff811115612f5157612f506128d5565b5b612f5d86828701612ebf565b9250506040612f6e868287016128fb565b9150509250925092565b600060c0820190508181036000830152612f928189612d02565b90508181036020830152612fa68188612d02565b9050612fb56040830187612ce2565b612fc26060830186612bd8565b612fcf6080830185612bd8565b612fdc60a0830184612bd8565b979650505050505050565b612ff0816129ed565b8114612ffb57600080fd5b50565b60008135905061300d81612fe7565b92915050565b600060208284031215613029576130286128d0565b5b600061303784828501612ffe565b91505092915050565b6000610100830160008301516130596000860182612a3a565b50602083015161306c60208601826129ff565b50604083015184820360408601526130848282612994565b9150506060830151848203606086015261309e8282612994565b91505060808301516130b36080860182612a3a565b5060a083015184820360a08601526130cb8282612a6e565b91505060c08301516130e060c0860182612a3a565b5060e08301516130f360e0860182612a3a565b508091505092915050565b600060208201905081810360008301526131188184613040565b905092915050565b600081519050919050565b600082825260208201905092915050565b6000819050602082019050919050565b600061010083016000830151848203600086015261316a8282612994565b915050602083015184820360208601526131848282612994565b91505060408301516131996040860182612a3a565b5060608301516131ac60608601826129ff565b5060808301516131bf6080860182612a3a565b5060a08301516131d260a0860182612a3a565b5060c083015184820360c08601526131ea8282612a6e565b91505060e08301516131ff60e0860182612a3a565b508091505092915050565b6000613216838361314c565b905092915050565b6000602082019050919050565b600061323682613120565b613240818561312b565b9350836020820285016132528561313c565b8060005b8581101561328e578484038952815161326f858261320a565b945061327a8361321e565b925060208a01995050600181019050613256565b50829750879550505050505092915050565b600060208201905081810360008301526132ba818461322b565b905092915050565b600060e08201905081810360008301526132dc818a612d02565b905081810360208301526132f08189612d02565b90506132ff6040830188612bd8565b61330c6060830187612ce2565b6133196080830186612bd8565b61332660a0830185612bd8565b61333360c0830184612bd8565b98975050505050505050565b600080600060608486031215613358576133576128d0565b5b6000613366868287016128fb565b935050602084013567ffffffffffffffff811115613387576133866128d5565b5b61339386828701612ebf565b925050604084013567ffffffffffffffff8111156133b4576133b36128d5565b5b6133c086828701612ebf565b9150509250925092565b7f506f776572706c616e7420646f6573206e6f7420657869737400000000000000600082015250565b6000613400601983612cf1565b915061340b826133ca565b602082019050919050565b6000602082019050818103600083015261342f816133f3565b9050919050565b7f4e487b7100000000000000000000000000000000000000000000000000000000600052602260045260246000fd5b6000600282049050600182168061347d57607f821691505b6020821081036134905761348f613436565b5b50919050565b7f4469737472696275746f7220646f6573206e6f74206578697374000000000000600082015250565b60006134cc601a83612cf1565b91506134d782613496565b602082019050919050565b600060208201905081810360008301526134fb816134bf565b9050919050565b7f53756273746174696f6e20646f6573206e6f7420657869737400000000000000600082015250565b6000613538601983612cf1565b915061354382613502565b602082019050919050565b600060208201905081810360008301526135678161352b565b9050919050565b7f506f77657220706c616e7420616c726561647920657869737473000000000000600082015250565b60006135a4601a83612cf1565b91506135af8261356e565b602082019050919050565b600060208201905081810360008301526135d381613597565b9050919050565b7f4e487b7100000000000000000000000000000000000000000000000000000000600052601160045260246000fd5b6000613614826128da565b915061361f836128da565b9250828201905080821115613637576136366135da565b5b92915050565b60008190508160005260206000209050919050565b60006020601f8301049050919050565b600082821b905092915050565b60006008830261369f7fffffffffffffffffffffffffffffffffffffffffffffffffffffffffffffffff82613662565b6136a98683613662565b95508019841693508086168417925050509392505050565b6000819050919050565b60006136e66136e16136dc846128da565b6136c1565b6128da565b9050919050565b6000819050919050565b613700836136cb565b61371461370c826136ed565b84845461366f565b825550505050565b600090565b61372961371c565b6137348184846136f7565b505050565b5b818110156137585761374d600082613721565b60018101905061373a565b5050565b601f82111561379d5761376e8161363d565b61377784613652565b81016020851015613786578190505b61379a61379285613652565b830182613739565b50505b505050565b600082821c905092915050565b60006137c0600019846008026137a2565b1980831691505092915050565b60006137d983836137af565b9150826002028217905092915050565b6137f28261293d565b67ffffffffffffffff81111561380b5761380a612dc2565b5b6138158254613465565b61382082828561375c565b600060209050601f8311600181146138535760008415613841578287015190505b61384b85826137cd565b8655506138b3565b601f1984166138618661363d565b60005b8281101561388957848901518255600182019150602085019450602081019050613864565b868310156138a657848901516138a2601f8916826137af565b8355505b6001600288020188555050505b505050505050565b7f4e487b7100000000000000000000000000000000000000000000000000000000600052601260045260246000fd5b60006138f5826128da565b9150613900836128da565b9250826139105761390f6138bb565b5b828204905092915050565b7f4469737472696275746f7220616c72656164792065786973747320776974682060008201527f7468652061646472657373000000000000000000000000000000000000000000602082015250565b6000613977602b83612cf1565b91506139828261391b565b604082019050919050565b600060208201905081810360008301526139a68161396a565b9050919050565b7f4469737472696275746f7220646f6573206e6f74206578697374206f7220796f60008201527f7520617265206e6f7420746865206f776e657200000000000000000000000000602082015250565b6000613a09603383612cf1565b9150613a14826139ad565b604082019050919050565b60006020820190508181036000830152613a38816139fc565b9050919050565b7f4f6e6c79206f776e657220616c6c6f7765640000000000000000000000000000600082015250565b6000613a75601283612cf1565b9150613a8082613a3f565b602082019050919050565b60006020820190508181036000830152613aa481613a68565b9050919050565b7f496e73756666696369656e7420656e6572677920617661696c61626c6520746f60008201527f2062757900000000000000000000000000000000000000000000000000000000602082015250565b6000613b07602483612cf1565b9150613b1282613aab565b604082019050919050565b60006020820190508181036000830152613b3681613afa565b9050919050565b6000613b48826128da565b9150613b53836128da565b9250828203905081811115613b6b57613b6a6135da565b5b92915050565b6000604082019050613b866000830185612bd8565b613b936020830184612bd8565b9392505050565b7f4e487b7100000000000000000000000000000000000000000000000000000000600052603260045260246000fd5b6000613bd4826128da565b91507fffffffffffffffffffffffffffffffffffffffffffffffffffffffffffffffff8203613c0657613c056135da565b5b600182019050919050565b7f53756273746174696f6e20646f6573206e6f74206578697374206f7220796f7560008201527f20617265206e6f7420746865206f776e65720000000000000000000000000000602082015250565b6000613c6d603283612cf1565b9150613c7882613c11565b604082019050919050565b60006020820190508181036000830152613c9c81613c60565b9050919050565b7f506f7765706c616e7420646f6573206e6f74206578697374206f7220796f752060008201527f617265206e6f7420746865206f776e6572000000000000000000000000000000602082015250565b6000613cff603183612cf1565b9150613d0a82613ca3565b604082019050919050565b60006020820190508181036000830152613d2e81613cf2565b9050919050565b7f506f77657220506c616e7420646f6573206e6f74206578697374000000000000600082015250565b6000613d6b601a83612cf1565b9150613d7682613d35565b602082019050919050565b60006020820190508181036000830152613d9a81613d5e565b9050919050565b7f53756273746174696f6e20616c7265616479206578697374732077697468207460008201527f68652063757272656e7420616464726573730000000000000000000000000000602082015250565b6000613dfd603283612cf1565b9150613e0882613da1565b604082019050919050565b60006020820190508181036000830152613e2c81613df0565b905091905056fea2646970667358221220453e91bd6316d39a71ec9d31233a6a79512e60812db1a19bfc774e47e0c853cc64736f6c63430008110033",
  "devdoc": {
    "kind": "dev",
    "methods": {},
    "version": 1
  },
  "userdoc": {
    "kind": "user",
    "methods": {},
    "version": 1
  },
  "storageLayout": {
    "storage": [
      {
        "astId": 105,
        "contract": "contracts/ElectricitySupplyChain.sol:ElectricitySupplyChain",
        "label": "powerPlants",
        "offset": 0,
        "slot": "0",
        "type": "t_mapping(t_uint256,t_struct(PowerPlant)100_storage)"
      },
      {
        "astId": 109,
        "contract": "contracts/ElectricitySupplyChain.sol:ElectricitySupplyChain",
        "label": "powerPlantsAddressToIds",
        "offset": 0,
        "slot": "1",
        "type": "t_mapping(t_address,t_uint256)"
      },
      {
        "astId": 115,
        "contract": "contracts/ElectricitySupplyChain.sol:ElectricitySupplyChain",
        "label": "powerPlantsDailyEnergyProducedById",
        "offset": 0,
        "slot": "2",
        "type": "t_mapping(t_uint256,t_mapping(t_uint256,t_uint256))"
      },
      {
        "astId": 121,
        "contract": "contracts/ElectricitySupplyChain.sol:ElectricitySupplyChain",
        "label": "powerPlantsDailyEnergySoldById",
        "offset": 0,
        "slot": "3",
        "type": "t_mapping(t_uint256,t_mapping(t_uint256,t_uint256))"
      },
      {
        "astId": 126,
        "contract": "contracts/ElectricitySupplyChain.sol:ElectricitySupplyChain",
        "label": "distributors",
        "offset": 0,
        "slot": "4",
        "type": "t_mapping(t_uint256,t_struct(Distributor)66_storage)"
      },
      {
        "astId": 130,
        "contract": "contracts/ElectricitySupplyChain.sol:ElectricitySupplyChain",
        "label": "distributorAddressToIds",
        "offset": 0,
        "slot": "5",
        "type": "t_mapping(t_address,t_uint256)"
      },
      {
        "astId": 136,
        "contract": "contracts/ElectricitySupplyChain.sol:ElectricitySupplyChain",
        "label": "distributorsDailyEnergyBoughtById",
        "offset": 0,
        "slot": "6",
        "type": "t_mapping(t_uint256,t_mapping(t_uint256,t_uint256))"
      },
      {
        "astId": 141,
        "contract": "contracts/ElectricitySupplyChain.sol:ElectricitySupplyChain",
        "label": "substations",
        "offset": 0,
        "slot": "7",
        "type": "t_mapping(t_uint256,t_struct(Substation)84_storage)"
      },
      {
        "astId": 145,
        "contract": "contracts/ElectricitySupplyChain.sol:ElectricitySupplyChain",
        "label": "substationsAddressToIds",
        "offset": 0,
        "slot": "8",
        "type": "t_mapping(t_address,t_uint256)"
      },
      {
        "astId": 151,
        "contract": "contracts/ElectricitySupplyChain.sol:ElectricitySupplyChain",
        "label": "substationsDailyEnergyBoughtById",
        "offset": 0,
        "slot": "9",
        "type": "t_mapping(t_uint256,t_mapping(t_uint256,t_uint256))"
      },
      {
        "astId": 157,
        "contract": "contracts/ElectricitySupplyChain.sol:ElectricitySupplyChain",
        "label": "substationsDailyEnergySoldById",
        "offset": 0,
        "slot": "10",
        "type": "t_mapping(t_uint256,t_mapping(t_uint256,t_uint256))"
      },
      {
        "astId": 159,
        "contract": "contracts/ElectricitySupplyChain.sol:ElectricitySupplyChain",
        "label": "powerPlantCount",
        "offset": 0,
        "slot": "11",
        "type": "t_uint256"
      },
      {
        "astId": 161,
        "contract": "contracts/ElectricitySupplyChain.sol:ElectricitySupplyChain",
        "label": "distributorCount",
        "offset": 0,
        "slot": "12",
        "type": "t_uint256"
      },
      {
        "astId": 163,
        "contract": "contracts/ElectricitySupplyChain.sol:ElectricitySupplyChain",
        "label": "substationCount",
        "offset": 0,
        "slot": "13",
        "type": "t_uint256"
      }
    ],
    "types": {
      "t_address": {
        "encoding": "inplace",
        "label": "address",
        "numberOfBytes": "20"
      },
      "t_array(t_uint256)dyn_storage": {
        "base": "t_uint256",
        "encoding": "dynamic_array",
        "label": "uint256[]",
        "numberOfBytes": "32"
      },
      "t_mapping(t_address,t_uint256)": {
        "encoding": "mapping",
        "key": "t_address",
        "label": "mapping(address => uint256)",
        "numberOfBytes": "32",
        "value": "t_uint256"
      },
      "t_mapping(t_uint256,t_mapping(t_uint256,t_uint256))": {
        "encoding": "mapping",
        "key": "t_uint256",
        "label": "mapping(uint256 => mapping(uint256 => uint256))",
        "numberOfBytes": "32",
        "value": "t_mapping(t_uint256,t_uint256)"
      },
      "t_mapping(t_uint256,t_struct(Distributor)66_storage)": {
        "encoding": "mapping",
        "key": "t_uint256",
        "label": "mapping(uint256 => struct ElectricitySupplyChain.Distributor)",
        "numberOfBytes": "32",
        "value": "t_struct(Distributor)66_storage"
      },
      "t_mapping(t_uint256,t_struct(PowerPlant)100_storage)": {
        "encoding": "mapping",
        "key": "t_uint256",
        "label": "mapping(uint256 => struct ElectricitySupplyChain.PowerPlant)",
        "numberOfBytes": "32",
        "value": "t_struct(PowerPlant)100_storage"
      },
      "t_mapping(t_uint256,t_struct(Substation)84_storage)": {
        "encoding": "mapping",
        "key": "t_uint256",
        "label": "mapping(uint256 => struct ElectricitySupplyChain.Substation)",
        "numberOfBytes": "32",
        "value": "t_struct(Substation)84_storage"
      },
      "t_mapping(t_uint256,t_uint256)": {
        "encoding": "mapping",
        "key": "t_uint256",
        "label": "mapping(uint256 => uint256)",
        "numberOfBytes": "32",
        "value": "t_uint256"
      },
      "t_string_storage": {
        "encoding": "bytes",
        "label": "string",
        "numberOfBytes": "32"
      },
      "t_struct(Distributor)66_storage": {
        "encoding": "inplace",
        "label": "struct ElectricitySupplyChain.Distributor",
        "members": [
          {
            "astId": 50,
            "contract": "contracts/ElectricitySupplyChain.sol:ElectricitySupplyChain",
            "label": "substationId",
            "offset": 0,
            "slot": "0",
            "type": "t_uint256"
          },
          {
            "astId": 52,
            "contract": "contracts/ElectricitySupplyChain.sol:ElectricitySupplyChain",
            "label": "distributorAddress",
            "offset": 0,
            "slot": "1",
            "type": "t_address"
          },
          {
            "astId": 54,
            "contract": "contracts/ElectricitySupplyChain.sol:ElectricitySupplyChain",
            "label": "name",
            "offset": 0,
            "slot": "2",
            "type": "t_string_storage"
          },
          {
            "astId": 56,
            "contract": "contracts/ElectricitySupplyChain.sol:ElectricitySupplyChain",
            "label": "area",
            "offset": 0,
            "slot": "3",
            "type": "t_string_storage"
          },
          {
            "astId": 58,
            "contract": "contracts/ElectricitySupplyChain.sol:ElectricitySupplyChain",
            "label": "energyAvailable",
            "offset": 0,
            "slot": "4",
            "type": "t_uint256"
          },
          {
            "astId": 61,
            "contract": "contracts/ElectricitySupplyChain.sol:ElectricitySupplyChain",
            "label": "consumerIds",
            "offset": 0,
            "slot": "5",
            "type": "t_array(t_uint256)dyn_storage"
          },
          {
            "astId": 63,
            "contract": "contracts/ElectricitySupplyChain.sol:ElectricitySupplyChain",
            "label": "totalEnergySold",
            "offset": 0,
            "slot": "6",
            "type": "t_uint256"
          },
          {
            "astId": 65,
            "contract": "contracts/ElectricitySupplyChain.sol:ElectricitySupplyChain",
            "label": "totalEnergyBought",
            "offset": 0,
            "slot": "7",
            "type": "t_uint256"
          }
        ],
        "numberOfBytes": "256"
      },
      "t_struct(PowerPlant)100_storage": {
        "encoding": "inplace",
        "label": "struct ElectricitySupplyChain.PowerPlant",
        "members": [
          {
            "astId": 86,
            "contract": "contracts/ElectricitySupplyChain.sol:ElectricitySupplyChain",
            "label": "name",
            "offset": 0,
            "slot": "0",
            "type": "t_string_storage"
          },
          {
            "astId": 88,
            "contract": "contracts/ElectricitySupplyChain.sol:ElectricitySupplyChain",
            "label": "area",
            "offset": 0,
            "slot": "1",
            "type": "t_string_storage"
          },
          {
            "astId": 90,
            "contract": "contracts/ElectricitySupplyChain.sol:ElectricitySupplyChain",
            "label": "powerplantAddress",
            "offset": 0,
            "slot": "2",
            "type": "t_address"
          },
          {
            "astId": 93,
            "contract": "contracts/ElectricitySupplyChain.sol:ElectricitySupplyChain",
            "label": "substationIds",
            "offset": 0,
            "slot": "3",
            "type": "t_array(t_uint256)dyn_storage"
          },
          {
            "astId": 95,
            "contract": "contracts/ElectricitySupplyChain.sol:ElectricitySupplyChain",
            "label": "totalEnergyProduced",
            "offset": 0,
            "slot": "4",
            "type": "t_uint256"
          },
          {
            "astId": 97,
            "contract": "contracts/ElectricitySupplyChain.sol:ElectricitySupplyChain",
            "label": "totalEnergySold",
            "offset": 0,
            "slot": "5",
            "type": "t_uint256"
          },
          {
            "astId": 99,
            "contract": "contracts/ElectricitySupplyChain.sol:ElectricitySupplyChain",
            "label": "energyAvailableToBuy",
            "offset": 0,
            "slot": "6",
            "type": "t_uint256"
          }
        ],
        "numberOfBytes": "224"
      },
      "t_struct(Substation)84_storage": {
        "encoding": "inplace",
        "label": "struct ElectricitySupplyChain.Substation",
        "members": [
          {
            "astId": 68,
            "contract": "contracts/ElectricitySupplyChain.sol:ElectricitySupplyChain",
            "label": "name",
            "offset": 0,
            "slot": "0",
            "type": "t_string_storage"
          },
          {
            "astId": 70,
            "contract": "contracts/ElectricitySupplyChain.sol:ElectricitySupplyChain",
            "label": "area",
            "offset": 0,
            "slot": "1",
            "type": "t_string_storage"
          },
          {
            "astId": 72,
            "contract": "contracts/ElectricitySupplyChain.sol:ElectricitySupplyChain",
            "label": "powerplantId",
            "offset": 0,
            "slot": "2",
            "type": "t_uint256"
          },
          {
            "astId": 74,
            "contract": "contracts/ElectricitySupplyChain.sol:ElectricitySupplyChain",
            "label": "substationAddress",
            "offset": 0,
            "slot": "3",
            "type": "t_address"
          },
          {
            "astId": 76,
            "contract": "contracts/ElectricitySupplyChain.sol:ElectricitySupplyChain",
            "label": "totalEnergyReceived",
            "offset": 0,
            "slot": "4",
            "type": "t_uint256"
          },
          {
            "astId": 78,
            "contract": "contracts/ElectricitySupplyChain.sol:ElectricitySupplyChain",
            "label": "totalEnergySold",
            "offset": 0,
            "slot": "5",
            "type": "t_uint256"
          },
          {
            "astId": 81,
            "contract": "contracts/ElectricitySupplyChain.sol:ElectricitySupplyChain",
            "label": "distributorIds",
            "offset": 0,
            "slot": "6",
            "type": "t_array(t_uint256)dyn_storage"
          },
          {
            "astId": 83,
            "contract": "contracts/ElectricitySupplyChain.sol:ElectricitySupplyChain",
            "label": "energyAvailableToBuy",
            "offset": 0,
            "slot": "7",
            "type": "t_uint256"
          }
        ],
        "numberOfBytes": "256"
      },
      "t_uint256": {
        "encoding": "inplace",
        "label": "uint256",
        "numberOfBytes": "32"
      }
    }
  }
}