{
  "address": "0x9927EFfCA02d23665E8f5F65288ed6B76Cd16a95",
  "abi": [
    {
      "anonymous": false,
      "inputs": [
        {
          "indexed": true,
          "internalType": "uint256",
          "name": "consumerId",
          "type": "uint256"
        },
        {
          "indexed": false,
          "internalType": "address",
          "name": "owner",
          "type": "address"
        }
      ],
      "name": "ConsumerAdded",
      "type": "event"
    },
    {
      "anonymous": false,
      "inputs": [
        {
          "indexed": false,
          "internalType": "uint256",
          "name": "consumerTicker",
          "type": "uint256"
        },
        {
          "indexed": false,
          "internalType": "uint256",
          "name": "distributorTicker",
          "type": "uint256"
        },
        {
          "indexed": false,
          "internalType": "uint256",
          "name": "energyConsumed",
          "type": "uint256"
        },
        {
          "indexed": false,
          "internalType": "uint256",
          "name": "startTime",
          "type": "uint256"
        },
        {
          "indexed": false,
          "internalType": "uint256",
          "name": "today",
          "type": "uint256"
        }
      ],
      "name": "ConsumerCancelledElectricity",
      "type": "event"
    },
    {
      "anonymous": false,
      "inputs": [
        {
          "indexed": true,
          "internalType": "uint256",
          "name": "consumerId",
          "type": "uint256"
        },
        {
          "indexed": true,
          "internalType": "uint256",
          "name": "distributorId",
          "type": "uint256"
        },
        {
          "indexed": true,
          "internalType": "uint256",
          "name": "prevDistributorId",
          "type": "uint256"
        }
      ],
      "name": "ConsumerConnectedToDistributor",
      "type": "event"
    },
    {
      "anonymous": false,
      "inputs": [
        {
          "indexed": true,
          "internalType": "uint256",
          "name": "distributorId",
          "type": "uint256"
        },
        {
          "indexed": true,
          "internalType": "address",
          "name": "owner",
          "type": "address"
        },
        {
          "indexed": false,
          "internalType": "uint256",
          "name": "energyAvailableToBuy",
          "type": "uint256"
        }
      ],
      "name": "DistributorAdded",
      "type": "event"
    },
    {
      "anonymous": false,
      "inputs": [
        {
          "indexed": true,
          "internalType": "uint256",
          "name": "distributorId",
          "type": "uint256"
        },
        {
          "indexed": true,
          "internalType": "uint256",
          "name": "substationId",
          "type": "uint256"
        },
        {
          "indexed": true,
          "internalType": "uint256",
          "name": "prevSubstationId",
          "type": "uint256"
        }
      ],
      "name": "DistributorConnectedToSubstation",
      "type": "event"
    },
    {
      "anonymous": false,
      "inputs": [
        {
          "indexed": true,
          "internalType": "uint256",
          "name": "consumerId",
          "type": "uint256"
        },
        {
          "indexed": false,
          "internalType": "uint256",
          "name": "energyConsumed",
          "type": "uint256"
        },
        {
          "indexed": false,
          "internalType": "uint256",
          "name": "startTime",
          "type": "uint256"
        },
        {
          "indexed": false,
          "internalType": "uint256",
          "name": "endTime",
          "type": "uint256"
        }
      ],
      "name": "ElectricityPaidByConsumer",
      "type": "event"
    },
    {
      "anonymous": false,
      "inputs": [
        {
          "indexed": true,
          "internalType": "uint256",
          "name": "powerplantId",
          "type": "uint256"
        },
        {
          "indexed": false,
          "internalType": "uint256",
          "name": "energyAdded",
          "type": "uint256"
        },
        {
          "indexed": false,
          "internalType": "uint256",
          "name": "date",
          "type": "uint256"
        }
      ],
      "name": "EnergyAddedByPowerPlant",
      "type": "event"
    },
    {
      "anonymous": false,
      "inputs": [
        {
          "indexed": true,
          "internalType": "uint256",
          "name": "distributorId",
          "type": "uint256"
        },
        {
          "indexed": false,
          "internalType": "uint256",
          "name": "energyBought",
          "type": "uint256"
        },
        {
          "indexed": false,
          "internalType": "uint256",
          "name": "date",
          "type": "uint256"
        }
      ],
      "name": "EnergyBoughtByDistributor",
      "type": "event"
    },
    {
      "anonymous": false,
      "inputs": [
        {
          "indexed": true,
          "internalType": "uint256",
          "name": "substationId",
          "type": "uint256"
        },
        {
          "indexed": false,
          "internalType": "uint256",
          "name": "energyBought",
          "type": "uint256"
        },
        {
          "indexed": false,
          "internalType": "uint256",
          "name": "date",
          "type": "uint256"
        }
      ],
      "name": "EnergyBoughtBySubstation",
      "type": "event"
    },
    {
      "anonymous": false,
      "inputs": [
        {
          "indexed": true,
          "internalType": "uint256",
          "name": "powerplantId",
          "type": "uint256"
        },
        {
          "indexed": true,
          "internalType": "address",
          "name": "owner",
          "type": "address"
        }
      ],
      "name": "PowerPlantAdded",
      "type": "event"
    },
    {
      "anonymous": false,
      "inputs": [
        {
          "indexed": true,
          "internalType": "uint256",
          "name": "substationId",
          "type": "uint256"
        },
        {
          "indexed": true,
          "internalType": "address",
          "name": "owner",
          "type": "address"
        },
        {
          "indexed": false,
          "internalType": "uint256",
          "name": "energyAvailableToBuy",
          "type": "uint256"
        }
      ],
      "name": "SubstationAdded",
      "type": "event"
    },
    {
      "anonymous": false,
      "inputs": [
        {
          "indexed": true,
          "internalType": "uint256",
          "name": "substationId",
          "type": "uint256"
        },
        {
          "indexed": true,
          "internalType": "uint256",
          "name": "powerPlantId",
          "type": "uint256"
        },
        {
          "indexed": true,
          "internalType": "uint256",
          "name": "prevPowerplantId",
          "type": "uint256"
        }
      ],
      "name": "SubstationConnectedToPowerPlant",
      "type": "event"
    },
    {
      "anonymous": false,
      "inputs": [
        {
          "indexed": false,
          "internalType": "uint256",
          "name": "day",
          "type": "uint256"
        }
      ],
      "name": "UpdateUnitsConsumedRan",
      "type": "event"
    },
    {
      "inputs": [
        {
          "internalType": "string",
          "name": "_name",
          "type": "string"
        },
        {
          "internalType": "string",
          "name": "_homeAddress",
          "type": "string"
        }
      ],
      "name": "addConsumer",
      "outputs": [],
      "stateMutability": "nonpayable",
      "type": "function"
    },
    {
      "inputs": [
        {
          "internalType": "string",
          "name": "_name",
          "type": "string"
        },
        {
          "internalType": "string",
          "name": "_area",
          "type": "string"
        },
        {
          "internalType": "uint256",
          "name": "_energyAvailableToBuy",
          "type": "uint256"
        }
      ],
      "name": "addDistributor",
      "outputs": [],
      "stateMutability": "nonpayable",
      "type": "function"
    },
    {
      "inputs": [
        {
          "internalType": "uint256",
          "name": "_energyAvailableToBuy",
          "type": "uint256"
        }
      ],
      "name": "addEnergyAvailableToBuy",
      "outputs": [],
      "stateMutability": "nonpayable",
      "type": "function"
    },
    {
      "inputs": [
        {
          "internalType": "string",
          "name": "_name",
          "type": "string"
        },
        {
          "internalType": "string",
          "name": "_area",
          "type": "string"
        },
        {
          "internalType": "uint256",
          "name": "_energyAvailableToBuy",
          "type": "uint256"
        }
      ],
      "name": "addPowerPlant",
      "outputs": [],
      "stateMutability": "nonpayable",
      "type": "function"
    },
    {
      "inputs": [
        {
          "internalType": "string",
          "name": "_name",
          "type": "string"
        },
        {
          "internalType": "string",
          "name": "_area",
          "type": "string"
        },
        {
          "internalType": "uint256",
          "name": "_energyAvailableToBuy",
          "type": "uint256"
        }
      ],
      "name": "addSubstation",
      "outputs": [],
      "stateMutability": "nonpayable",
      "type": "function"
    },
    {
      "inputs": [
        {
          "internalType": "uint256",
          "name": "_energyAmount",
          "type": "uint256"
        }
      ],
      "name": "buyEnergyFromPowerPlant",
      "outputs": [],
      "stateMutability": "nonpayable",
      "type": "function"
    },
    {
      "inputs": [
        {
          "internalType": "uint256",
          "name": "_energyAmount",
          "type": "uint256"
        }
      ],
      "name": "buyEnergyFromSubstation",
      "outputs": [],
      "stateMutability": "nonpayable",
      "type": "function"
    },
    {
      "inputs": [],
      "name": "calculateEnergyConsumptionOfEachConsumer",
      "outputs": [],
      "stateMutability": "nonpayable",
      "type": "function"
    },
    {
      "inputs": [
        {
          "internalType": "uint256",
          "name": "_distributorIndex",
          "type": "uint256"
        }
      ],
      "name": "connectConsumerToDistributor",
      "outputs": [],
      "stateMutability": "nonpayable",
      "type": "function"
    },
    {
      "inputs": [
        {
          "internalType": "uint256",
          "name": "_substationIndex",
          "type": "uint256"
        }
      ],
      "name": "connectDistributorToSubstation",
      "outputs": [],
      "stateMutability": "nonpayable",
      "type": "function"
    },
    {
      "inputs": [
        {
          "internalType": "uint256",
          "name": "powerplantIndex",
          "type": "uint256"
        }
      ],
      "name": "connectSubstationToPowerplant",
      "outputs": [],
      "stateMutability": "nonpayable",
      "type": "function"
    },
    {
      "inputs": [
        {
          "internalType": "address",
          "name": "",
          "type": "address"
        },
        {
          "internalType": "uint256",
          "name": "",
          "type": "uint256"
        }
      ],
      "name": "consumerPayments",
      "outputs": [
        {
          "internalType": "uint256",
          "name": "unitsConsumed",
          "type": "uint256"
        },
        {
          "internalType": "uint256",
          "name": "startTime",
          "type": "uint256"
        },
        {
          "internalType": "uint256",
          "name": "endTime",
          "type": "uint256"
        }
      ],
      "stateMutability": "view",
      "type": "function"
    },
    {
      "inputs": [
        {
          "internalType": "uint256",
          "name": "",
          "type": "uint256"
        }
      ],
      "name": "consumers",
      "outputs": [
        {
          "internalType": "string",
          "name": "name",
          "type": "string"
        },
        {
          "internalType": "string",
          "name": "homeAddress",
          "type": "string"
        },
        {
          "internalType": "address",
          "name": "consumerAddress",
          "type": "address"
        },
        {
          "internalType": "uint256",
          "name": "distributorId",
          "type": "uint256"
        },
        {
          "internalType": "uint256",
          "name": "totalEnergyConsumed",
          "type": "uint256"
        },
        {
          "internalType": "bool",
          "name": "isElectricitySupply",
          "type": "bool"
        },
        {
          "internalType": "uint256",
          "name": "payableAmountForEnergy",
          "type": "uint256"
        },
        {
          "internalType": "uint256",
          "name": "startCycleTime",
          "type": "uint256"
        },
        {
          "internalType": "uint256",
          "name": "endCycleTime",
          "type": "uint256"
        },
        {
          "internalType": "bool",
          "name": "isLastElectricityBillPaid",
          "type": "bool"
        },
        {
          "internalType": "uint256",
          "name": "energyConsumedInCurrentCycle",
          "type": "uint256"
        }
      ],
      "stateMutability": "view",
      "type": "function"
    },
    {
      "inputs": [
        {
          "internalType": "address",
          "name": "",
          "type": "address"
        }
      ],
      "name": "consumersAddressToIds",
      "outputs": [
        {
          "internalType": "uint256",
          "name": "",
          "type": "uint256"
        }
      ],
      "stateMutability": "view",
      "type": "function"
    },
    {
      "inputs": [
        {
          "internalType": "uint256",
          "name": "",
          "type": "uint256"
        },
        {
          "internalType": "uint256",
          "name": "",
          "type": "uint256"
        }
      ],
      "name": "consumersDailyEnergyBoughtById",
      "outputs": [
        {
          "internalType": "uint256",
          "name": "",
          "type": "uint256"
        }
      ],
      "stateMutability": "view",
      "type": "function"
    },
    {
      "inputs": [
        {
          "internalType": "address",
          "name": "",
          "type": "address"
        }
      ],
      "name": "distributorAddressToIds",
      "outputs": [
        {
          "internalType": "uint256",
          "name": "",
          "type": "uint256"
        }
      ],
      "stateMutability": "view",
      "type": "function"
    },
    {
      "inputs": [
        {
          "internalType": "uint256",
          "name": "",
          "type": "uint256"
        }
      ],
      "name": "distributorArray",
      "outputs": [
        {
          "internalType": "uint256",
          "name": "",
          "type": "uint256"
        }
      ],
      "stateMutability": "view",
      "type": "function"
    },
    {
      "inputs": [
        {
          "internalType": "uint256",
          "name": "",
          "type": "uint256"
        }
      ],
      "name": "distributors",
      "outputs": [
        {
          "internalType": "uint256",
          "name": "substationId",
          "type": "uint256"
        },
        {
          "internalType": "address",
          "name": "distributorAddress",
          "type": "address"
        },
        {
          "internalType": "string",
          "name": "name",
          "type": "string"
        },
        {
          "internalType": "string",
          "name": "area",
          "type": "string"
        },
        {
          "internalType": "uint256",
          "name": "energyAvailable",
          "type": "uint256"
        },
        {
          "internalType": "uint256",
          "name": "totalEnergySold",
          "type": "uint256"
        },
        {
          "internalType": "uint256",
          "name": "totalEnergyBought",
          "type": "uint256"
        },
        {
          "internalType": "bool",
          "name": "isEnergySupply",
          "type": "bool"
        },
        {
          "internalType": "bool",
          "name": "isLessEnergyWarning",
          "type": "bool"
        }
      ],
      "stateMutability": "view",
      "type": "function"
    },
    {
      "inputs": [
        {
          "internalType": "uint256",
          "name": "",
          "type": "uint256"
        },
        {
          "internalType": "uint256",
          "name": "",
          "type": "uint256"
        }
      ],
      "name": "distributorsDailyEnergyBoughtById",
      "outputs": [
        {
          "internalType": "uint256",
          "name": "",
          "type": "uint256"
        }
      ],
      "stateMutability": "view",
      "type": "function"
    },
    {
      "inputs": [
        {
          "internalType": "uint256",
          "name": "",
          "type": "uint256"
        },
        {
          "internalType": "uint256",
          "name": "",
          "type": "uint256"
        }
      ],
      "name": "distributorsDailyEnergySoldById",
      "outputs": [
        {
          "internalType": "uint256",
          "name": "",
          "type": "uint256"
        }
      ],
      "stateMutability": "view",
      "type": "function"
    },
    {
      "inputs": [
        {
          "internalType": "uint256",
          "name": "_consumerIndex",
          "type": "uint256"
        }
      ],
      "name": "getConsumerById",
      "outputs": [
        {
          "components": [
            {
              "internalType": "string",
              "name": "name",
              "type": "string"
            },
            {
              "internalType": "string",
              "name": "homeAddress",
              "type": "string"
            },
            {
              "internalType": "address",
              "name": "consumerAddress",
              "type": "address"
            },
            {
              "internalType": "uint256",
              "name": "distributorId",
              "type": "uint256"
            },
            {
              "internalType": "uint256",
              "name": "totalEnergyConsumed",
              "type": "uint256"
            },
            {
              "internalType": "bool",
              "name": "isElectricitySupply",
              "type": "bool"
            },
            {
              "internalType": "uint256",
              "name": "payableAmountForEnergy",
              "type": "uint256"
            },
            {
              "internalType": "uint256",
              "name": "startCycleTime",
              "type": "uint256"
            },
            {
              "internalType": "uint256",
              "name": "endCycleTime",
              "type": "uint256"
            },
            {
              "internalType": "bool",
              "name": "isLastElectricityBillPaid",
              "type": "bool"
            },
            {
              "internalType": "uint256",
              "name": "energyConsumedInCurrentCycle",
              "type": "uint256"
            }
          ],
          "internalType": "struct ElectricitySupplyChain.Consumer",
          "name": "",
          "type": "tuple"
        }
      ],
      "stateMutability": "view",
      "type": "function"
    },
    {
      "inputs": [
        {
          "internalType": "uint256",
          "name": "_consumerIndex",
          "type": "uint256"
        },
        {
          "internalType": "uint256",
          "name": "_day",
          "type": "uint256"
        }
      ],
      "name": "getConsumerEnergyBoguhtByDay",
      "outputs": [
        {
          "internalType": "uint256",
          "name": "",
          "type": "uint256"
        }
      ],
      "stateMutability": "view",
      "type": "function"
    },
    {
      "inputs": [
        {
          "internalType": "uint256",
          "name": "_distributorIndex",
          "type": "uint256"
        }
      ],
      "name": "getConsumersFromADistributor",
      "outputs": [
        {
          "internalType": "uint256[]",
          "name": "",
          "type": "uint256[]"
        }
      ],
      "stateMutability": "view",
      "type": "function"
    },
    {
      "inputs": [
        {
          "internalType": "uint256",
          "name": "_distributorIndex",
          "type": "uint256"
        }
      ],
      "name": "getDistributorById",
      "outputs": [
        {
          "components": [
            {
              "internalType": "uint256",
              "name": "substationId",
              "type": "uint256"
            },
            {
              "internalType": "address",
              "name": "distributorAddress",
              "type": "address"
            },
            {
              "internalType": "string",
              "name": "name",
              "type": "string"
            },
            {
              "internalType": "string",
              "name": "area",
              "type": "string"
            },
            {
              "internalType": "uint256",
              "name": "energyAvailable",
              "type": "uint256"
            },
            {
              "internalType": "uint256[]",
              "name": "consumerIds",
              "type": "uint256[]"
            },
            {
              "internalType": "uint256",
              "name": "totalEnergySold",
              "type": "uint256"
            },
            {
              "internalType": "uint256",
              "name": "totalEnergyBought",
              "type": "uint256"
            },
            {
              "internalType": "bool",
              "name": "isEnergySupply",
              "type": "bool"
            },
            {
              "internalType": "bool",
              "name": "isLessEnergyWarning",
              "type": "bool"
            }
          ],
          "internalType": "struct ElectricitySupplyChain.Distributor",
          "name": "",
          "type": "tuple"
        }
      ],
      "stateMutability": "view",
      "type": "function"
    },
    {
      "inputs": [
        {
          "internalType": "uint256",
          "name": "_distributorIndex",
          "type": "uint256"
        },
        {
          "internalType": "uint256",
          "name": "_day",
          "type": "uint256"
        }
      ],
      "name": "getDistributorEnergyBoguhtByDay",
      "outputs": [
        {
          "internalType": "uint256",
          "name": "",
          "type": "uint256"
        }
      ],
      "stateMutability": "view",
      "type": "function"
    },
    {
      "inputs": [],
      "name": "getDistributors",
      "outputs": [
        {
          "internalType": "uint256[]",
          "name": "",
          "type": "uint256[]"
        }
      ],
      "stateMutability": "view",
      "type": "function"
    },
    {
      "inputs": [
        {
          "internalType": "uint256",
          "name": "_powerplantIndex",
          "type": "uint256"
        },
        {
          "internalType": "uint256",
          "name": "_day",
          "type": "uint256"
        }
      ],
      "name": "getPowerPlantEnergyProducedByDay",
      "outputs": [
        {
          "internalType": "uint256",
          "name": "",
          "type": "uint256"
        }
      ],
      "stateMutability": "view",
      "type": "function"
    },
    {
      "inputs": [
        {
          "internalType": "uint256",
          "name": "_powerplantIndex",
          "type": "uint256"
        },
        {
          "internalType": "uint256",
          "name": "_day",
          "type": "uint256"
        }
      ],
      "name": "getPowerPlantEnergySoldByDay",
      "outputs": [
        {
          "internalType": "uint256",
          "name": "",
          "type": "uint256"
        }
      ],
      "stateMutability": "view",
      "type": "function"
    },
    {
      "inputs": [
        {
          "internalType": "uint256",
          "name": "_powerplantIndex",
          "type": "uint256"
        }
      ],
      "name": "getPowerplantById",
      "outputs": [
        {
          "components": [
            {
              "internalType": "string",
              "name": "name",
              "type": "string"
            },
            {
              "internalType": "string",
              "name": "area",
              "type": "string"
            },
            {
              "internalType": "address",
              "name": "powerplantAddress",
              "type": "address"
            },
            {
              "internalType": "uint256[]",
              "name": "substationIds",
              "type": "uint256[]"
            },
            {
              "internalType": "uint256",
              "name": "totalEnergyProduced",
              "type": "uint256"
            },
            {
              "internalType": "uint256",
              "name": "totalEnergySold",
              "type": "uint256"
            },
            {
              "internalType": "uint256",
              "name": "energyAvailableToBuy",
              "type": "uint256"
            }
          ],
          "internalType": "struct ElectricitySupplyChain.PowerPlant",
          "name": "",
          "type": "tuple"
        }
      ],
      "stateMutability": "view",
      "type": "function"
    },
    {
      "inputs": [
        {
          "internalType": "uint256",
          "name": "_substationIndex",
          "type": "uint256"
        }
      ],
      "name": "getSubstationById",
      "outputs": [
        {
          "components": [
            {
              "internalType": "string",
              "name": "name",
              "type": "string"
            },
            {
              "internalType": "string",
              "name": "area",
              "type": "string"
            },
            {
              "internalType": "uint256",
              "name": "powerplantId",
              "type": "uint256"
            },
            {
              "internalType": "address",
              "name": "substationAddress",
              "type": "address"
            },
            {
              "internalType": "uint256",
              "name": "totalEnergyReceived",
              "type": "uint256"
            },
            {
              "internalType": "uint256",
              "name": "totalEnergySold",
              "type": "uint256"
            },
            {
              "internalType": "uint256[]",
              "name": "distributorIds",
              "type": "uint256[]"
            },
            {
              "internalType": "uint256",
              "name": "energyAvailableToBuy",
              "type": "uint256"
            }
          ],
          "internalType": "struct ElectricitySupplyChain.Substation",
          "name": "",
          "type": "tuple"
        }
      ],
      "stateMutability": "view",
      "type": "function"
    },
    {
      "inputs": [
        {
          "internalType": "uint256",
          "name": "_substationIndex",
          "type": "uint256"
        },
        {
          "internalType": "uint256",
          "name": "_day",
          "type": "uint256"
        }
      ],
      "name": "getSubstationEnergyBoughtByDay",
      "outputs": [
        {
          "internalType": "uint256",
          "name": "",
          "type": "uint256"
        }
      ],
      "stateMutability": "view",
      "type": "function"
    },
    {
      "inputs": [
        {
          "internalType": "uint256",
          "name": "_substationIndex",
          "type": "uint256"
        },
        {
          "internalType": "uint256",
          "name": "_day",
          "type": "uint256"
        }
      ],
      "name": "getSubstationEnergySoldByDay",
      "outputs": [
        {
          "internalType": "uint256",
          "name": "",
          "type": "uint256"
        }
      ],
      "stateMutability": "view",
      "type": "function"
    },
    {
      "inputs": [
        {
          "internalType": "uint256",
          "name": "_powerplantIndex",
          "type": "uint256"
        }
      ],
      "name": "getSubstationsOfPowerPlant",
      "outputs": [
        {
          "components": [
            {
              "internalType": "string",
              "name": "name",
              "type": "string"
            },
            {
              "internalType": "string",
              "name": "area",
              "type": "string"
            },
            {
              "internalType": "uint256",
              "name": "powerplantId",
              "type": "uint256"
            },
            {
              "internalType": "address",
              "name": "substationAddress",
              "type": "address"
            },
            {
              "internalType": "uint256",
              "name": "totalEnergyReceived",
              "type": "uint256"
            },
            {
              "internalType": "uint256",
              "name": "totalEnergySold",
              "type": "uint256"
            },
            {
              "internalType": "uint256[]",
              "name": "distributorIds",
              "type": "uint256[]"
            },
            {
              "internalType": "uint256",
              "name": "energyAvailableToBuy",
              "type": "uint256"
            }
          ],
          "internalType": "struct ElectricitySupplyChain.Substation[]",
          "name": "",
          "type": "tuple[]"
        }
      ],
      "stateMutability": "view",
      "type": "function"
    },
    {
      "inputs": [
        {
          "internalType": "uint256",
          "name": "consumerIndex",
          "type": "uint256"
        }
      ],
      "name": "getUnitsConsumedByConsumerInCycle",
      "outputs": [
        {
          "internalType": "uint256",
          "name": "",
          "type": "uint256"
        }
      ],
      "stateMutability": "view",
      "type": "function"
    },
    {
      "inputs": [],
      "name": "payBill",
      "outputs": [],
      "stateMutability": "nonpayable",
      "type": "function"
    },
    {
      "inputs": [],
      "name": "payBillAndCancelSupply",
      "outputs": [],
      "stateMutability": "nonpayable",
      "type": "function"
    },
    {
      "inputs": [
        {
          "internalType": "uint256",
          "name": "",
          "type": "uint256"
        }
      ],
      "name": "powerPlants",
      "outputs": [
        {
          "internalType": "string",
          "name": "name",
          "type": "string"
        },
        {
          "internalType": "string",
          "name": "area",
          "type": "string"
        },
        {
          "internalType": "address",
          "name": "powerplantAddress",
          "type": "address"
        },
        {
          "internalType": "uint256",
          "name": "totalEnergyProduced",
          "type": "uint256"
        },
        {
          "internalType": "uint256",
          "name": "totalEnergySold",
          "type": "uint256"
        },
        {
          "internalType": "uint256",
          "name": "energyAvailableToBuy",
          "type": "uint256"
        }
      ],
      "stateMutability": "view",
      "type": "function"
    },
    {
      "inputs": [
        {
          "internalType": "address",
          "name": "",
          "type": "address"
        }
      ],
      "name": "powerPlantsAddressToIds",
      "outputs": [
        {
          "internalType": "uint256",
          "name": "",
          "type": "uint256"
        }
      ],
      "stateMutability": "view",
      "type": "function"
    },
    {
      "inputs": [
        {
          "internalType": "uint256",
          "name": "",
          "type": "uint256"
        },
        {
          "internalType": "uint256",
          "name": "",
          "type": "uint256"
        }
      ],
      "name": "powerPlantsDailyEnergyProducedById",
      "outputs": [
        {
          "internalType": "uint256",
          "name": "",
          "type": "uint256"
        }
      ],
      "stateMutability": "view",
      "type": "function"
    },
    {
      "inputs": [
        {
          "internalType": "uint256",
          "name": "",
          "type": "uint256"
        },
        {
          "internalType": "uint256",
          "name": "",
          "type": "uint256"
        }
      ],
      "name": "powerPlantsDailyEnergySoldById",
      "outputs": [
        {
          "internalType": "uint256",
          "name": "",
          "type": "uint256"
        }
      ],
      "stateMutability": "view",
      "type": "function"
    },
    {
      "inputs": [
        {
          "internalType": "uint256",
          "name": "",
          "type": "uint256"
        }
      ],
      "name": "substations",
      "outputs": [
        {
          "internalType": "string",
          "name": "name",
          "type": "string"
        },
        {
          "internalType": "string",
          "name": "area",
          "type": "string"
        },
        {
          "internalType": "uint256",
          "name": "powerplantId",
          "type": "uint256"
        },
        {
          "internalType": "address",
          "name": "substationAddress",
          "type": "address"
        },
        {
          "internalType": "uint256",
          "name": "totalEnergyReceived",
          "type": "uint256"
        },
        {
          "internalType": "uint256",
          "name": "totalEnergySold",
          "type": "uint256"
        },
        {
          "internalType": "uint256",
          "name": "energyAvailableToBuy",
          "type": "uint256"
        }
      ],
      "stateMutability": "view",
      "type": "function"
    },
    {
      "inputs": [
        {
          "internalType": "address",
          "name": "",
          "type": "address"
        }
      ],
      "name": "substationsAddressToIds",
      "outputs": [
        {
          "internalType": "uint256",
          "name": "",
          "type": "uint256"
        }
      ],
      "stateMutability": "view",
      "type": "function"
    },
    {
      "inputs": [
        {
          "internalType": "uint256",
          "name": "",
          "type": "uint256"
        },
        {
          "internalType": "uint256",
          "name": "",
          "type": "uint256"
        }
      ],
      "name": "substationsDailyEnergyBoughtById",
      "outputs": [
        {
          "internalType": "uint256",
          "name": "",
          "type": "uint256"
        }
      ],
      "stateMutability": "view",
      "type": "function"
    },
    {
      "inputs": [
        {
          "internalType": "uint256",
          "name": "",
          "type": "uint256"
        },
        {
          "internalType": "uint256",
          "name": "",
          "type": "uint256"
        }
      ],
      "name": "substationsDailyEnergySoldById",
      "outputs": [
        {
          "internalType": "uint256",
          "name": "",
          "type": "uint256"
        }
      ],
      "stateMutability": "view",
      "type": "function"
    }
  ],
  "transactionHash": "0x1d21832f669d9eaf450c5cf4234a3ba2d82ad6cb397ec7df97d65f38d3732476",
  "args": [],
  "numDeployments": 20,
  "solcInputHash": "a7c1973c3a704b043eb99b590ba04240",
  "bytecode": "0x608060405234801561001057600080fd5b50614456806100206000396000f3fe608060405234801561001057600080fd5b50600436106102735760003560e01c806376ba67c211610151578063987f9b85116100c3578063c1e66a4211610087578063c1e66a42146106cc578063c3a3ebad146106d4578063ccc07c19146106e7578063d4eac34d14610712578063f2ff914514610725578063f8a7f60c1461073857600080fd5b8063987f9b851461061a5780639eb569af1461062d578063ad37ed7414610658578063af9ddc891461067e578063b581aae3146106ac57600080fd5b80637e067315116101155780637e067315146105765780638812446b146105895780638d1299e3146105b45780638e2056d1146105df57806390e87986146105f2578063942d33ce146105fa57600080fd5b806376ba67c2146105085780637a7816581461051b5780637bb9812d146105235780637c4e15e8146105365780637d4706701461055657600080fd5b80634eadbcd4116101ea57806365dbb986116101ae57806365dbb9861461046457806366c28063146104775780636bc0a19b146104975780636ef435d4146104aa5780637211c4d0146104bd5780637259d78a146104e857600080fd5b80634eadbcd4146103de57806350b492ba146103f157806359516f1b14610419578063608b74c61461042c5780636451164c1461043f57600080fd5b80631b3bec251161023c5780631b3bec251461032b5780632257bad41461033e5780632554fd6414610361578063257744201461036957806330b2edf1146103945780634651ed3d146103b457600080fd5b8062d8590d1461027857806305718abc1461028d5780630b636f3a146102cb578063115e616d146102eb5780631a2dae881461030b575b600080fd5b61028b6102863660046137c4565b61074b565b005b6102b861029b366004613831565b600860209081526000928352604080842090915290825290205481565b6040519081526020015b60405180910390f35b6102de6102d9366004613853565b610931565b6040516102c291906138ed565b6102fe6102f9366004613853565b610b7e565b6040516102c29190613986565b61031e610319366004613853565b610be3565b6040516102c291906139a0565b6102b8610339366004613831565b610e64565b6102b861034c366004613853565b6000908152600e60205260409020600a015490565b61028b610ebc565b6102b8610377366004613831565b600d60209081526000928352604080842090915290825290205481565b6103a76103a2366004613853565b61111b565b6040516102c29190613aff565b6103c76103c2366004613853565b611350565b6040516102c29b9a99989796959493929190613b12565b6102b86103ec366004613853565b6114c9565b6104046103ff366004613853565b6114ea565b6040516102c299989796959493929190613b8d565b61028b6104273660046137c4565b611652565b6102b861043a366004613831565b611844565b61045261044d366004613853565b61189c565b6040516102c296959493929190613bfe565b61028b6104723660046137c4565b6119eb565b6102b8610485366004613c6e565b60026020526000908152604090205481565b61028b6104a5366004613c89565b611bff565b61028b6104b8366004613853565b611d6c565b6102b86104cb366004613831565b600360209081526000928352604080842090915290825290205481565b6102b86104f6366004613c6e565b600f6020526000908152604090205481565b6102b8610516366004613831565b611fa8565b61028b612000565b6102b8610531366004613831565b6121e6565b610549610544366004613853565b612268565b6040516102c29190613ced565b610569610564366004613853565b612500565b6040516102c29190613dba565b6102b8610584366004613831565b61260c565b6102b8610597366004613831565b600460209081526000928352604080842090915290825290205481565b6102b86105c2366004613831565b601060209081526000928352604080842090915290825290205481565b61028b6105ed366004613853565b612664565b6102fe6128c4565b6102b8610608366004613c6e565b600b6020526000908152604090205481565b61028b610628366004613853565b61291c565b6102b861063b366004613831565b600960209081526000928352604080842090915290825290205481565b61066b610666366004613853565b612b78565b6040516102c29796959493929190613e1c565b61069161068c366004613e75565b612ccd565b604080519384526020840192909252908201526060016102c2565b6102b86106ba366004613c6e565b60066020526000908152604090205481565b61028b612d0f565b61028b6106e2366004613853565b613004565b6102b86106f5366004613831565b600c60209081526000928352604080842090915290825290205481565b6102b8610720366004613831565b6131ef565b61028b610733366004613853565b613247565b61028b610746366004613853565b6133dd565b33600090815260026020526040902054156107815760405162461bcd60e51b815260040161077890613e9f565b60405180910390fd5b336000908152600b6020526040902054156107ae5760405162461bcd60e51b815260040161077890613ee5565b33600090815260066020526040902054156107db5760405162461bcd60e51b815260040161077890613f2b565b336000908152600f6020526040902054156108085760405162461bcd60e51b815260040161077890613f72565b336000908152600b6020526040902054156108805760405162461bcd60e51b815260206004820152603260248201527f53756273746174696f6e20616c7265616479206578697374732077697468207460448201527168652063757272656e74206164647265737360701b6064820152608401610778565b6001601360008282546108939190613fcc565b90915550506013546000818152600a60209081526040808320338452600b90925290912091909155806108c68582614068565b50600181016108d58482614068565b506003810180546001600160a01b03191633908117909155600782018390556013546040518481527f87811c48455fe14a033cafe58bdfac97fe57f6694ebd5822e7fe91fbabc058a0906020015b60405180910390a350505050565b61097a6040518060e00160405280606081526020016060815260200160006001600160a01b03168152602001606081526020016000815260200160008152602001600081525090565b60008281526001602052604090206002015482906001600160a01b03166109b35760405162461bcd60e51b815260040161077890614128565b60008381526001602052604090819020815160e081019092528054829082906109db90613fe5565b80601f0160208091040260200160405190810160405280929190818152602001828054610a0790613fe5565b8015610a545780601f10610a2957610100808354040283529160200191610a54565b820191906000526020600020905b815481529060010190602001808311610a3757829003601f168201915b50505050508152602001600182018054610a6d90613fe5565b80601f0160208091040260200160405190810160405280929190818152602001828054610a9990613fe5565b8015610ae65780601f10610abb57610100808354040283529160200191610ae6565b820191906000526020600020905b815481529060010190602001808311610ac957829003601f168201915b505050918352505060028201546001600160a01b03166020808301919091526003830180546040805182850281018501825282815294019392830182828015610b4e57602002820191906000526020600020905b815481526020019060010190808311610b3a575b50505050508152602001600482015481526020016005820154815260200160068201548152505091505b50919050565b600081815260056020818152604092839020909101805483518184028101840190945280845260609392830182828015610bd757602002820191906000526020600020905b815481526020019060010190808311610bc3575b50505050509050919050565b610c4d604051806101600160405280606081526020016060815260200160006001600160a01b031681526020016000815260200160008152602001600015158152602001600081526020016000815260200160008152602001600015158152602001600081525090565b6000828152600e602052604090206002015482906001600160a01b0316610cb05760405162461bcd60e51b815260206004820152601760248201527610dbdb9cdd5b595c88191bd95cc81b9bdd08195e1a5cdd604a1b6044820152606401610778565b6000838152600e60205260409081902081516101608101909252805482908290610cd990613fe5565b80601f0160208091040260200160405190810160405280929190818152602001828054610d0590613fe5565b8015610d525780601f10610d2757610100808354040283529160200191610d52565b820191906000526020600020905b815481529060010190602001808311610d3557829003601f168201915b50505050508152602001600182018054610d6b90613fe5565b80601f0160208091040260200160405190810160405280929190818152602001828054610d9790613fe5565b8015610de45780601f10610db957610100808354040283529160200191610de4565b820191906000526020600020905b815481529060010190602001808311610dc757829003601f168201915b505050918352505060028201546001600160a01b031660208201526003820154604082015260048201546060820152600582015460ff90811615156080830152600683015460a0830152600783015460c0830152600883015460e08301526009830154161515610100820152600a90910154610120909101529392505050565b60008281526005602052604081206001015483906001600160a01b0316610e9d5760405162461bcd60e51b81526004016107789061415f565b5050600091825260086020908152604080842092845291905290205490565b336000908152600f60209081526040808320548352600e90915290206008810154421015610efc5760405162461bcd60e51b815260040161077890614196565b6003808201805460408051606081018252600a860180548252600787018054602080850191825260088a0180548688019081523360009081528084528881208054600181810183559183528583208a5191909e02909d019c8d5594518c86015590516002909b019a909a559289905591889055918790556005808901805460ff1990811690915560098a0180549091169093179092559486905583865290935283209092805b6005830154811015610ffe57336000908152600f602052604090205460058401805483908110610fd457610fd46141dc565b906000526020600020015403610fec57809150610ffe565b80610ff6816141f2565b915050610fa2565b50805b60058301546110129060019061420b565b8110156110765760058301611028826001613fcc565b81548110611038576110386141dc565b9060005260206000200154836005018281548110611058576110586141dc565b6000918252602090912001558061106e816141f2565b915050611001565b508160050180548061108a5761108a61421e565b600082815260208082208301600019908101839055909201909255338252600f81526040909120548451918501517f52c3b58c0abde56ad1f4a0b5224b419410d645acb66e53d26e7d8513171936ce9287916110e96201518042614234565b604080519586526020860194909452928401919091526060830152608082015260a00160405180910390a15050505050565b6111236136d3565b6000828152600a602052604090206003015482906001600160a01b031661115c5760405162461bcd60e51b815260040161077890614256565b6000838152600a6020526040908190208151610100810190925280548290829061118590613fe5565b80601f01602080910402602001604051908101604052809291908181526020018280546111b190613fe5565b80156111fe5780601f106111d3576101008083540402835291602001916111fe565b820191906000526020600020905b8154815290600101906020018083116111e157829003601f168201915b5050505050815260200160018201805461121790613fe5565b80601f016020809104026020016040519081016040528092919081815260200182805461124390613fe5565b80156112905780601f1061126557610100808354040283529160200191611290565b820191906000526020600020905b81548152906001019060200180831161127357829003601f168201915b50505050508152602001600282015481526020016003820160009054906101000a90046001600160a01b03166001600160a01b03166001600160a01b0316815260200160048201548152602001600582015481526020016006820180548060200260200160405190810160405280929190818152602001828054801561133557602002820191906000526020600020905b815481526020019060010190808311611321575b50505050508152602001600782015481525050915050919050565b600e6020526000908152604090208054819061136b90613fe5565b80601f016020809104026020016040519081016040528092919081815260200182805461139790613fe5565b80156113e45780601f106113b9576101008083540402835291602001916113e4565b820191906000526020600020905b8154815290600101906020018083116113c757829003601f168201915b5050505050908060010180546113f990613fe5565b80601f016020809104026020016040519081016040528092919081815260200182805461142590613fe5565b80156114725780601f1061144757610100808354040283529160200191611472565b820191906000526020600020905b81548152906001019060200180831161145557829003601f168201915b50505050600283015460038401546004850154600586015460068701546007880154600889015460098a0154600a909a015498996001600160a01b0390971698959750939560ff938416959294919391929116908b565b600781815481106114d957600080fd5b600091825260209091200154905081565b60056020526000908152604090208054600182015460028301805492936001600160a01b039092169261151c90613fe5565b80601f016020809104026020016040519081016040528092919081815260200182805461154890613fe5565b80156115955780601f1061156a57610100808354040283529160200191611595565b820191906000526020600020905b81548152906001019060200180831161157857829003601f168201915b5050505050908060030180546115aa90613fe5565b80601f01602080910402602001604051908101604052809291908181526020018280546115d690613fe5565b80156116235780601f106115f857610100808354040283529160200191611623565b820191906000526020600020905b81548152906001019060200180831161160657829003601f168201915b505050506004830154600684015460078501546008909501549394919390925060ff8082169161010090041689565b336000908152600260205260409020541561167f5760405162461bcd60e51b815260040161077890613e9f565b336000908152600b6020526040902054156116ac5760405162461bcd60e51b815260040161077890613ee5565b33600090815260066020526040902054156116d95760405162461bcd60e51b815260040161077890613f2b565b336000908152600f6020526040902054156117065760405162461bcd60e51b815260040161077890613f72565b3360009081526002602052604090205480156117645760405162461bcd60e51b815260206004820152601a60248201527f506f77657220706c616e7420616c7265616479206578697374730000000000006044820152606401610778565b6001601160008282546117779190613fcc565b90915550506011546000818152600160209081526040808320338085526002938490529190932093909355810180546001600160a01b031916909217909155806117c18682614068565b50600181016117d08582614068565b50600681018390556004810183905560006117ee6201518042614234565b6011805460009081526003602090815260408083208584529091528082208890559154915192935033927f8ed0f10f8db3aa7c553ea6a6b03c61058dfa62a9ad1b85b4e7ab759ff8165dd79190a3505050505050565b6000828152600a602052604081206003015483906001600160a01b031661187d5760405162461bcd60e51b815260040161077890614256565b50506000918252600d6020908152604080842092845291905290205490565b6001602052600090815260409020805481906118b790613fe5565b80601f01602080910402602001604051908101604052809291908181526020018280546118e390613fe5565b80156119305780601f1061190557610100808354040283529160200191611930565b820191906000526020600020905b81548152906001019060200180831161191357829003601f168201915b50505050509080600101805461194590613fe5565b80601f016020809104026020016040519081016040528092919081815260200182805461197190613fe5565b80156119be5780601f10611993576101008083540402835291602001916119be565b820191906000526020600020905b8154815290600101906020018083116119a157829003601f168201915b5050505060028301546004840154600585015460069095015493946001600160a01b039092169390925086565b3360009081526002602052604090205415611a185760405162461bcd60e51b815260040161077890613e9f565b336000908152600b602052604090205415611a455760405162461bcd60e51b815260040161077890613ee5565b3360009081526006602052604090205415611a725760405162461bcd60e51b815260040161077890613f2b565b336000908152600f602052604090205415611a9f5760405162461bcd60e51b815260040161077890613f72565b3360009081526006602052604090205415611b105760405162461bcd60e51b815260206004820152602b60248201527f4469737472696275746f7220616c72656164792065786973747320776974682060448201526a746865206164647265737360a81b6064820152608401610778565b600160126000828254611b239190613fcc565b9091555050601254600081815260056020908152604080832033845260069092529091209190915560028101611b598582614068565b5060038101611b688482614068565b50600181810180546001600160a01b031916339081179091556004830184905560088301805460ff1916831790556012546007805493840181556000527fa66cc928b5edb82af9bd49922954155ab7b0942694bea4ce44661d9a8736c6889092018290556040518481529091907fb4ffce99b074ca0b19d0fb8efa8523647db979b167cdd0bc4cbbd91f91e1454190602001610923565b3360009081526002602052604090205415611c2c5760405162461bcd60e51b815260040161077890613e9f565b336000908152600b602052604090205415611c595760405162461bcd60e51b815260040161077890613ee5565b3360009081526006602052604090205415611c865760405162461bcd60e51b815260040161077890613f2b565b336000908152600f602052604090205415611cb35760405162461bcd60e51b815260040161077890613f72565b600160146000828254611cc69190613fcc565b90915550506014546000908152600e6020526040902080611ce78482614068565b5060018101611cf68382614068565b5060148054336000818152600f6020908152604091829020939093556002850180546001600160a01b0319168317905560098501805460ff19166001179055925492519081527f4e5aab67fb6878a7c5437d638d002992f2b503107c053f38483f6b2949487493910160405180910390a2505050565b336000908152600660205260408120549003611d9a5760405162461bcd60e51b81526004016107789061428d565b33600081815260066020908152604080832054835260059091529020600101546001600160a01b031614611de05760405162461bcd60e51b8152600401610778906142e0565b336000908152600660209081526040808320548084526005835281842080548552600a90935292206007810154841115611e2c5760405162461bcd60e51b81526004016107789061430c565b83816007016000828254611e40919061420b565b9250508190555083826007016000828254611e5b9190613fcc565b9091555060009050611e706201518042614234565b6000858152600860209081526040808320848452909152812080549293508792909190611e9e908490613fcc565b9250508190555084836004016000828254611eb99190613fcc565b909155505082546000908152600d6020908152604080832084845290915281208054879290611ee9908490613fcc565b909155505060088301805461ffff1916600117905560005b6005840154811015611f64576000600e6000866005018481548110611f2857611f286141dc565b600091825260208083209091015483528201929092526040019020600501805460ff191660011790555080611f5c816141f2565b915050611f01565b50604080518681526020810183905285917f73adff80ab623465da18a83132be6ce95cb48b93c74c4a33915d3abdc75d509291015b60405180910390a25050505050565b60008281526001602052604081206002015483906001600160a01b0316611fe15760405162461bcd60e51b815260040161077890614128565b5050600091825260046020908152604080842092845291905290205490565b336000908152600f6020526040812054900361202e5760405162461bcd60e51b815260040161077890614350565b336000818152600f60209081526040808320548352600e9091529020600201546001600160a01b03161461209c5760405162461bcd60e51b81526020600482015260156024820152742cb7ba9030b932903737ba103a34329037bbb732b960591b6044820152606401610778565b336000908152600f60209081526040808320548352600e909152902060088101544210156120dc5760405162461bcd60e51b815260040161077890614196565b60408051606081018252600a8301805482526007840180546020808501918252428587018181523360009081528084528881208054600181810183559183528583208a516003928302909101908155965191870191909155915160029095019490945593819055600880890191909155938290559186015481526005909152929092209091015460ff161561217b5760058201805460ff191660011790555b60098201805460ff19166001179055336000908152600f602090815260409182902054835184830151845191825292810192909252428284015291517fbae4f55091b69074b7207256769054059e9d5c3509bb5063351980dc676fdd8a916060908290030190a25050565b6000828152600e602052604081206002015483906001600160a01b03166122495760405162461bcd60e51b815260206004820152601760248201527610dbdb9cdd5b595c88191bd95cc81b9bdd08195e1a5cdd604a1b6044820152606401610778565b5050600091825260106020908152604080842092845291905290205490565b6122cb6040518061014001604052806000815260200160006001600160a01b031681526020016060815260200160608152602001600081526020016060815260200160008152602001600081526020016000151581526020016000151581525090565b60008281526005602052604090206001015482906001600160a01b03166123045760405162461bcd60e51b81526004016107789061415f565b6000838152600560209081526040918290208251610140810184528154815260018201546001600160a01b031692810192909252600281018054929391929184019161234f90613fe5565b80601f016020809104026020016040519081016040528092919081815260200182805461237b90613fe5565b80156123c85780601f1061239d576101008083540402835291602001916123c8565b820191906000526020600020905b8154815290600101906020018083116123ab57829003601f168201915b505050505081526020016003820180546123e190613fe5565b80601f016020809104026020016040519081016040528092919081815260200182805461240d90613fe5565b801561245a5780601f1061242f5761010080835404028352916020019161245a565b820191906000526020600020905b81548152906001019060200180831161243d57829003601f168201915b5050505050815260200160048201548152602001600582018054806020026020016040519081016040528092919081815260200182805480156124bc57602002820191906000526020600020905b8154815260200190600101908083116124a8575b5050509183525050600682015460208201526007820154604082015260089091015460ff808216151560608401526101009091041615156080909101529392505050565b60008181526001602052604090206002015460609082906001600160a01b031661253c5760405162461bcd60e51b815260040161077890614128565b600061254784610931565b6060015190506000815167ffffffffffffffff81111561256957612569613721565b6040519080825280602002602001820160405280156125a257816020015b61258f6136d3565b8152602001906001900390816125875790505b50905060005b8251811015612603576125d38382815181106125c6576125c66141dc565b602002602001015161111b565b8282815181106125e5576125e56141dc565b602002602001018190525080806125fb906141f2565b9150506125a8565b50949350505050565b60008281526001602052604081206002015483906001600160a01b03166126455760405162461bcd60e51b815260040161077890614128565b5050600091825260036020908152604080842092845291905290205490565b336000908152600b602052604081205490036126925760405162461bcd60e51b8152600401610778906143a0565b336000818152600b60209081526040808320548352600a9091529020600301546001600160a01b0316146126d85760405162461bcd60e51b8152600401610778906142e0565b60008181526001602052604090206002015481906001600160a01b03166127115760405162461bcd60e51b815260040161077890614128565b336000908152600b60209081526040808320548352600a90915290206002810154801561284f576002820154600090815260016020526040812090805b60038301548110156127aa57336000908152600b602052604090205460038401805483908110612780576127806141dc565b906000526020600020015403612798578091506127aa565b806127a2816141f2565b91505061274e565b50805b60038301546127be9060019061420b565b81101561282257600383016127d4826001613fcc565b815481106127e4576127e46141dc565b9060005260206000200154836003018281548110612804576128046141dc565b6000918252602090912001558061281a816141f2565b9150506127ad565b50816003018054806128365761283661421e565b6001900381819060005260206000200160009055905550505b60028201849055600084815260016020818152604080842033808652600b8452828620805460038401805497880181558852948720909501939093559184529154915190928492889290917f1153c1b626cc03d95ce45f3c02f68a82e0e19c75e1ef2fa7ef8b9fd0cb6b7e7e91a45050505050565b6060600780548060200260200160405190810160405280929190818152602001828054801561291257602002820191906000526020600020905b8154815260200190600101908083116128fe575b5050505050905090565b33600090815260066020526040812054900361294a5760405162461bcd60e51b81526004016107789061428d565b33600081815260066020908152604080832054835260059091529020600101546001600160a01b0316146129905760405162461bcd60e51b8152600401610778906142e0565b6000818152600a602052604090206003015481906001600160a01b03166129c95760405162461bcd60e51b815260040161077890614256565b3360009081526006602090815260408083205483526005909152902080548015612b035781546000908152600a6020526040812090805b6006830154811015612a5e5733600090815260066020819052604090912054908401805483908110612a3457612a346141dc565b906000526020600020015403612a4c57809150612a5e565b80612a56816141f2565b915050612a00565b50805b6006830154612a729060019061420b565b811015612ad65760068301612a88826001613fcc565b81548110612a9857612a986141dc565b9060005260206000200154836006018281548110612ab857612ab86141dc565b60009182526020909120015580612ace816141f2565b915050612a61565b5081600601805480612aea57612aea61421e565b6001900381819060005260206000200160009055905550505b8382556000848152600a6020908152604080832033808552600b845282852054600680840180546001810182559088528688200191909155908552909252808320549051919284928892917f73512025db3bffe4e4a3db857c38406e5b88161e3d0c961c4d3a559da1f5b7a691a45050505050565b600a60205260009081526040902080548190612b9390613fe5565b80601f0160208091040260200160405190810160405280929190818152602001828054612bbf90613fe5565b8015612c0c5780601f10612be157610100808354040283529160200191612c0c565b820191906000526020600020905b815481529060010190602001808311612bef57829003601f168201915b505050505090806001018054612c2190613fe5565b80601f0160208091040260200160405190810160405280929190818152602001828054612c4d90613fe5565b8015612c9a5780601f10612c6f57610100808354040283529160200191612c9a565b820191906000526020600020905b815481529060010190602001808311612c7d57829003601f168201915b5050506002840154600385015460048601546005870154600790970154959692956001600160a01b039092169450925087565b60006020528160005260406000208181548110612ce957600080fd5b600091825260209091206003909102018054600182015460029092015490935090915083565b6000612d1e6201518042614234565b905060005b600754811015612fcd5760006005600060078481548110612d4657612d466141dc565b9060005260206000200154815260200190815260200160002090506000606482600401546014612d7691906143f2565b612d809190614234565b905060148111612d9c5760088201805461ff0019166101001790555b600882015460ff1615612fb8576000805b6005840154811015612f44576000600e6000866005018481548110612dd457612dd46141dc565b600091825260208083209091015483528201929092526040019020600981015490915060ff1615612e0c5760098101805460ff191690555b600481018054906000612e1e836141f2565b9091555050600a81018054906000612e35836141f2565b9091555050600485018054906000612e4c83614409565b91905055508280612e5c906141f2565b93505060106000866005018481548110612e7857612e786141dc565b6000918252602080832090910154835282810193909352604091820181208a82529092528120805491612eaa836141f2565b91905055506000856004015411612f315760088501805460ff1916905560005b6005860154811015612f2a576000600e6000886005018481548110612ef157612ef16141dc565b600091825260208083209091015483528201929092526040019020600501805460ff191690555080612f22816141f2565b915050612eca565b5050612f44565b5080612f3c816141f2565b915050612dad565b5080836006016000828254612f599190613fcc565b92505081905550806009600060078781548110612f7857612f786141dc565b9060005260206000200154815260200190815260200160002060008781526020019081526020016000206000828254612fb19190613fcc565b9091555050505b50508080612fc5906141f2565b915050612d23565b506040518181527f5e9b042cf7333acd794a79fc59f2ea91169145682301bd657c7b77eddc97b2279060200160405180910390a150565b336000908152600b602052604081205490036130325760405162461bcd60e51b8152600401610778906143a0565b336000818152600b60209081526040808320548352600a9091529020600301546001600160a01b0316146130785760405162461bcd60e51b8152600401610778906142e0565b336000908152600b6020908152604080832054808452600a8352818420600281015485526001909352922060068101548411156130c75760405162461bcd60e51b81526004016107789061430c565b838160060160008282546130db919061420b565b92505081905550838260040160008282546130f69190613fcc565b909155506000905061310b6201518042614234565b6000858152600c60209081526040808320848452909152812080549293508792909190613139908490613fcc565b92505081905550848360070160008282546131549190613fcc565b90915550506002830154600090815260046020908152604080832084845290915281208054879290613187908490613fcc565b92505081905550848260050160008282546131a29190613fcc565b9091555050336000908152600b6020908152604091829020548251888152918201849052917fd751c239d69943b20a7a994414c35ad1948382a57234874e2df47560fe29df139101611f99565b6000828152600a602052604081206003015483906001600160a01b03166132285760405162461bcd60e51b815260040161077890614256565b50506000918252600c6020908152604080842092845291905290205490565b3360009081526002602052604081205490036132bf5760405162461bcd60e51b815260206004820152603160248201527f506f7765706c616e7420646f6573206e6f74206578697374206f7220796f752060448201527030b932903737ba103a34329037bbb732b960791b6064820152608401610778565b336000818152600260208181526040808420548452600190915290912001546001600160a01b0316146133045760405162461bcd60e51b8152600401610778906142e0565b336000908152600260209081526040808320548084526001909252822060068101805492939192859290613339908490613fcc565b909155506000905061334e6201518042614234565b600084815260036020908152604080832084845290915281208054929350869290919061337c908490613fcc565b92505081905550838260040160008282546133979190613fcc565b9091555050604080518581526020810183905284917ff9996ab4e5c178ed609618b0b9ab2a55506a5816b5cbb5a0f6a117e1f85e18ce910160405180910390a250505050565b60008181526005602052604090206001015481906001600160a01b03166134165760405162461bcd60e51b81526004016107789061415f565b336000908152600f602052604081205490036134445760405162461bcd60e51b815260040161077890614350565b336000818152600f60209081526040808320548352600e9091529020600201546001600160a01b0316146134b25760405162461bcd60e51b81526020600482015260156024820152742cb7ba9030b932903737ba103a34329037bbb732b960591b6044820152606401610778565b336000908152600f6020908152604080832054808452600e909252909120600981015460ff166135245760405162461bcd60e51b815260206004820181905260248201527f506c65617365207061792074686520656e6572677920757365642066697273746044820152606401610778565b60008481526005602052604090206003820154801561364f57600081815260056020526040812090805b60058301548110156135aa57336000908152600f602052604090205460058401805483908110613580576135806141dc565b906000526020600020015403613598578091506135aa565b806135a2816141f2565b91505061354e565b50805b60058301546135be9060019061420b565b81101561362257600583016135d4826001613fcc565b815481106135e4576135e46141dc565b9060005260206000200154836005018281548110613604576136046141dc565b6000918252602090912001558061361a816141f2565b9150506135ad565b50816005018054806136365761363661421e565b6001900381819060005260206000200160009055905550505b600580830180546001818101835560009283526020832090910187905542600787018190556008870155918501805460ff199081168417909155600386018990556009860180549091169092179091556040518291889187917fa8019f760f81eb800e12797672d721662949c73b561be796faa56fea579efebf91a4505050505050565b60405180610100016040528060608152602001606081526020016000815260200160006001600160a01b03168152602001600081526020016000815260200160608152602001600081525090565b634e487b7160e01b600052604160045260246000fd5b600082601f83011261374857600080fd5b813567ffffffffffffffff8082111561376357613763613721565b604051601f8301601f19908116603f0116810190828211818310171561378b5761378b613721565b816040528381528660208588010111156137a457600080fd5b836020870160208301376000602085830101528094505050505092915050565b6000806000606084860312156137d957600080fd5b833567ffffffffffffffff808211156137f157600080fd5b6137fd87838801613737565b9450602086013591508082111561381357600080fd5b5061382086828701613737565b925050604084013590509250925092565b6000806040838503121561384457600080fd5b50508035926020909101359150565b60006020828403121561386557600080fd5b5035919050565b6000815180845260005b8181101561389257602081850181015186830182015201613876565b506000602082860101526020601f19601f83011685010191505092915050565b600081518084526020808501945080840160005b838110156138e2578151875295820195908201906001016138c6565b509495945050505050565b602081526000825160e0602084015261390a61010084018261386c565b90506020840151601f1980858403016040860152613928838361386c565b60408701516001600160a01b031660608781019190915287015186820390920160808701529250905061395b82826138b2565b915050608084015160a084015260a084015160c084015260c084015160e08401528091505092915050565b60208152600061399960208301846138b2565b9392505050565b60208152600082516101608060208501526139bf61018085018361386c565b91506020850151601f198584030160408601526139dc838261386c565b92505060408501516139f960608601826001600160a01b03169052565b5060608501516080850152608085015160a085015260a0850151613a2160c086018215159052565b5060c085015160e0858101919091528501516101008086019190915285015161012080860191909152850151610140613a5d8187018315159052565b959095015193019290925250919050565b60006101008251818552613a848286018261386c565b91505060208301518482036020860152613a9e828261386c565b9150506040830151604085015260018060a01b0360608401511660608501526080830151608085015260a083015160a085015260c083015184820360c0860152613ae882826138b2565b91505060e083015160e08501528091505092915050565b6020815260006139996020830184613a6e565b6000610160808352613b268184018f61386c565b90508281036020840152613b3a818e61386c565b6001600160a01b039c909c16604084015250506060810198909852608088019690965293151560a087015260c086019290925260e085015261010084015215156101208301526101409091015292915050565b8981526001600160a01b038916602082015261012060408201819052600090613bb88382018b61386c565b90508281036060840152613bcc818a61386c565b6080840198909852505060a081019490945260c0840192909252151560e0830152151561010090910152949350505050565b60c081526000613c1160c083018961386c565b8281036020840152613c23818961386c565b6001600160a01b0397909716604084015250506060810193909352608083019190915260a09091015292915050565b80356001600160a01b0381168114613c6957600080fd5b919050565b600060208284031215613c8057600080fd5b61399982613c52565b60008060408385031215613c9c57600080fd5b823567ffffffffffffffff80821115613cb457600080fd5b613cc086838701613737565b93506020850135915080821115613cd657600080fd5b50613ce385828601613737565b9150509250929050565b602081528151602082015260006020830151613d1460408401826001600160a01b03169052565b506040830151610140806060850152613d3161016085018361386c565b91506060850151601f1980868503016080870152613d4f848361386c565b9350608087015160a087015260a08701519150808685030160c087015250613d7783826138b2565b92505060c085015160e085015260e0850151610100818187015280870151915050610120613da88187018315159052565b90950151151593019290925250919050565b6000602080830181845280855180835260408601915060408160051b870101925083870160005b82811015613e0f57603f19888603018452613dfd858351613a6e565b94509285019290850190600101613de1565b5092979650505050505050565b60e081526000613e2f60e083018a61386c565b8281036020840152613e41818a61386c565b604084019890985250506001600160a01b03949094166060850152608084019290925260a083015260c09091015292915050565b60008060408385031215613e8857600080fd5b613e9183613c52565b946020939093013593505050565b60208082526026908201527f4163636f756e7420616c726561647920657869737473207769746820506f77656040820152651c9c1b185b9d60d21b606082015260800190565b60208082526026908201527f4163636f756e7420616c726561647920657869737473207769746820537562736040820152653a30ba34b7b760d11b606082015260800190565b60208082526027908201527f4163636f756e7420616c726561647920657869737473207769746820446973746040820152663934b13aba37b960c91b606082015260800190565b60208082526024908201527f4163636f756e7420616c726561647920657869737473207769746820436f6e736040820152633ab6b2b960e11b606082015260800190565b634e487b7160e01b600052601160045260246000fd5b80820180821115613fdf57613fdf613fb6565b92915050565b600181811c90821680613ff957607f821691505b602082108103610b7857634e487b7160e01b600052602260045260246000fd5b601f82111561406357600081815260208120601f850160051c810160208610156140405750805b601f850160051c820191505b8181101561405f5782815560010161404c565b5050505b505050565b815167ffffffffffffffff81111561408257614082613721565b614096816140908454613fe5565b84614019565b602080601f8311600181146140cb57600084156140b35750858301515b600019600386901b1c1916600185901b17855561405f565b600085815260208120601f198616915b828110156140fa578886015182559484019460019091019084016140db565b50858210156141185787850151600019600388901b60f8161c191681555b5050505050600190811b01905550565b60208082526019908201527f506f776572706c616e7420646f6573206e6f7420657869737400000000000000604082015260600190565b6020808252601a908201527f4469737472696275746f7220646f6573206e6f74206578697374000000000000604082015260600190565b60208082526026908201527f5061796d656e742063616e206f6e6c79206265206d616465206166746572203360408201526530206461797360d01b606082015260800190565b634e487b7160e01b600052603260045260246000fd5b60006001820161420457614204613fb6565b5060010190565b81810381811115613fdf57613fdf613fb6565b634e487b7160e01b600052603160045260246000fd5b60008261425157634e487b7160e01b600052601260045260246000fd5b500490565b60208082526019908201527f53756273746174696f6e20646f6573206e6f7420657869737400000000000000604082015260600190565b60208082526033908201527f4469737472696275746f7220646f6573206e6f74206578697374206f7220796f6040820152723a9030b932903737ba103a34329037bbb732b960691b606082015260800190565b60208082526012908201527113db9b1e481bdddb995c88185b1b1bddd95960721b604082015260600190565b60208082526024908201527f496e73756666696369656e7420656e6572677920617661696c61626c6520746f6040820152632062757960e01b606082015260800190565b60208082526030908201527f436f6e73756d657220646f6573206e6f74206578697374206f7220796f75206160408201526f3932903737ba103a34329037bbb732b960811b606082015260800190565b60208082526032908201527f53756273746174696f6e20646f6573206e6f74206578697374206f7220796f756040820152711030b932903737ba103a34329037bbb732b960711b606082015260800190565b8082028115828204841417613fdf57613fdf613fb6565b60008161441857614418613fb6565b50600019019056fea26469706673582212207ff2324ed2bbed16536e0bc8a85286bddecc0ec3b00f5bf64008ab209be4591564736f6c63430008110033",
  "devdoc": {
    "kind": "dev",
    "methods": {},
    "version": 1
  },
  "userdoc": {
    "kind": "user",
    "methods": {},
    "version": 1
  },
  "storageLayout": {
    "storage": [
      {
        "astId": 196,
        "contract": "contracts/ElectricitySupplyChain.sol:ElectricitySupplyChain",
        "label": "consumerPayments",
        "offset": 0,
        "slot": "0",
        "type": "t_mapping(t_address,t_array(t_struct(Payment)190_storage)dyn_storage)"
      },
      {
        "astId": 201,
        "contract": "contracts/ElectricitySupplyChain.sol:ElectricitySupplyChain",
        "label": "powerPlants",
        "offset": 0,
        "slot": "1",
        "type": "t_mapping(t_uint256,t_struct(PowerPlant)160_storage)"
      },
      {
        "astId": 205,
        "contract": "contracts/ElectricitySupplyChain.sol:ElectricitySupplyChain",
        "label": "powerPlantsAddressToIds",
        "offset": 0,
        "slot": "2",
        "type": "t_mapping(t_address,t_uint256)"
      },
      {
        "astId": 211,
        "contract": "contracts/ElectricitySupplyChain.sol:ElectricitySupplyChain",
        "label": "powerPlantsDailyEnergyProducedById",
        "offset": 0,
        "slot": "3",
        "type": "t_mapping(t_uint256,t_mapping(t_uint256,t_uint256))"
      },
      {
        "astId": 217,
        "contract": "contracts/ElectricitySupplyChain.sol:ElectricitySupplyChain",
        "label": "powerPlantsDailyEnergySoldById",
        "offset": 0,
        "slot": "4",
        "type": "t_mapping(t_uint256,t_mapping(t_uint256,t_uint256))"
      },
      {
        "astId": 222,
        "contract": "contracts/ElectricitySupplyChain.sol:ElectricitySupplyChain",
        "label": "distributors",
        "offset": 0,
        "slot": "5",
        "type": "t_mapping(t_uint256,t_struct(Distributor)126_storage)"
      },
      {
        "astId": 226,
        "contract": "contracts/ElectricitySupplyChain.sol:ElectricitySupplyChain",
        "label": "distributorAddressToIds",
        "offset": 0,
        "slot": "6",
        "type": "t_mapping(t_address,t_uint256)"
      },
      {
        "astId": 229,
        "contract": "contracts/ElectricitySupplyChain.sol:ElectricitySupplyChain",
        "label": "distributorArray",
        "offset": 0,
        "slot": "7",
        "type": "t_array(t_uint256)dyn_storage"
      },
      {
        "astId": 235,
        "contract": "contracts/ElectricitySupplyChain.sol:ElectricitySupplyChain",
        "label": "distributorsDailyEnergyBoughtById",
        "offset": 0,
        "slot": "8",
        "type": "t_mapping(t_uint256,t_mapping(t_uint256,t_uint256))"
      },
      {
        "astId": 241,
        "contract": "contracts/ElectricitySupplyChain.sol:ElectricitySupplyChain",
        "label": "distributorsDailyEnergySoldById",
        "offset": 0,
        "slot": "9",
        "type": "t_mapping(t_uint256,t_mapping(t_uint256,t_uint256))"
      },
      {
        "astId": 246,
        "contract": "contracts/ElectricitySupplyChain.sol:ElectricitySupplyChain",
        "label": "substations",
        "offset": 0,
        "slot": "10",
        "type": "t_mapping(t_uint256,t_struct(Substation)144_storage)"
      },
      {
        "astId": 250,
        "contract": "contracts/ElectricitySupplyChain.sol:ElectricitySupplyChain",
        "label": "substationsAddressToIds",
        "offset": 0,
        "slot": "11",
        "type": "t_mapping(t_address,t_uint256)"
      },
      {
        "astId": 256,
        "contract": "contracts/ElectricitySupplyChain.sol:ElectricitySupplyChain",
        "label": "substationsDailyEnergyBoughtById",
        "offset": 0,
        "slot": "12",
        "type": "t_mapping(t_uint256,t_mapping(t_uint256,t_uint256))"
      },
      {
        "astId": 262,
        "contract": "contracts/ElectricitySupplyChain.sol:ElectricitySupplyChain",
        "label": "substationsDailyEnergySoldById",
        "offset": 0,
        "slot": "13",
        "type": "t_mapping(t_uint256,t_mapping(t_uint256,t_uint256))"
      },
      {
        "astId": 267,
        "contract": "contracts/ElectricitySupplyChain.sol:ElectricitySupplyChain",
        "label": "consumers",
        "offset": 0,
        "slot": "14",
        "type": "t_mapping(t_uint256,t_struct(Consumer)183_storage)"
      },
      {
        "astId": 271,
        "contract": "contracts/ElectricitySupplyChain.sol:ElectricitySupplyChain",
        "label": "consumersAddressToIds",
        "offset": 0,
        "slot": "15",
        "type": "t_mapping(t_address,t_uint256)"
      },
      {
        "astId": 277,
        "contract": "contracts/ElectricitySupplyChain.sol:ElectricitySupplyChain",
        "label": "consumersDailyEnergyBoughtById",
        "offset": 0,
        "slot": "16",
        "type": "t_mapping(t_uint256,t_mapping(t_uint256,t_uint256))"
      },
      {
        "astId": 279,
        "contract": "contracts/ElectricitySupplyChain.sol:ElectricitySupplyChain",
        "label": "powerPlantCount",
        "offset": 0,
        "slot": "17",
        "type": "t_uint256"
      },
      {
        "astId": 281,
        "contract": "contracts/ElectricitySupplyChain.sol:ElectricitySupplyChain",
        "label": "distributorCount",
        "offset": 0,
        "slot": "18",
        "type": "t_uint256"
      },
      {
        "astId": 283,
        "contract": "contracts/ElectricitySupplyChain.sol:ElectricitySupplyChain",
        "label": "substationCount",
        "offset": 0,
        "slot": "19",
        "type": "t_uint256"
      },
      {
        "astId": 285,
        "contract": "contracts/ElectricitySupplyChain.sol:ElectricitySupplyChain",
        "label": "consumerCount",
        "offset": 0,
        "slot": "20",
        "type": "t_uint256"
      }
    ],
    "types": {
      "t_address": {
        "encoding": "inplace",
        "label": "address",
        "numberOfBytes": "20"
      },
      "t_array(t_struct(Payment)190_storage)dyn_storage": {
        "base": "t_struct(Payment)190_storage",
        "encoding": "dynamic_array",
        "label": "struct ElectricitySupplyChain.Payment[]",
        "numberOfBytes": "32"
      },
      "t_array(t_uint256)dyn_storage": {
        "base": "t_uint256",
        "encoding": "dynamic_array",
        "label": "uint256[]",
        "numberOfBytes": "32"
      },
      "t_bool": {
        "encoding": "inplace",
        "label": "bool",
        "numberOfBytes": "1"
      },
      "t_mapping(t_address,t_array(t_struct(Payment)190_storage)dyn_storage)": {
        "encoding": "mapping",
        "key": "t_address",
        "label": "mapping(address => struct ElectricitySupplyChain.Payment[])",
        "numberOfBytes": "32",
        "value": "t_array(t_struct(Payment)190_storage)dyn_storage"
      },
      "t_mapping(t_address,t_uint256)": {
        "encoding": "mapping",
        "key": "t_address",
        "label": "mapping(address => uint256)",
        "numberOfBytes": "32",
        "value": "t_uint256"
      },
      "t_mapping(t_uint256,t_mapping(t_uint256,t_uint256))": {
        "encoding": "mapping",
        "key": "t_uint256",
        "label": "mapping(uint256 => mapping(uint256 => uint256))",
        "numberOfBytes": "32",
        "value": "t_mapping(t_uint256,t_uint256)"
      },
      "t_mapping(t_uint256,t_struct(Consumer)183_storage)": {
        "encoding": "mapping",
        "key": "t_uint256",
        "label": "mapping(uint256 => struct ElectricitySupplyChain.Consumer)",
        "numberOfBytes": "32",
        "value": "t_struct(Consumer)183_storage"
      },
      "t_mapping(t_uint256,t_struct(Distributor)126_storage)": {
        "encoding": "mapping",
        "key": "t_uint256",
        "label": "mapping(uint256 => struct ElectricitySupplyChain.Distributor)",
        "numberOfBytes": "32",
        "value": "t_struct(Distributor)126_storage"
      },
      "t_mapping(t_uint256,t_struct(PowerPlant)160_storage)": {
        "encoding": "mapping",
        "key": "t_uint256",
        "label": "mapping(uint256 => struct ElectricitySupplyChain.PowerPlant)",
        "numberOfBytes": "32",
        "value": "t_struct(PowerPlant)160_storage"
      },
      "t_mapping(t_uint256,t_struct(Substation)144_storage)": {
        "encoding": "mapping",
        "key": "t_uint256",
        "label": "mapping(uint256 => struct ElectricitySupplyChain.Substation)",
        "numberOfBytes": "32",
        "value": "t_struct(Substation)144_storage"
      },
      "t_mapping(t_uint256,t_uint256)": {
        "encoding": "mapping",
        "key": "t_uint256",
        "label": "mapping(uint256 => uint256)",
        "numberOfBytes": "32",
        "value": "t_uint256"
      },
      "t_string_storage": {
        "encoding": "bytes",
        "label": "string",
        "numberOfBytes": "32"
      },
      "t_struct(Consumer)183_storage": {
        "encoding": "inplace",
        "label": "struct ElectricitySupplyChain.Consumer",
        "members": [
          {
            "astId": 162,
            "contract": "contracts/ElectricitySupplyChain.sol:ElectricitySupplyChain",
            "label": "name",
            "offset": 0,
            "slot": "0",
            "type": "t_string_storage"
          },
          {
            "astId": 164,
            "contract": "contracts/ElectricitySupplyChain.sol:ElectricitySupplyChain",
            "label": "homeAddress",
            "offset": 0,
            "slot": "1",
            "type": "t_string_storage"
          },
          {
            "astId": 166,
            "contract": "contracts/ElectricitySupplyChain.sol:ElectricitySupplyChain",
            "label": "consumerAddress",
            "offset": 0,
            "slot": "2",
            "type": "t_address"
          },
          {
            "astId": 168,
            "contract": "contracts/ElectricitySupplyChain.sol:ElectricitySupplyChain",
            "label": "distributorId",
            "offset": 0,
            "slot": "3",
            "type": "t_uint256"
          },
          {
            "astId": 170,
            "contract": "contracts/ElectricitySupplyChain.sol:ElectricitySupplyChain",
            "label": "totalEnergyConsumed",
            "offset": 0,
            "slot": "4",
            "type": "t_uint256"
          },
          {
            "astId": 172,
            "contract": "contracts/ElectricitySupplyChain.sol:ElectricitySupplyChain",
            "label": "isElectricitySupply",
            "offset": 0,
            "slot": "5",
            "type": "t_bool"
          },
          {
            "astId": 174,
            "contract": "contracts/ElectricitySupplyChain.sol:ElectricitySupplyChain",
            "label": "payableAmountForEnergy",
            "offset": 0,
            "slot": "6",
            "type": "t_uint256"
          },
          {
            "astId": 176,
            "contract": "contracts/ElectricitySupplyChain.sol:ElectricitySupplyChain",
            "label": "startCycleTime",
            "offset": 0,
            "slot": "7",
            "type": "t_uint256"
          },
          {
            "astId": 178,
            "contract": "contracts/ElectricitySupplyChain.sol:ElectricitySupplyChain",
            "label": "endCycleTime",
            "offset": 0,
            "slot": "8",
            "type": "t_uint256"
          },
          {
            "astId": 180,
            "contract": "contracts/ElectricitySupplyChain.sol:ElectricitySupplyChain",
            "label": "isLastElectricityBillPaid",
            "offset": 0,
            "slot": "9",
            "type": "t_bool"
          },
          {
            "astId": 182,
            "contract": "contracts/ElectricitySupplyChain.sol:ElectricitySupplyChain",
            "label": "energyConsumedInCurrentCycle",
            "offset": 0,
            "slot": "10",
            "type": "t_uint256"
          }
        ],
        "numberOfBytes": "352"
      },
      "t_struct(Distributor)126_storage": {
        "encoding": "inplace",
        "label": "struct ElectricitySupplyChain.Distributor",
        "members": [
          {
            "astId": 106,
            "contract": "contracts/ElectricitySupplyChain.sol:ElectricitySupplyChain",
            "label": "substationId",
            "offset": 0,
            "slot": "0",
            "type": "t_uint256"
          },
          {
            "astId": 108,
            "contract": "contracts/ElectricitySupplyChain.sol:ElectricitySupplyChain",
            "label": "distributorAddress",
            "offset": 0,
            "slot": "1",
            "type": "t_address"
          },
          {
            "astId": 110,
            "contract": "contracts/ElectricitySupplyChain.sol:ElectricitySupplyChain",
            "label": "name",
            "offset": 0,
            "slot": "2",
            "type": "t_string_storage"
          },
          {
            "astId": 112,
            "contract": "contracts/ElectricitySupplyChain.sol:ElectricitySupplyChain",
            "label": "area",
            "offset": 0,
            "slot": "3",
            "type": "t_string_storage"
          },
          {
            "astId": 114,
            "contract": "contracts/ElectricitySupplyChain.sol:ElectricitySupplyChain",
            "label": "energyAvailable",
            "offset": 0,
            "slot": "4",
            "type": "t_uint256"
          },
          {
            "astId": 117,
            "contract": "contracts/ElectricitySupplyChain.sol:ElectricitySupplyChain",
            "label": "consumerIds",
            "offset": 0,
            "slot": "5",
            "type": "t_array(t_uint256)dyn_storage"
          },
          {
            "astId": 119,
            "contract": "contracts/ElectricitySupplyChain.sol:ElectricitySupplyChain",
            "label": "totalEnergySold",
            "offset": 0,
            "slot": "6",
            "type": "t_uint256"
          },
          {
            "astId": 121,
            "contract": "contracts/ElectricitySupplyChain.sol:ElectricitySupplyChain",
            "label": "totalEnergyBought",
            "offset": 0,
            "slot": "7",
            "type": "t_uint256"
          },
          {
            "astId": 123,
            "contract": "contracts/ElectricitySupplyChain.sol:ElectricitySupplyChain",
            "label": "isEnergySupply",
            "offset": 0,
            "slot": "8",
            "type": "t_bool"
          },
          {
            "astId": 125,
            "contract": "contracts/ElectricitySupplyChain.sol:ElectricitySupplyChain",
            "label": "isLessEnergyWarning",
            "offset": 1,
            "slot": "8",
            "type": "t_bool"
          }
        ],
        "numberOfBytes": "288"
      },
      "t_struct(Payment)190_storage": {
        "encoding": "inplace",
        "label": "struct ElectricitySupplyChain.Payment",
        "members": [
          {
            "astId": 185,
            "contract": "contracts/ElectricitySupplyChain.sol:ElectricitySupplyChain",
            "label": "unitsConsumed",
            "offset": 0,
            "slot": "0",
            "type": "t_uint256"
          },
          {
            "astId": 187,
            "contract": "contracts/ElectricitySupplyChain.sol:ElectricitySupplyChain",
            "label": "startTime",
            "offset": 0,
            "slot": "1",
            "type": "t_uint256"
          },
          {
            "astId": 189,
            "contract": "contracts/ElectricitySupplyChain.sol:ElectricitySupplyChain",
            "label": "endTime",
            "offset": 0,
            "slot": "2",
            "type": "t_uint256"
          }
        ],
        "numberOfBytes": "96"
      },
      "t_struct(PowerPlant)160_storage": {
        "encoding": "inplace",
        "label": "struct ElectricitySupplyChain.PowerPlant",
        "members": [
          {
            "astId": 146,
            "contract": "contracts/ElectricitySupplyChain.sol:ElectricitySupplyChain",
            "label": "name",
            "offset": 0,
            "slot": "0",
            "type": "t_string_storage"
          },
          {
            "astId": 148,
            "contract": "contracts/ElectricitySupplyChain.sol:ElectricitySupplyChain",
            "label": "area",
            "offset": 0,
            "slot": "1",
            "type": "t_string_storage"
          },
          {
            "astId": 150,
            "contract": "contracts/ElectricitySupplyChain.sol:ElectricitySupplyChain",
            "label": "powerplantAddress",
            "offset": 0,
            "slot": "2",
            "type": "t_address"
          },
          {
            "astId": 153,
            "contract": "contracts/ElectricitySupplyChain.sol:ElectricitySupplyChain",
            "label": "substationIds",
            "offset": 0,
            "slot": "3",
            "type": "t_array(t_uint256)dyn_storage"
          },
          {
            "astId": 155,
            "contract": "contracts/ElectricitySupplyChain.sol:ElectricitySupplyChain",
            "label": "totalEnergyProduced",
            "offset": 0,
            "slot": "4",
            "type": "t_uint256"
          },
          {
            "astId": 157,
            "contract": "contracts/ElectricitySupplyChain.sol:ElectricitySupplyChain",
            "label": "totalEnergySold",
            "offset": 0,
            "slot": "5",
            "type": "t_uint256"
          },
          {
            "astId": 159,
            "contract": "contracts/ElectricitySupplyChain.sol:ElectricitySupplyChain",
            "label": "energyAvailableToBuy",
            "offset": 0,
            "slot": "6",
            "type": "t_uint256"
          }
        ],
        "numberOfBytes": "224"
      },
      "t_struct(Substation)144_storage": {
        "encoding": "inplace",
        "label": "struct ElectricitySupplyChain.Substation",
        "members": [
          {
            "astId": 128,
            "contract": "contracts/ElectricitySupplyChain.sol:ElectricitySupplyChain",
            "label": "name",
            "offset": 0,
            "slot": "0",
            "type": "t_string_storage"
          },
          {
            "astId": 130,
            "contract": "contracts/ElectricitySupplyChain.sol:ElectricitySupplyChain",
            "label": "area",
            "offset": 0,
            "slot": "1",
            "type": "t_string_storage"
          },
          {
            "astId": 132,
            "contract": "contracts/ElectricitySupplyChain.sol:ElectricitySupplyChain",
            "label": "powerplantId",
            "offset": 0,
            "slot": "2",
            "type": "t_uint256"
          },
          {
            "astId": 134,
            "contract": "contracts/ElectricitySupplyChain.sol:ElectricitySupplyChain",
            "label": "substationAddress",
            "offset": 0,
            "slot": "3",
            "type": "t_address"
          },
          {
            "astId": 136,
            "contract": "contracts/ElectricitySupplyChain.sol:ElectricitySupplyChain",
            "label": "totalEnergyReceived",
            "offset": 0,
            "slot": "4",
            "type": "t_uint256"
          },
          {
            "astId": 138,
            "contract": "contracts/ElectricitySupplyChain.sol:ElectricitySupplyChain",
            "label": "totalEnergySold",
            "offset": 0,
            "slot": "5",
            "type": "t_uint256"
          },
          {
            "astId": 141,
            "contract": "contracts/ElectricitySupplyChain.sol:ElectricitySupplyChain",
            "label": "distributorIds",
            "offset": 0,
            "slot": "6",
            "type": "t_array(t_uint256)dyn_storage"
          },
          {
            "astId": 143,
            "contract": "contracts/ElectricitySupplyChain.sol:ElectricitySupplyChain",
            "label": "energyAvailableToBuy",
            "offset": 0,
            "slot": "7",
            "type": "t_uint256"
          }
        ],
        "numberOfBytes": "256"
      },
      "t_uint256": {
        "encoding": "inplace",
        "label": "uint256",
        "numberOfBytes": "32"
      }
    }
  }
}