{
  "address": "0x0FEC9997811195552cB21BF0EC7350258F9DB41a",
  "abi": [
    {
      "anonymous": false,
      "inputs": [
        {
          "indexed": true,
          "internalType": "uint256",
          "name": "consumerId",
          "type": "uint256"
        },
        {
          "indexed": false,
          "internalType": "address",
          "name": "owner",
          "type": "address"
        }
      ],
      "name": "ConsumerAdded",
      "type": "event"
    },
    {
      "anonymous": false,
      "inputs": [
        {
          "indexed": false,
          "internalType": "uint256",
          "name": "consumerTicker",
          "type": "uint256"
        },
        {
          "indexed": false,
          "internalType": "uint256",
          "name": "distributorTicker",
          "type": "uint256"
        },
        {
          "indexed": false,
          "internalType": "uint256",
          "name": "energyConsumed",
          "type": "uint256"
        },
        {
          "indexed": false,
          "internalType": "uint256",
          "name": "startTime",
          "type": "uint256"
        },
        {
          "indexed": false,
          "internalType": "uint256",
          "name": "today",
          "type": "uint256"
        }
      ],
      "name": "ConsumerCancelledElectricity",
      "type": "event"
    },
    {
      "anonymous": false,
      "inputs": [
        {
          "indexed": true,
          "internalType": "uint256",
          "name": "consumerId",
          "type": "uint256"
        },
        {
          "indexed": true,
          "internalType": "uint256",
          "name": "distributorId",
          "type": "uint256"
        },
        {
          "indexed": true,
          "internalType": "uint256",
          "name": "prevDistributorId",
          "type": "uint256"
        }
      ],
      "name": "ConsumerConnectedToDistributor",
      "type": "event"
    },
    {
      "anonymous": false,
      "inputs": [
        {
          "indexed": true,
          "internalType": "uint256",
          "name": "distributorId",
          "type": "uint256"
        },
        {
          "indexed": true,
          "internalType": "address",
          "name": "owner",
          "type": "address"
        },
        {
          "indexed": false,
          "internalType": "uint256",
          "name": "energyAvailableToBuy",
          "type": "uint256"
        }
      ],
      "name": "DistributorAdded",
      "type": "event"
    },
    {
      "anonymous": false,
      "inputs": [
        {
          "indexed": true,
          "internalType": "uint256",
          "name": "distributorId",
          "type": "uint256"
        },
        {
          "indexed": true,
          "internalType": "uint256",
          "name": "substationId",
          "type": "uint256"
        },
        {
          "indexed": true,
          "internalType": "uint256",
          "name": "prevSubstationId",
          "type": "uint256"
        }
      ],
      "name": "DistributorConnectedToSubstation",
      "type": "event"
    },
    {
      "anonymous": false,
      "inputs": [
        {
          "indexed": true,
          "internalType": "uint256",
          "name": "consumerId",
          "type": "uint256"
        },
        {
          "indexed": false,
          "internalType": "uint256",
          "name": "energyConsumed",
          "type": "uint256"
        },
        {
          "indexed": false,
          "internalType": "uint256",
          "name": "startTime",
          "type": "uint256"
        },
        {
          "indexed": false,
          "internalType": "uint256",
          "name": "endTime",
          "type": "uint256"
        }
      ],
      "name": "ElectricityPaidByConsumer",
      "type": "event"
    },
    {
      "anonymous": false,
      "inputs": [
        {
          "indexed": true,
          "internalType": "uint256",
          "name": "powerplantId",
          "type": "uint256"
        },
        {
          "indexed": false,
          "internalType": "uint256",
          "name": "energyAdded",
          "type": "uint256"
        },
        {
          "indexed": false,
          "internalType": "uint256",
          "name": "date",
          "type": "uint256"
        }
      ],
      "name": "EnergyAddedByPowerPlant",
      "type": "event"
    },
    {
      "anonymous": false,
      "inputs": [
        {
          "indexed": true,
          "internalType": "uint256",
          "name": "distributorId",
          "type": "uint256"
        },
        {
          "indexed": false,
          "internalType": "uint256",
          "name": "energyBought",
          "type": "uint256"
        },
        {
          "indexed": false,
          "internalType": "uint256",
          "name": "date",
          "type": "uint256"
        }
      ],
      "name": "EnergyBoughtByDistributor",
      "type": "event"
    },
    {
      "anonymous": false,
      "inputs": [
        {
          "indexed": true,
          "internalType": "uint256",
          "name": "substationId",
          "type": "uint256"
        },
        {
          "indexed": false,
          "internalType": "uint256",
          "name": "energyBought",
          "type": "uint256"
        },
        {
          "indexed": false,
          "internalType": "uint256",
          "name": "date",
          "type": "uint256"
        }
      ],
      "name": "EnergyBoughtBySubstation",
      "type": "event"
    },
    {
      "anonymous": false,
      "inputs": [
        {
          "indexed": true,
          "internalType": "uint256",
          "name": "powerplantId",
          "type": "uint256"
        },
        {
          "indexed": true,
          "internalType": "address",
          "name": "owner",
          "type": "address"
        }
      ],
      "name": "PowerPlantAdded",
      "type": "event"
    },
    {
      "anonymous": false,
      "inputs": [
        {
          "indexed": true,
          "internalType": "uint256",
          "name": "substationId",
          "type": "uint256"
        },
        {
          "indexed": true,
          "internalType": "address",
          "name": "owner",
          "type": "address"
        },
        {
          "indexed": false,
          "internalType": "uint256",
          "name": "energyAvailableToBuy",
          "type": "uint256"
        }
      ],
      "name": "SubstationAdded",
      "type": "event"
    },
    {
      "anonymous": false,
      "inputs": [
        {
          "indexed": true,
          "internalType": "uint256",
          "name": "substationId",
          "type": "uint256"
        },
        {
          "indexed": true,
          "internalType": "uint256",
          "name": "powerPlantId",
          "type": "uint256"
        },
        {
          "indexed": true,
          "internalType": "uint256",
          "name": "prevPowerplantId",
          "type": "uint256"
        }
      ],
      "name": "SubstationConnectedToPowerPlant",
      "type": "event"
    },
    {
      "anonymous": false,
      "inputs": [
        {
          "indexed": false,
          "internalType": "uint256",
          "name": "day",
          "type": "uint256"
        }
      ],
      "name": "UpdateUnitsConsumedRan",
      "type": "event"
    },
    {
      "inputs": [
        {
          "internalType": "string",
          "name": "_name",
          "type": "string"
        },
        {
          "internalType": "string",
          "name": "_homeAddress",
          "type": "string"
        }
      ],
      "name": "addConsumer",
      "outputs": [],
      "stateMutability": "nonpayable",
      "type": "function"
    },
    {
      "inputs": [
        {
          "internalType": "string",
          "name": "_name",
          "type": "string"
        },
        {
          "internalType": "string",
          "name": "_area",
          "type": "string"
        },
        {
          "internalType": "uint256",
          "name": "_energyAvailableToBuy",
          "type": "uint256"
        }
      ],
      "name": "addDistributor",
      "outputs": [],
      "stateMutability": "nonpayable",
      "type": "function"
    },
    {
      "inputs": [
        {
          "internalType": "uint256",
          "name": "_energyAvailableToBuy",
          "type": "uint256"
        }
      ],
      "name": "addEnergyAvailableToBuy",
      "outputs": [],
      "stateMutability": "nonpayable",
      "type": "function"
    },
    {
      "inputs": [
        {
          "internalType": "string",
          "name": "_name",
          "type": "string"
        },
        {
          "internalType": "string",
          "name": "_area",
          "type": "string"
        },
        {
          "internalType": "uint256",
          "name": "_energyAvailableToBuy",
          "type": "uint256"
        }
      ],
      "name": "addPowerPlant",
      "outputs": [],
      "stateMutability": "nonpayable",
      "type": "function"
    },
    {
      "inputs": [
        {
          "internalType": "uint256",
          "name": "_energyAvailableToBuy",
          "type": "uint256"
        },
        {
          "internalType": "string",
          "name": "_name",
          "type": "string"
        },
        {
          "internalType": "string",
          "name": "_area",
          "type": "string"
        }
      ],
      "name": "addSubstation",
      "outputs": [],
      "stateMutability": "nonpayable",
      "type": "function"
    },
    {
      "inputs": [
        {
          "internalType": "uint256",
          "name": "_energyAmount",
          "type": "uint256"
        }
      ],
      "name": "buyEnergyFromPowerPlant",
      "outputs": [],
      "stateMutability": "nonpayable",
      "type": "function"
    },
    {
      "inputs": [
        {
          "internalType": "uint256",
          "name": "_energyAmount",
          "type": "uint256"
        }
      ],
      "name": "buyEnergyFromSubstation",
      "outputs": [],
      "stateMutability": "nonpayable",
      "type": "function"
    },
    {
      "inputs": [],
      "name": "calculateEnergyConsumptionOfEachConsumer",
      "outputs": [],
      "stateMutability": "nonpayable",
      "type": "function"
    },
    {
      "inputs": [
        {
          "internalType": "uint256",
          "name": "_distributorIndex",
          "type": "uint256"
        }
      ],
      "name": "connectConsumerToDistributor",
      "outputs": [],
      "stateMutability": "nonpayable",
      "type": "function"
    },
    {
      "inputs": [
        {
          "internalType": "uint256",
          "name": "_substationIndex",
          "type": "uint256"
        }
      ],
      "name": "connectDistributorToSubstation",
      "outputs": [],
      "stateMutability": "nonpayable",
      "type": "function"
    },
    {
      "inputs": [
        {
          "internalType": "uint256",
          "name": "powerplantIndex",
          "type": "uint256"
        }
      ],
      "name": "connectSubstationToPowerplant",
      "outputs": [],
      "stateMutability": "nonpayable",
      "type": "function"
    },
    {
      "inputs": [
        {
          "internalType": "address",
          "name": "",
          "type": "address"
        },
        {
          "internalType": "uint256",
          "name": "",
          "type": "uint256"
        }
      ],
      "name": "consumerPayments",
      "outputs": [
        {
          "internalType": "uint256",
          "name": "unitsConsumed",
          "type": "uint256"
        },
        {
          "internalType": "uint256",
          "name": "startTime",
          "type": "uint256"
        },
        {
          "internalType": "uint256",
          "name": "endTime",
          "type": "uint256"
        }
      ],
      "stateMutability": "view",
      "type": "function"
    },
    {
      "inputs": [
        {
          "internalType": "uint256",
          "name": "",
          "type": "uint256"
        }
      ],
      "name": "consumers",
      "outputs": [
        {
          "internalType": "string",
          "name": "name",
          "type": "string"
        },
        {
          "internalType": "string",
          "name": "homeAddress",
          "type": "string"
        },
        {
          "internalType": "address",
          "name": "consumerAddress",
          "type": "address"
        },
        {
          "internalType": "uint256",
          "name": "distributorId",
          "type": "uint256"
        },
        {
          "internalType": "uint256",
          "name": "totalEnergyConsumed",
          "type": "uint256"
        },
        {
          "internalType": "bool",
          "name": "isElectricitySupply",
          "type": "bool"
        },
        {
          "internalType": "uint256",
          "name": "payableAmountForEnergy",
          "type": "uint256"
        },
        {
          "internalType": "uint256",
          "name": "startCycleTime",
          "type": "uint256"
        },
        {
          "internalType": "uint256",
          "name": "endCycleTime",
          "type": "uint256"
        },
        {
          "internalType": "bool",
          "name": "isLastElectricityBillPaid",
          "type": "bool"
        },
        {
          "internalType": "uint256",
          "name": "energyConsumedInCurrentCycle",
          "type": "uint256"
        }
      ],
      "stateMutability": "view",
      "type": "function"
    },
    {
      "inputs": [
        {
          "internalType": "address",
          "name": "",
          "type": "address"
        }
      ],
      "name": "consumersAddressToIds",
      "outputs": [
        {
          "internalType": "uint256",
          "name": "",
          "type": "uint256"
        }
      ],
      "stateMutability": "view",
      "type": "function"
    },
    {
      "inputs": [
        {
          "internalType": "uint256",
          "name": "",
          "type": "uint256"
        },
        {
          "internalType": "uint256",
          "name": "",
          "type": "uint256"
        }
      ],
      "name": "consumersDailyEnergyBoughtById",
      "outputs": [
        {
          "internalType": "uint256",
          "name": "",
          "type": "uint256"
        }
      ],
      "stateMutability": "view",
      "type": "function"
    },
    {
      "inputs": [
        {
          "internalType": "address",
          "name": "",
          "type": "address"
        }
      ],
      "name": "distributorAddressToIds",
      "outputs": [
        {
          "internalType": "uint256",
          "name": "",
          "type": "uint256"
        }
      ],
      "stateMutability": "view",
      "type": "function"
    },
    {
      "inputs": [
        {
          "internalType": "uint256",
          "name": "",
          "type": "uint256"
        }
      ],
      "name": "distributorArray",
      "outputs": [
        {
          "internalType": "uint256",
          "name": "",
          "type": "uint256"
        }
      ],
      "stateMutability": "view",
      "type": "function"
    },
    {
      "inputs": [
        {
          "internalType": "uint256",
          "name": "",
          "type": "uint256"
        }
      ],
      "name": "distributors",
      "outputs": [
        {
          "internalType": "uint256",
          "name": "substationId",
          "type": "uint256"
        },
        {
          "internalType": "address",
          "name": "distributorAddress",
          "type": "address"
        },
        {
          "internalType": "string",
          "name": "name",
          "type": "string"
        },
        {
          "internalType": "string",
          "name": "area",
          "type": "string"
        },
        {
          "internalType": "uint256",
          "name": "energyAvailable",
          "type": "uint256"
        },
        {
          "internalType": "uint256",
          "name": "totalEnergySold",
          "type": "uint256"
        },
        {
          "internalType": "uint256",
          "name": "totalEnergyBought",
          "type": "uint256"
        },
        {
          "internalType": "bool",
          "name": "isEnergySupply",
          "type": "bool"
        },
        {
          "internalType": "bool",
          "name": "isLessEnergyWarning",
          "type": "bool"
        }
      ],
      "stateMutability": "view",
      "type": "function"
    },
    {
      "inputs": [
        {
          "internalType": "uint256",
          "name": "",
          "type": "uint256"
        },
        {
          "internalType": "uint256",
          "name": "",
          "type": "uint256"
        }
      ],
      "name": "distributorsDailyEnergyBoughtById",
      "outputs": [
        {
          "internalType": "uint256",
          "name": "",
          "type": "uint256"
        }
      ],
      "stateMutability": "view",
      "type": "function"
    },
    {
      "inputs": [
        {
          "internalType": "uint256",
          "name": "",
          "type": "uint256"
        },
        {
          "internalType": "uint256",
          "name": "",
          "type": "uint256"
        }
      ],
      "name": "distributorsDailyEnergySoldById",
      "outputs": [
        {
          "internalType": "uint256",
          "name": "",
          "type": "uint256"
        }
      ],
      "stateMutability": "view",
      "type": "function"
    },
    {
      "inputs": [
        {
          "internalType": "uint256",
          "name": "_consumerIndex",
          "type": "uint256"
        }
      ],
      "name": "getConsumerById",
      "outputs": [
        {
          "components": [
            {
              "internalType": "string",
              "name": "name",
              "type": "string"
            },
            {
              "internalType": "string",
              "name": "homeAddress",
              "type": "string"
            },
            {
              "internalType": "address",
              "name": "consumerAddress",
              "type": "address"
            },
            {
              "internalType": "uint256",
              "name": "distributorId",
              "type": "uint256"
            },
            {
              "internalType": "uint256",
              "name": "totalEnergyConsumed",
              "type": "uint256"
            },
            {
              "internalType": "bool",
              "name": "isElectricitySupply",
              "type": "bool"
            },
            {
              "internalType": "uint256",
              "name": "payableAmountForEnergy",
              "type": "uint256"
            },
            {
              "internalType": "uint256",
              "name": "startCycleTime",
              "type": "uint256"
            },
            {
              "internalType": "uint256",
              "name": "endCycleTime",
              "type": "uint256"
            },
            {
              "internalType": "bool",
              "name": "isLastElectricityBillPaid",
              "type": "bool"
            },
            {
              "internalType": "uint256",
              "name": "energyConsumedInCurrentCycle",
              "type": "uint256"
            }
          ],
          "internalType": "struct ElectricitySupplyChain.Consumer",
          "name": "",
          "type": "tuple"
        }
      ],
      "stateMutability": "view",
      "type": "function"
    },
    {
      "inputs": [
        {
          "internalType": "uint256",
          "name": "_distributorIndex",
          "type": "uint256"
        }
      ],
      "name": "getConsumersFromADistributor",
      "outputs": [
        {
          "internalType": "uint256[]",
          "name": "",
          "type": "uint256[]"
        }
      ],
      "stateMutability": "view",
      "type": "function"
    },
    {
      "inputs": [
        {
          "internalType": "uint256",
          "name": "_distributorIndex",
          "type": "uint256"
        }
      ],
      "name": "getDistributorById",
      "outputs": [
        {
          "components": [
            {
              "internalType": "uint256",
              "name": "substationId",
              "type": "uint256"
            },
            {
              "internalType": "address",
              "name": "distributorAddress",
              "type": "address"
            },
            {
              "internalType": "string",
              "name": "name",
              "type": "string"
            },
            {
              "internalType": "string",
              "name": "area",
              "type": "string"
            },
            {
              "internalType": "uint256",
              "name": "energyAvailable",
              "type": "uint256"
            },
            {
              "internalType": "uint256[]",
              "name": "consumerIds",
              "type": "uint256[]"
            },
            {
              "internalType": "uint256",
              "name": "totalEnergySold",
              "type": "uint256"
            },
            {
              "internalType": "uint256",
              "name": "totalEnergyBought",
              "type": "uint256"
            },
            {
              "internalType": "bool",
              "name": "isEnergySupply",
              "type": "bool"
            },
            {
              "internalType": "bool",
              "name": "isLessEnergyWarning",
              "type": "bool"
            }
          ],
          "internalType": "struct ElectricitySupplyChain.Distributor",
          "name": "",
          "type": "tuple"
        }
      ],
      "stateMutability": "view",
      "type": "function"
    },
    {
      "inputs": [
        {
          "internalType": "uint256",
          "name": "_distributorIndex",
          "type": "uint256"
        },
        {
          "internalType": "uint256",
          "name": "_day",
          "type": "uint256"
        }
      ],
      "name": "getDistributorEnergyBoguhtByDay",
      "outputs": [
        {
          "internalType": "uint256",
          "name": "",
          "type": "uint256"
        }
      ],
      "stateMutability": "view",
      "type": "function"
    },
    {
      "inputs": [],
      "name": "getDistributors",
      "outputs": [
        {
          "internalType": "uint256[]",
          "name": "",
          "type": "uint256[]"
        }
      ],
      "stateMutability": "view",
      "type": "function"
    },
    {
      "inputs": [
        {
          "internalType": "uint256",
          "name": "_powerplantIndex",
          "type": "uint256"
        },
        {
          "internalType": "uint256",
          "name": "_day",
          "type": "uint256"
        }
      ],
      "name": "getPowerPlantEnergyProducedByDay",
      "outputs": [
        {
          "internalType": "uint256",
          "name": "",
          "type": "uint256"
        }
      ],
      "stateMutability": "view",
      "type": "function"
    },
    {
      "inputs": [
        {
          "internalType": "uint256",
          "name": "_powerplantIndex",
          "type": "uint256"
        },
        {
          "internalType": "uint256",
          "name": "_day",
          "type": "uint256"
        }
      ],
      "name": "getPowerPlantEnergySoldByDay",
      "outputs": [
        {
          "internalType": "uint256",
          "name": "",
          "type": "uint256"
        }
      ],
      "stateMutability": "view",
      "type": "function"
    },
    {
      "inputs": [
        {
          "internalType": "uint256",
          "name": "_powerplantIndex",
          "type": "uint256"
        }
      ],
      "name": "getPowerplantById",
      "outputs": [
        {
          "components": [
            {
              "internalType": "string",
              "name": "name",
              "type": "string"
            },
            {
              "internalType": "string",
              "name": "area",
              "type": "string"
            },
            {
              "internalType": "address",
              "name": "powerplantAddress",
              "type": "address"
            },
            {
              "internalType": "uint256[]",
              "name": "substationIds",
              "type": "uint256[]"
            },
            {
              "internalType": "uint256",
              "name": "totalEnergyProduced",
              "type": "uint256"
            },
            {
              "internalType": "uint256",
              "name": "totalEnergySold",
              "type": "uint256"
            },
            {
              "internalType": "uint256",
              "name": "energyAvailableToBuy",
              "type": "uint256"
            }
          ],
          "internalType": "struct ElectricitySupplyChain.PowerPlant",
          "name": "",
          "type": "tuple"
        }
      ],
      "stateMutability": "view",
      "type": "function"
    },
    {
      "inputs": [
        {
          "internalType": "uint256",
          "name": "_substationIndex",
          "type": "uint256"
        }
      ],
      "name": "getSubstationById",
      "outputs": [
        {
          "components": [
            {
              "internalType": "string",
              "name": "name",
              "type": "string"
            },
            {
              "internalType": "string",
              "name": "area",
              "type": "string"
            },
            {
              "internalType": "uint256",
              "name": "powerplantId",
              "type": "uint256"
            },
            {
              "internalType": "address",
              "name": "substationAddress",
              "type": "address"
            },
            {
              "internalType": "uint256",
              "name": "totalEnergyReceived",
              "type": "uint256"
            },
            {
              "internalType": "uint256",
              "name": "totalEnergySold",
              "type": "uint256"
            },
            {
              "internalType": "uint256[]",
              "name": "distributorIds",
              "type": "uint256[]"
            },
            {
              "internalType": "uint256",
              "name": "energyAvailableToBuy",
              "type": "uint256"
            }
          ],
          "internalType": "struct ElectricitySupplyChain.Substation",
          "name": "",
          "type": "tuple"
        }
      ],
      "stateMutability": "view",
      "type": "function"
    },
    {
      "inputs": [
        {
          "internalType": "uint256",
          "name": "_substationIndex",
          "type": "uint256"
        },
        {
          "internalType": "uint256",
          "name": "_day",
          "type": "uint256"
        }
      ],
      "name": "getSubstationEnergyBoughtByDay",
      "outputs": [
        {
          "internalType": "uint256",
          "name": "",
          "type": "uint256"
        }
      ],
      "stateMutability": "view",
      "type": "function"
    },
    {
      "inputs": [
        {
          "internalType": "uint256",
          "name": "_substationIndex",
          "type": "uint256"
        },
        {
          "internalType": "uint256",
          "name": "_day",
          "type": "uint256"
        }
      ],
      "name": "getSubstationEnergySoldByDay",
      "outputs": [
        {
          "internalType": "uint256",
          "name": "",
          "type": "uint256"
        }
      ],
      "stateMutability": "view",
      "type": "function"
    },
    {
      "inputs": [
        {
          "internalType": "uint256",
          "name": "_powerplantIndex",
          "type": "uint256"
        }
      ],
      "name": "getSubstationsOfPowerPlant",
      "outputs": [
        {
          "components": [
            {
              "internalType": "string",
              "name": "name",
              "type": "string"
            },
            {
              "internalType": "string",
              "name": "area",
              "type": "string"
            },
            {
              "internalType": "uint256",
              "name": "powerplantId",
              "type": "uint256"
            },
            {
              "internalType": "address",
              "name": "substationAddress",
              "type": "address"
            },
            {
              "internalType": "uint256",
              "name": "totalEnergyReceived",
              "type": "uint256"
            },
            {
              "internalType": "uint256",
              "name": "totalEnergySold",
              "type": "uint256"
            },
            {
              "internalType": "uint256[]",
              "name": "distributorIds",
              "type": "uint256[]"
            },
            {
              "internalType": "uint256",
              "name": "energyAvailableToBuy",
              "type": "uint256"
            }
          ],
          "internalType": "struct ElectricitySupplyChain.Substation[]",
          "name": "",
          "type": "tuple[]"
        }
      ],
      "stateMutability": "view",
      "type": "function"
    },
    {
      "inputs": [
        {
          "internalType": "uint256",
          "name": "consumerIndex",
          "type": "uint256"
        }
      ],
      "name": "getUnitsConsumedByConsumerInCycle",
      "outputs": [
        {
          "internalType": "uint256",
          "name": "",
          "type": "uint256"
        }
      ],
      "stateMutability": "view",
      "type": "function"
    },
    {
      "inputs": [],
      "name": "payBill",
      "outputs": [],
      "stateMutability": "nonpayable",
      "type": "function"
    },
    {
      "inputs": [],
      "name": "payBillAndCancelSupply",
      "outputs": [],
      "stateMutability": "nonpayable",
      "type": "function"
    },
    {
      "inputs": [
        {
          "internalType": "uint256",
          "name": "",
          "type": "uint256"
        }
      ],
      "name": "powerPlants",
      "outputs": [
        {
          "internalType": "string",
          "name": "name",
          "type": "string"
        },
        {
          "internalType": "string",
          "name": "area",
          "type": "string"
        },
        {
          "internalType": "address",
          "name": "powerplantAddress",
          "type": "address"
        },
        {
          "internalType": "uint256",
          "name": "totalEnergyProduced",
          "type": "uint256"
        },
        {
          "internalType": "uint256",
          "name": "totalEnergySold",
          "type": "uint256"
        },
        {
          "internalType": "uint256",
          "name": "energyAvailableToBuy",
          "type": "uint256"
        }
      ],
      "stateMutability": "view",
      "type": "function"
    },
    {
      "inputs": [
        {
          "internalType": "address",
          "name": "",
          "type": "address"
        }
      ],
      "name": "powerPlantsAddressToIds",
      "outputs": [
        {
          "internalType": "uint256",
          "name": "",
          "type": "uint256"
        }
      ],
      "stateMutability": "view",
      "type": "function"
    },
    {
      "inputs": [
        {
          "internalType": "uint256",
          "name": "",
          "type": "uint256"
        },
        {
          "internalType": "uint256",
          "name": "",
          "type": "uint256"
        }
      ],
      "name": "powerPlantsDailyEnergyProducedById",
      "outputs": [
        {
          "internalType": "uint256",
          "name": "",
          "type": "uint256"
        }
      ],
      "stateMutability": "view",
      "type": "function"
    },
    {
      "inputs": [
        {
          "internalType": "uint256",
          "name": "",
          "type": "uint256"
        },
        {
          "internalType": "uint256",
          "name": "",
          "type": "uint256"
        }
      ],
      "name": "powerPlantsDailyEnergySoldById",
      "outputs": [
        {
          "internalType": "uint256",
          "name": "",
          "type": "uint256"
        }
      ],
      "stateMutability": "view",
      "type": "function"
    },
    {
      "inputs": [
        {
          "internalType": "uint256",
          "name": "",
          "type": "uint256"
        }
      ],
      "name": "substations",
      "outputs": [
        {
          "internalType": "string",
          "name": "name",
          "type": "string"
        },
        {
          "internalType": "string",
          "name": "area",
          "type": "string"
        },
        {
          "internalType": "uint256",
          "name": "powerplantId",
          "type": "uint256"
        },
        {
          "internalType": "address",
          "name": "substationAddress",
          "type": "address"
        },
        {
          "internalType": "uint256",
          "name": "totalEnergyReceived",
          "type": "uint256"
        },
        {
          "internalType": "uint256",
          "name": "totalEnergySold",
          "type": "uint256"
        },
        {
          "internalType": "uint256",
          "name": "energyAvailableToBuy",
          "type": "uint256"
        }
      ],
      "stateMutability": "view",
      "type": "function"
    },
    {
      "inputs": [
        {
          "internalType": "address",
          "name": "",
          "type": "address"
        }
      ],
      "name": "substationsAddressToIds",
      "outputs": [
        {
          "internalType": "uint256",
          "name": "",
          "type": "uint256"
        }
      ],
      "stateMutability": "view",
      "type": "function"
    },
    {
      "inputs": [
        {
          "internalType": "uint256",
          "name": "",
          "type": "uint256"
        },
        {
          "internalType": "uint256",
          "name": "",
          "type": "uint256"
        }
      ],
      "name": "substationsDailyEnergyBoughtById",
      "outputs": [
        {
          "internalType": "uint256",
          "name": "",
          "type": "uint256"
        }
      ],
      "stateMutability": "view",
      "type": "function"
    },
    {
      "inputs": [
        {
          "internalType": "uint256",
          "name": "",
          "type": "uint256"
        },
        {
          "internalType": "uint256",
          "name": "",
          "type": "uint256"
        }
      ],
      "name": "substationsDailyEnergySoldById",
      "outputs": [
        {
          "internalType": "uint256",
          "name": "",
          "type": "uint256"
        }
      ],
      "stateMutability": "view",
      "type": "function"
    }
  ],
  "transactionHash": "0x4bcb4a2e6203825a97f1ea1bd4c4ae6118ebb835a6d222797556976e74c07263",
  "args": [],
  "numDeployments": 16,
  "solcInputHash": "aee1bacc0da9a33d899aef8fc661fd0f",
  "bytecode": "0x608060405234801561001057600080fd5b50613f4d806100206000396000f3fe608060405234801561001057600080fd5b50600436106102695760003560e01c806376ba67c2116101515780639eb569af116100c3578063c3a3ebad11610087578063c3a3ebad146106a4578063ccc07c19146106b7578063d4eac34d146106e2578063f2ff9145146106f5578063f8a7f60c14610708578063fa3862641461071b57600080fd5b80639eb569af146105fd578063ad37ed7414610628578063af9ddc891461064e578063b581aae31461067c578063c1e66a421461069c57600080fd5b80638812446b116101155780638812446b146105595780638d1299e3146105845780638e2056d1146105af57806390e87986146105c2578063942d33ce146105ca578063987f9b85146105ea57600080fd5b806376ba67c2146104eb5780637a781658146104fe5780637c4e15e8146105065780637d470670146105265780637e0673151461054657600080fd5b80634eadbcd4116101ea57806365dbb986116101ae57806365dbb9861461044757806366c280631461045a5780636bc0a19b1461047a5780636ef435d41461048d5780637211c4d0146104a05780637259d78a146104cb57600080fd5b80634eadbcd4146103c157806350b492ba146103d457806359516f1b146103fc578063608b74c61461040f5780636451164c1461042257600080fd5b80632257bad4116102315780632257bad41461031f5780632554fd6414610342578063257744201461034c57806330b2edf1146103775780634651ed3d1461039757600080fd5b806305718abc1461026e5780630b636f3a146102ac578063115e616d146102cc5780631a2dae88146102ec5780631b3bec251461030c575b600080fd5b61029961027c3660046132c2565b600860209081526000928352604080842090915290825290205481565b6040519081526020015b60405180910390f35b6102bf6102ba3660046132e4565b61072e565b6040516102a3919061337e565b6102df6102da3660046132e4565b610984565b6040516102a39190613417565b6102ff6102fa3660046132e4565b6109e9565b6040516102a39190613431565b61029961031a3660046132c2565b610c70565b61029961032d3660046132e4565b6000908152600e60205260409020600a015490565b61034a610cc8565b005b61029961035a3660046132c2565b600d60209081526000928352604080842090915290825290205481565b61038a6103853660046132e4565b610f23565b6040516102a39190613590565b6103aa6103a53660046132e4565b611158565b6040516102a39b9a999897969594939291906135a3565b6102996103cf3660046132e4565b6112d1565b6103e76103e23660046132e4565b6112f2565b6040516102a39998979695949392919061361e565b61034a61040a366004613732565b61145a565b61029961041d3660046132c2565b611598565b6104356104303660046132e4565b6115f0565b6040516102a39695949392919061379f565b61034a610455366004613732565b61173f565b61029961046836600461380f565b60026020526000908152604090205481565b61034a61048836600461382a565b6118a9565b61034a61049b3660046132e4565b611962565b6102996104ae3660046132c2565b600360209081526000928352604080842090915290825290205481565b6102996104d936600461380f565b600f6020526000908152604090205481565b6102996104f93660046132c2565b611b36565b61034a611b8e565b6105196105143660046132e4565b611d4b565b6040516102a3919061388e565b6105396105343660046132e4565b611fe3565b6040516102a3919061395b565b6102996105543660046132c2565b6120ef565b6102996105673660046132c2565b600460209081526000928352604080842090915290825290205481565b6102996105923660046132c2565b601060209081526000928352604080842090915290825290205481565b61034a6105bd3660046132e4565b612147565b6102df6123a7565b6102996105d836600461380f565b600b6020526000908152604090205481565b61034a6105f83660046132e4565b6123ff565b61029961060b3660046132c2565b600960209081526000928352604080842090915290825290205481565b61063b6106363660046132e4565b61265b565b6040516102a397969594939291906139bd565b61066161065c366004613a16565b6127b0565b604080519384526020840192909252908201526060016102a3565b61029961068a36600461380f565b60066020526000908152604090205481565b61034a6127f2565b61034a6106b23660046132e4565b612a86565b6102996106c53660046132c2565b600c60209081526000928352604080842090915290825290205481565b6102996106f03660046132c2565b612c71565b61034a6107033660046132e4565b612cc9565b61034a6107163660046132e4565b612e5f565b61034a610729366004613a40565b613155565b6107776040518060e00160405280606081526020016060815260200160006001600160a01b03168152602001606081526020016000815260200160008152602001600081525090565b60008281526001602052604090206002015482906001600160a01b03166107b95760405162461bcd60e51b81526004016107b090613aad565b60405180910390fd5b60008381526001602052604090819020815160e081019092528054829082906107e190613ae4565b80601f016020809104026020016040519081016040528092919081815260200182805461080d90613ae4565b801561085a5780601f1061082f5761010080835404028352916020019161085a565b820191906000526020600020905b81548152906001019060200180831161083d57829003601f168201915b5050505050815260200160018201805461087390613ae4565b80601f016020809104026020016040519081016040528092919081815260200182805461089f90613ae4565b80156108ec5780601f106108c1576101008083540402835291602001916108ec565b820191906000526020600020905b8154815290600101906020018083116108cf57829003601f168201915b505050918352505060028201546001600160a01b0316602080830191909152600383018054604080518285028101850182528281529401939283018282801561095457602002820191906000526020600020905b815481526020019060010190808311610940575b50505050508152602001600482015481526020016005820154815260200160068201548152505091505b50919050565b6000818152600560208181526040928390209091018054835181840281018401909452808452606093928301828280156109dd57602002820191906000526020600020905b8154815260200190600101908083116109c9575b50505050509050919050565b610a53604051806101600160405280606081526020016060815260200160006001600160a01b031681526020016000815260200160008152602001600015158152602001600081526020016000815260200160008152602001600015158152602001600081525090565b6000828152600e602052604090206002015482906001600160a01b0316610abc5760405162461bcd60e51b815260206004820152601760248201527f436f6e73756d657220646f6573206e6f7420657869737400000000000000000060448201526064016107b0565b6000838152600e60205260409081902081516101608101909252805482908290610ae590613ae4565b80601f0160208091040260200160405190810160405280929190818152602001828054610b1190613ae4565b8015610b5e5780601f10610b3357610100808354040283529160200191610b5e565b820191906000526020600020905b815481529060010190602001808311610b4157829003601f168201915b50505050508152602001600182018054610b7790613ae4565b80601f0160208091040260200160405190810160405280929190818152602001828054610ba390613ae4565b8015610bf05780601f10610bc557610100808354040283529160200191610bf0565b820191906000526020600020905b815481529060010190602001808311610bd357829003601f168201915b505050918352505060028201546001600160a01b031660208201526003820154604082015260048201546060820152600582015460ff90811615156080830152600683015460a0830152600783015460c0830152600883015460e08301526009830154161515610100820152600a90910154610120909101529392505050565b60008281526005602052604081206001015483906001600160a01b0316610ca95760405162461bcd60e51b81526004016107b090613b18565b5050600091825260086020908152604080842092845291905290205490565b336000908152600f60209081526040808320548352600e90915290206008810154421015610d085760405162461bcd60e51b81526004016107b090613b4f565b6003808201805460408051606081018252600a86015481526007860180546020808401918252600889018054858701908152336000908152808452878120805460018181018355918352858320895191909d02909c019b8c5594518b86015590516002909a019990995592889055918790556005808901805460ff1990811690915560098a018054909116909217909155948690558386529390935283209092805b6005830154811015610e0657336000908152600f602052604090205460058401805483908110610ddc57610ddc613b95565b906000526020600020015403610df457809150610e06565b80610dfe81613bc1565b915050610daa565b50805b6005830154610e1a90600190613bda565b811015610e7e5760058301610e30826001613bf3565b81548110610e4057610e40613b95565b9060005260206000200154836005018281548110610e6057610e60613b95565b60009182526020909120015580610e7681613bc1565b915050610e09565b5081600501805480610e9257610e92613c06565b600082815260208082208301600019908101839055909201909255338252600f81526040909120548451918501517f52c3b58c0abde56ad1f4a0b5224b419410d645acb66e53d26e7d8513171936ce928791610ef16201518042613c1c565b604080519586526020860194909452928401919091526060830152608082015260a00160405180910390a15050505050565b610f2b613274565b6000828152600a602052604090206003015482906001600160a01b0316610f645760405162461bcd60e51b81526004016107b090613c3e565b6000838152600a60205260409081902081516101008101909252805482908290610f8d90613ae4565b80601f0160208091040260200160405190810160405280929190818152602001828054610fb990613ae4565b80156110065780601f10610fdb57610100808354040283529160200191611006565b820191906000526020600020905b815481529060010190602001808311610fe957829003601f168201915b5050505050815260200160018201805461101f90613ae4565b80601f016020809104026020016040519081016040528092919081815260200182805461104b90613ae4565b80156110985780601f1061106d57610100808354040283529160200191611098565b820191906000526020600020905b81548152906001019060200180831161107b57829003601f168201915b50505050508152602001600282015481526020016003820160009054906101000a90046001600160a01b03166001600160a01b03166001600160a01b0316815260200160048201548152602001600582015481526020016006820180548060200260200160405190810160405280929190818152602001828054801561113d57602002820191906000526020600020905b815481526020019060010190808311611129575b50505050508152602001600782015481525050915050919050565b600e6020526000908152604090208054819061117390613ae4565b80601f016020809104026020016040519081016040528092919081815260200182805461119f90613ae4565b80156111ec5780601f106111c1576101008083540402835291602001916111ec565b820191906000526020600020905b8154815290600101906020018083116111cf57829003601f168201915b50505050509080600101805461120190613ae4565b80601f016020809104026020016040519081016040528092919081815260200182805461122d90613ae4565b801561127a5780601f1061124f5761010080835404028352916020019161127a565b820191906000526020600020905b81548152906001019060200180831161125d57829003601f168201915b50505050600283015460038401546004850154600586015460068701546007880154600889015460098a0154600a909a015498996001600160a01b0390971698959750939560ff938416959294919391929116908b565b600781815481106112e157600080fd5b600091825260209091200154905081565b60056020526000908152604090208054600182015460028301805492936001600160a01b039092169261132490613ae4565b80601f016020809104026020016040519081016040528092919081815260200182805461135090613ae4565b801561139d5780601f106113725761010080835404028352916020019161139d565b820191906000526020600020905b81548152906001019060200180831161138057829003601f168201915b5050505050908060030180546113b290613ae4565b80601f01602080910402602001604051908101604052809291908181526020018280546113de90613ae4565b801561142b5780601f106114005761010080835404028352916020019161142b565b820191906000526020600020905b81548152906001019060200180831161140e57829003601f168201915b505050506004830154600684015460078501546008909501549394919390925060ff8082169161010090041689565b3360009081526002602052604090205480156114b85760405162461bcd60e51b815260206004820152601a60248201527f506f77657220706c616e7420616c72656164792065786973747300000000000060448201526064016107b0565b6001601160008282546114cb9190613bf3565b90915550506011546000818152600160209081526040808320338085526002938490529190932093909355810180546001600160a01b031916909217909155806115158682613cc4565b50600181016115248582613cc4565b50600681018390556004810183905560006115426201518042613c1c565b6011805460009081526003602090815260408083208584529091528082208890559154915192935033927f8ed0f10f8db3aa7c553ea6a6b03c61058dfa62a9ad1b85b4e7ab759ff8165dd79190a3505050505050565b6000828152600a602052604081206003015483906001600160a01b03166115d15760405162461bcd60e51b81526004016107b090613c3e565b50506000918252600d6020908152604080842092845291905290205490565b60016020526000908152604090208054819061160b90613ae4565b80601f016020809104026020016040519081016040528092919081815260200182805461163790613ae4565b80156116845780601f1061165957610100808354040283529160200191611684565b820191906000526020600020905b81548152906001019060200180831161166757829003601f168201915b50505050509080600101805461169990613ae4565b80601f01602080910402602001604051908101604052809291908181526020018280546116c590613ae4565b80156117125780601f106116e757610100808354040283529160200191611712565b820191906000526020600020905b8154815290600101906020018083116116f557829003601f168201915b5050505060028301546004840154600585015460069095015493946001600160a01b039092169390925086565b33600090815260066020526040902054156117b05760405162461bcd60e51b815260206004820152602b60248201527f4469737472696275746f7220616c72656164792065786973747320776974682060448201526a746865206164647265737360a81b60648201526084016107b0565b6001601260008282546117c39190613bf3565b90915550506012546000818152600560209081526040808320338452600690925290912091909155600281016117f98582613cc4565b50600381016118088482613cc4565b50600181810180546001600160a01b031916339081179091556004830184905560088301805460ff1916831790556012546007805493840181556000527fa66cc928b5edb82af9bd49922954155ab7b0942694bea4ce44661d9a8736c6889092018290556040518481529091907fb4ffce99b074ca0b19d0fb8efa8523647db979b167cdd0bc4cbbd91f91e14541906020015b60405180910390a350505050565b6001601460008282546118bc9190613bf3565b90915550506014546000908152600e60205260409020806118dd8482613cc4565b50600181016118ec8382613cc4565b5060148054336000818152600f6020908152604091829020939093556002850180546001600160a01b0319168317905560098501805460ff19166001179055925492519081527f4e5aab67fb6878a7c5437d638d002992f2b503107c053f38483f6b2949487493910160405180910390a2505050565b3360009081526006602052604081205490036119905760405162461bcd60e51b81526004016107b090613d84565b33600081815260066020908152604080832054835260059091529020600101546001600160a01b0316146119d65760405162461bcd60e51b81526004016107b090613dd7565b336000908152600660209081526040808320548084526005835281842080548552600a90935292206007810154841115611a225760405162461bcd60e51b81526004016107b090613e03565b83816007016000828254611a369190613bda565b9250508190555083826007016000828254611a519190613bf3565b9091555060009050611a666201518042613c1c565b6000858152600860209081526040808320848452909152812080549293508792909190611a94908490613bf3565b9250508190555084836004016000828254611aaf9190613bf3565b909155505082546000908152600d6020908152604080832084845290915281208054879290611adf908490613bf3565b909155505060088301805460ff19166001179055604080518681526020810183905285917f73adff80ab623465da18a83132be6ce95cb48b93c74c4a33915d3abdc75d509291015b60405180910390a25050505050565b60008281526001602052604081206002015483906001600160a01b0316611b6f5760405162461bcd60e51b81526004016107b090613aad565b5050600091825260046020908152604080842092845291905290205490565b336000908152600f60205260408120549003611bbc5760405162461bcd60e51b81526004016107b090613e47565b336000818152600f60209081526040808320548352600e9091529020600201546001600160a01b031614611c2a5760405162461bcd60e51b81526020600482015260156024820152742cb7ba9030b932903737ba103a34329037bbb732b960591b60448201526064016107b0565b336000908152600f60209081526040808320548352600e90915290206008810154421015611c6a5760405162461bcd60e51b81526004016107b090613b4f565b6040805160608082018352600a8401805483526007850180546020808601918252428688018181523360008181528085528a81208054600180820183559183528683208c5160039092020190815587518183015593516002909401939093559583905560088b018390559585905560058a01805460ff19908116831790915560098b0180549091169091179055938352600f81529186902054855191518751928352928201929092529485019190915291927fbae4f55091b69074b7207256769054059e9d5c3509bb5063351980dc676fdd8a910160405180910390a25050565b611dae6040518061014001604052806000815260200160006001600160a01b031681526020016060815260200160608152602001600081526020016060815260200160008152602001600081526020016000151581526020016000151581525090565b60008281526005602052604090206001015482906001600160a01b0316611de75760405162461bcd60e51b81526004016107b090613b18565b6000838152600560209081526040918290208251610140810184528154815260018201546001600160a01b0316928101929092526002810180549293919291840191611e3290613ae4565b80601f0160208091040260200160405190810160405280929190818152602001828054611e5e90613ae4565b8015611eab5780601f10611e8057610100808354040283529160200191611eab565b820191906000526020600020905b815481529060010190602001808311611e8e57829003601f168201915b50505050508152602001600382018054611ec490613ae4565b80601f0160208091040260200160405190810160405280929190818152602001828054611ef090613ae4565b8015611f3d5780601f10611f1257610100808354040283529160200191611f3d565b820191906000526020600020905b815481529060010190602001808311611f2057829003601f168201915b505050505081526020016004820154815260200160058201805480602002602001604051908101604052809291908181526020018280548015611f9f57602002820191906000526020600020905b815481526020019060010190808311611f8b575b5050509183525050600682015460208201526007820154604082015260089091015460ff808216151560608401526101009091041615156080909101529392505050565b60008181526001602052604090206002015460609082906001600160a01b031661201f5760405162461bcd60e51b81526004016107b090613aad565b600061202a8461072e565b6060015190506000815167ffffffffffffffff81111561204c5761204c61368f565b60405190808252806020026020018201604052801561208557816020015b612072613274565b81526020019060019003908161206a5790505b50905060005b82518110156120e6576120b68382815181106120a9576120a9613b95565b6020026020010151610f23565b8282815181106120c8576120c8613b95565b602002602001018190525080806120de90613bc1565b91505061208b565b50949350505050565b60008281526001602052604081206002015483906001600160a01b03166121285760405162461bcd60e51b81526004016107b090613aad565b5050600091825260036020908152604080842092845291905290205490565b336000908152600b602052604081205490036121755760405162461bcd60e51b81526004016107b090613e97565b336000818152600b60209081526040808320548352600a9091529020600301546001600160a01b0316146121bb5760405162461bcd60e51b81526004016107b090613dd7565b60008181526001602052604090206002015481906001600160a01b03166121f45760405162461bcd60e51b81526004016107b090613aad565b336000908152600b60209081526040808320548352600a909152902060028101548015612332576002820154600090815260016020526040812090805b600383015481101561228d57336000908152600b60205260409020546003840180548390811061226357612263613b95565b90600052602060002001540361227b5780915061228d565b8061228581613bc1565b915050612231565b50805b60038301546122a190600190613bda565b81101561230557600383016122b7826001613bf3565b815481106122c7576122c7613b95565b90600052602060002001548360030182815481106122e7576122e7613b95565b600091825260209091200155806122fd81613bc1565b915050612290565b508160030180548061231957612319613c06565b6001900381819060005260206000200160009055905550505b60028201849055600084815260016020818152604080842033808652600b8452828620805460038401805497880181558852948720909501939093559184529154915190928492889290917f1153c1b626cc03d95ce45f3c02f68a82e0e19c75e1ef2fa7ef8b9fd0cb6b7e7e91a45050505050565b606060078054806020026020016040519081016040528092919081815260200182805480156123f557602002820191906000526020600020905b8154815260200190600101908083116123e1575b5050505050905090565b33600090815260066020526040812054900361242d5760405162461bcd60e51b81526004016107b090613d84565b33600081815260066020908152604080832054835260059091529020600101546001600160a01b0316146124735760405162461bcd60e51b81526004016107b090613dd7565b6000818152600a602052604090206003015481906001600160a01b03166124ac5760405162461bcd60e51b81526004016107b090613c3e565b33600090815260066020908152604080832054835260059091529020805480156125e65781546000908152600a6020526040812090805b6006830154811015612541573360009081526006602081905260409091205490840180548390811061251757612517613b95565b90600052602060002001540361252f57809150612541565b8061253981613bc1565b9150506124e3565b50805b600683015461255590600190613bda565b8110156125b9576006830161256b826001613bf3565b8154811061257b5761257b613b95565b906000526020600020015483600601828154811061259b5761259b613b95565b600091825260209091200155806125b181613bc1565b915050612544565b50816006018054806125cd576125cd613c06565b6001900381819060005260206000200160009055905550505b8382556000848152600a6020908152604080832033808552600b845282852054600680840180546001810182559088528688200191909155908552909252808320549051919284928892917f73512025db3bffe4e4a3db857c38406e5b88161e3d0c961c4d3a559da1f5b7a691a45050505050565b600a6020526000908152604090208054819061267690613ae4565b80601f01602080910402602001604051908101604052809291908181526020018280546126a290613ae4565b80156126ef5780601f106126c4576101008083540402835291602001916126ef565b820191906000526020600020905b8154815290600101906020018083116126d257829003601f168201915b50505050509080600101805461270490613ae4565b80601f016020809104026020016040519081016040528092919081815260200182805461273090613ae4565b801561277d5780601f106127525761010080835404028352916020019161277d565b820191906000526020600020905b81548152906001019060200180831161276057829003601f168201915b5050506002840154600385015460048601546005870154600790970154959692956001600160a01b039092169450925087565b600060205281600052604060002081815481106127cc57600080fd5b600091825260209091206003909102018054600182015460029092015490935090915083565b60006128016201518042613c1c565b905060005b600754811015612a4f576000600560006007848154811061282957612829613b95565b90600052602060002001548152602001908152602001600020905060006064826004015460146128599190613ee9565b6128639190613c1c565b9050808260040154116128825760088201805461ff0019166101001790555b600882015460ff1615612a3a576000805b60058401548110156129c6576000600e60008660050184815481106128ba576128ba613b95565b600091825260208083209091015483528201929092526040019020600981015490915060ff16156128f25760098101805460ff191690555b60048101805490600061290483613bc1565b9091555050600a8101805490600061291b83613bc1565b909155505060048501805490600061293283613f00565b9190505550828061294290613bc1565b9350506010600086600501848154811061295e5761295e613b95565b6000918252602080832090910154835282810193909352604091820181208a8252909252812080549161299083613bc1565b919050555060008560040154116129b3575060088401805460ff191690556129c6565b50806129be81613bc1565b915050612893565b50808360060160008282546129db9190613bf3565b925050819055508060096000600787815481106129fa576129fa613b95565b9060005260206000200154815260200190815260200160002060008781526020019081526020016000206000828254612a339190613bf3565b9091555050505b50508080612a4790613bc1565b915050612806565b506040518181527f5e9b042cf7333acd794a79fc59f2ea91169145682301bd657c7b77eddc97b2279060200160405180910390a150565b336000908152600b60205260408120549003612ab45760405162461bcd60e51b81526004016107b090613e97565b336000818152600b60209081526040808320548352600a9091529020600301546001600160a01b031614612afa5760405162461bcd60e51b81526004016107b090613dd7565b336000908152600b6020908152604080832054808452600a835281842060028101548552600190935292206006810154841115612b495760405162461bcd60e51b81526004016107b090613e03565b83816006016000828254612b5d9190613bda565b9250508190555083826004016000828254612b789190613bf3565b9091555060009050612b8d6201518042613c1c565b6000858152600c60209081526040808320848452909152812080549293508792909190612bbb908490613bf3565b9250508190555084836007016000828254612bd69190613bf3565b90915550506002830154600090815260046020908152604080832084845290915281208054879290612c09908490613bf3565b9250508190555084826005016000828254612c249190613bf3565b9091555050336000908152600b6020908152604091829020548251888152918201849052917fd751c239d69943b20a7a994414c35ad1948382a57234874e2df47560fe29df139101611b27565b6000828152600a602052604081206003015483906001600160a01b0316612caa5760405162461bcd60e51b81526004016107b090613c3e565b50506000918252600c6020908152604080842092845291905290205490565b336000908152600260205260408120549003612d415760405162461bcd60e51b815260206004820152603160248201527f506f7765706c616e7420646f6573206e6f74206578697374206f7220796f752060448201527030b932903737ba103a34329037bbb732b960791b60648201526084016107b0565b336000818152600260208181526040808420548452600190915290912001546001600160a01b031614612d865760405162461bcd60e51b81526004016107b090613dd7565b336000908152600260209081526040808320548084526001909252822060068101805492939192859290612dbb908490613bf3565b9091555060009050612dd06201518042613c1c565b6000848152600360209081526040808320848452909152812080549293508692909190612dfe908490613bf3565b9250508190555083826004016000828254612e199190613bf3565b9091555050604080518581526020810183905284917ff9996ab4e5c178ed609618b0b9ab2a55506a5816b5cbb5a0f6a117e1f85e18ce910160405180910390a250505050565b60008181526005602052604090206001015481906001600160a01b0316612e985760405162461bcd60e51b81526004016107b090613b18565b336000908152600f60205260408120549003612ec65760405162461bcd60e51b81526004016107b090613e47565b336000818152600f60209081526040808320548352600e9091529020600201546001600160a01b031614612f345760405162461bcd60e51b81526020600482015260156024820152742cb7ba9030b932903737ba103a34329037bbb732b960591b60448201526064016107b0565b336000908152600f6020908152604080832054808452600e909252909120600981015460ff16612fa65760405162461bcd60e51b815260206004820181905260248201527f506c65617365207061792074686520656e65726779207573656420666972737460448201526064016107b0565b6000848152600560205260409020600382015480156130d157600081815260056020526040812090805b600583015481101561302c57336000908152600f60205260409020546005840180548390811061300257613002613b95565b90600052602060002001540361301a5780915061302c565b8061302481613bc1565b915050612fd0565b50805b600583015461304090600190613bda565b8110156130a45760058301613056826001613bf3565b8154811061306657613066613b95565b906000526020600020015483600501828154811061308657613086613b95565b6000918252602090912001558061309c81613bc1565b91505061302f565b50816005018054806130b8576130b8613c06565b6001900381819060005260206000200160009055905550505b600580830180546001818101835560009283526020832090910187905542600787018190556008870155918501805460ff199081168417909155600386018990556009860180549091169092179091556040518291889187917fa8019f760f81eb800e12797672d721662949c73b561be796faa56fea579efebf91a4505050505050565b336000908152600b6020526040902054156131cd5760405162461bcd60e51b815260206004820152603260248201527f53756273746174696f6e20616c7265616479206578697374732077697468207460448201527168652063757272656e74206164647265737360701b60648201526084016107b0565b6001601360008282546131e09190613bf3565b90915550506013546000818152600a60209081526040808320338452600b90925290912091909155806132138482613cc4565b50600181016132228382613cc4565b506003810180546001600160a01b03191633908117909155600782018590556013546040518681527f87811c48455fe14a033cafe58bdfac97fe57f6694ebd5822e7fe91fbabc058a09060200161189b565b60405180610100016040528060608152602001606081526020016000815260200160006001600160a01b03168152602001600081526020016000815260200160608152602001600081525090565b600080604083850312156132d557600080fd5b50508035926020909101359150565b6000602082840312156132f657600080fd5b5035919050565b6000815180845260005b8181101561332357602081850181015186830182015201613307565b506000602082860101526020601f19601f83011685010191505092915050565b600081518084526020808501945080840160005b8381101561337357815187529582019590820190600101613357565b509495945050505050565b602081526000825160e0602084015261339b6101008401826132fd565b90506020840151601f19808584030160408601526133b983836132fd565b60408701516001600160a01b03166060878101919091528701518682039092016080870152925090506133ec8282613343565b915050608084015160a084015260a084015160c084015260c084015160e08401528091505092915050565b60208152600061342a6020830184613343565b9392505050565b60208152600082516101608060208501526134506101808501836132fd565b91506020850151601f1985840301604086015261346d83826132fd565b925050604085015161348a60608601826001600160a01b03169052565b5060608501516080850152608085015160a085015260a08501516134b260c086018215159052565b5060c085015160e08581019190915285015161010080860191909152850151610120808601919091528501516101406134ee8187018315159052565b959095015193019290925250919050565b60006101008251818552613515828601826132fd565b9150506020830151848203602086015261352f82826132fd565b9150506040830151604085015260018060a01b0360608401511660608501526080830151608085015260a083015160a085015260c083015184820360c08601526135798282613343565b91505060e083015160e08501528091505092915050565b60208152600061342a60208301846134ff565b60006101608083526135b78184018f6132fd565b905082810360208401526135cb818e6132fd565b6001600160a01b039c909c16604084015250506060810198909852608088019690965293151560a087015260c086019290925260e085015261010084015215156101208301526101409091015292915050565b8981526001600160a01b0389166020820152610120604082018190526000906136498382018b6132fd565b9050828103606084015261365d818a6132fd565b6080840198909852505060a081019490945260c0840192909252151560e0830152151561010090910152949350505050565b634e487b7160e01b600052604160045260246000fd5b600082601f8301126136b657600080fd5b813567ffffffffffffffff808211156136d1576136d161368f565b604051601f8301601f19908116603f011681019082821181831017156136f9576136f961368f565b8160405283815286602085880101111561371257600080fd5b836020870160208301376000602085830101528094505050505092915050565b60008060006060848603121561374757600080fd5b833567ffffffffffffffff8082111561375f57600080fd5b61376b878388016136a5565b9450602086013591508082111561378157600080fd5b5061378e868287016136a5565b925050604084013590509250925092565b60c0815260006137b260c08301896132fd565b82810360208401526137c481896132fd565b6001600160a01b0397909716604084015250506060810193909352608083019190915260a09091015292915050565b80356001600160a01b038116811461380a57600080fd5b919050565b60006020828403121561382157600080fd5b61342a826137f3565b6000806040838503121561383d57600080fd5b823567ffffffffffffffff8082111561385557600080fd5b613861868387016136a5565b9350602085013591508082111561387757600080fd5b50613884858286016136a5565b9150509250929050565b6020815281516020820152600060208301516138b560408401826001600160a01b03169052565b5060408301516101408060608501526138d26101608501836132fd565b91506060850151601f19808685030160808701526138f084836132fd565b9350608087015160a087015260a08701519150808685030160c0870152506139188382613343565b92505060c085015160e085015260e08501516101008181870152808701519150506101206139498187018315159052565b90950151151593019290925250919050565b6000602080830181845280855180835260408601915060408160051b870101925083870160005b828110156139b057603f1988860301845261399e8583516134ff565b94509285019290850190600101613982565b5092979650505050505050565b60e0815260006139d060e083018a6132fd565b82810360208401526139e2818a6132fd565b604084019890985250506001600160a01b03949094166060850152608084019290925260a083015260c09091015292915050565b60008060408385031215613a2957600080fd5b613a32836137f3565b946020939093013593505050565b600080600060608486031215613a5557600080fd5b83359250602084013567ffffffffffffffff80821115613a7457600080fd5b613a80878388016136a5565b93506040860135915080821115613a9657600080fd5b50613aa3868287016136a5565b9150509250925092565b60208082526019908201527f506f776572706c616e7420646f6573206e6f7420657869737400000000000000604082015260600190565b600181811c90821680613af857607f821691505b60208210810361097e57634e487b7160e01b600052602260045260246000fd5b6020808252601a908201527f4469737472696275746f7220646f6573206e6f74206578697374000000000000604082015260600190565b60208082526026908201527f5061796d656e742063616e206f6e6c79206265206d616465206166746572203360408201526530206461797360d01b606082015260800190565b634e487b7160e01b600052603260045260246000fd5b634e487b7160e01b600052601160045260246000fd5b600060018201613bd357613bd3613bab565b5060010190565b81810381811115613bed57613bed613bab565b92915050565b80820180821115613bed57613bed613bab565b634e487b7160e01b600052603160045260246000fd5b600082613c3957634e487b7160e01b600052601260045260246000fd5b500490565b60208082526019908201527f53756273746174696f6e20646f6573206e6f7420657869737400000000000000604082015260600190565b601f821115613cbf57600081815260208120601f850160051c81016020861015613c9c5750805b601f850160051c820191505b81811015613cbb57828155600101613ca8565b5050505b505050565b815167ffffffffffffffff811115613cde57613cde61368f565b613cf281613cec8454613ae4565b84613c75565b602080601f831160018114613d275760008415613d0f5750858301515b600019600386901b1c1916600185901b178555613cbb565b600085815260208120601f198616915b82811015613d5657888601518255948401946001909101908401613d37565b5085821015613d745787850151600019600388901b60f8161c191681555b5050505050600190811b01905550565b60208082526033908201527f4469737472696275746f7220646f6573206e6f74206578697374206f7220796f6040820152723a9030b932903737ba103a34329037bbb732b960691b606082015260800190565b60208082526012908201527113db9b1e481bdddb995c88185b1b1bddd95960721b604082015260600190565b60208082526024908201527f496e73756666696369656e7420656e6572677920617661696c61626c6520746f6040820152632062757960e01b606082015260800190565b60208082526030908201527f436f6e73756d657220646f6573206e6f74206578697374206f7220796f75206160408201526f3932903737ba103a34329037bbb732b960811b606082015260800190565b60208082526032908201527f53756273746174696f6e20646f6573206e6f74206578697374206f7220796f756040820152711030b932903737ba103a34329037bbb732b960711b606082015260800190565b8082028115828204841417613bed57613bed613bab565b600081613f0f57613f0f613bab565b50600019019056fea2646970667358221220151b3b6876765d51ff292cb1a6c1185991e1aa0b621dd46cbe93531555fe183064736f6c63430008110033",
  "devdoc": {
    "kind": "dev",
    "methods": {},
    "version": 1
  },
  "userdoc": {
    "kind": "user",
    "methods": {},
    "version": 1
  },
  "storageLayout": {
    "storage": [
      {
        "astId": 196,
        "contract": "contracts/ElectricitySupplyChain.sol:ElectricitySupplyChain",
        "label": "consumerPayments",
        "offset": 0,
        "slot": "0",
        "type": "t_mapping(t_address,t_array(t_struct(Payment)190_storage)dyn_storage)"
      },
      {
        "astId": 201,
        "contract": "contracts/ElectricitySupplyChain.sol:ElectricitySupplyChain",
        "label": "powerPlants",
        "offset": 0,
        "slot": "1",
        "type": "t_mapping(t_uint256,t_struct(PowerPlant)160_storage)"
      },
      {
        "astId": 205,
        "contract": "contracts/ElectricitySupplyChain.sol:ElectricitySupplyChain",
        "label": "powerPlantsAddressToIds",
        "offset": 0,
        "slot": "2",
        "type": "t_mapping(t_address,t_uint256)"
      },
      {
        "astId": 211,
        "contract": "contracts/ElectricitySupplyChain.sol:ElectricitySupplyChain",
        "label": "powerPlantsDailyEnergyProducedById",
        "offset": 0,
        "slot": "3",
        "type": "t_mapping(t_uint256,t_mapping(t_uint256,t_uint256))"
      },
      {
        "astId": 217,
        "contract": "contracts/ElectricitySupplyChain.sol:ElectricitySupplyChain",
        "label": "powerPlantsDailyEnergySoldById",
        "offset": 0,
        "slot": "4",
        "type": "t_mapping(t_uint256,t_mapping(t_uint256,t_uint256))"
      },
      {
        "astId": 222,
        "contract": "contracts/ElectricitySupplyChain.sol:ElectricitySupplyChain",
        "label": "distributors",
        "offset": 0,
        "slot": "5",
        "type": "t_mapping(t_uint256,t_struct(Distributor)126_storage)"
      },
      {
        "astId": 226,
        "contract": "contracts/ElectricitySupplyChain.sol:ElectricitySupplyChain",
        "label": "distributorAddressToIds",
        "offset": 0,
        "slot": "6",
        "type": "t_mapping(t_address,t_uint256)"
      },
      {
        "astId": 229,
        "contract": "contracts/ElectricitySupplyChain.sol:ElectricitySupplyChain",
        "label": "distributorArray",
        "offset": 0,
        "slot": "7",
        "type": "t_array(t_uint256)dyn_storage"
      },
      {
        "astId": 235,
        "contract": "contracts/ElectricitySupplyChain.sol:ElectricitySupplyChain",
        "label": "distributorsDailyEnergyBoughtById",
        "offset": 0,
        "slot": "8",
        "type": "t_mapping(t_uint256,t_mapping(t_uint256,t_uint256))"
      },
      {
        "astId": 241,
        "contract": "contracts/ElectricitySupplyChain.sol:ElectricitySupplyChain",
        "label": "distributorsDailyEnergySoldById",
        "offset": 0,
        "slot": "9",
        "type": "t_mapping(t_uint256,t_mapping(t_uint256,t_uint256))"
      },
      {
        "astId": 246,
        "contract": "contracts/ElectricitySupplyChain.sol:ElectricitySupplyChain",
        "label": "substations",
        "offset": 0,
        "slot": "10",
        "type": "t_mapping(t_uint256,t_struct(Substation)144_storage)"
      },
      {
        "astId": 250,
        "contract": "contracts/ElectricitySupplyChain.sol:ElectricitySupplyChain",
        "label": "substationsAddressToIds",
        "offset": 0,
        "slot": "11",
        "type": "t_mapping(t_address,t_uint256)"
      },
      {
        "astId": 256,
        "contract": "contracts/ElectricitySupplyChain.sol:ElectricitySupplyChain",
        "label": "substationsDailyEnergyBoughtById",
        "offset": 0,
        "slot": "12",
        "type": "t_mapping(t_uint256,t_mapping(t_uint256,t_uint256))"
      },
      {
        "astId": 262,
        "contract": "contracts/ElectricitySupplyChain.sol:ElectricitySupplyChain",
        "label": "substationsDailyEnergySoldById",
        "offset": 0,
        "slot": "13",
        "type": "t_mapping(t_uint256,t_mapping(t_uint256,t_uint256))"
      },
      {
        "astId": 267,
        "contract": "contracts/ElectricitySupplyChain.sol:ElectricitySupplyChain",
        "label": "consumers",
        "offset": 0,
        "slot": "14",
        "type": "t_mapping(t_uint256,t_struct(Consumer)183_storage)"
      },
      {
        "astId": 271,
        "contract": "contracts/ElectricitySupplyChain.sol:ElectricitySupplyChain",
        "label": "consumersAddressToIds",
        "offset": 0,
        "slot": "15",
        "type": "t_mapping(t_address,t_uint256)"
      },
      {
        "astId": 277,
        "contract": "contracts/ElectricitySupplyChain.sol:ElectricitySupplyChain",
        "label": "consumersDailyEnergyBoughtById",
        "offset": 0,
        "slot": "16",
        "type": "t_mapping(t_uint256,t_mapping(t_uint256,t_uint256))"
      },
      {
        "astId": 279,
        "contract": "contracts/ElectricitySupplyChain.sol:ElectricitySupplyChain",
        "label": "powerPlantCount",
        "offset": 0,
        "slot": "17",
        "type": "t_uint256"
      },
      {
        "astId": 281,
        "contract": "contracts/ElectricitySupplyChain.sol:ElectricitySupplyChain",
        "label": "distributorCount",
        "offset": 0,
        "slot": "18",
        "type": "t_uint256"
      },
      {
        "astId": 283,
        "contract": "contracts/ElectricitySupplyChain.sol:ElectricitySupplyChain",
        "label": "substationCount",
        "offset": 0,
        "slot": "19",
        "type": "t_uint256"
      },
      {
        "astId": 285,
        "contract": "contracts/ElectricitySupplyChain.sol:ElectricitySupplyChain",
        "label": "consumerCount",
        "offset": 0,
        "slot": "20",
        "type": "t_uint256"
      }
    ],
    "types": {
      "t_address": {
        "encoding": "inplace",
        "label": "address",
        "numberOfBytes": "20"
      },
      "t_array(t_struct(Payment)190_storage)dyn_storage": {
        "base": "t_struct(Payment)190_storage",
        "encoding": "dynamic_array",
        "label": "struct ElectricitySupplyChain.Payment[]",
        "numberOfBytes": "32"
      },
      "t_array(t_uint256)dyn_storage": {
        "base": "t_uint256",
        "encoding": "dynamic_array",
        "label": "uint256[]",
        "numberOfBytes": "32"
      },
      "t_bool": {
        "encoding": "inplace",
        "label": "bool",
        "numberOfBytes": "1"
      },
      "t_mapping(t_address,t_array(t_struct(Payment)190_storage)dyn_storage)": {
        "encoding": "mapping",
        "key": "t_address",
        "label": "mapping(address => struct ElectricitySupplyChain.Payment[])",
        "numberOfBytes": "32",
        "value": "t_array(t_struct(Payment)190_storage)dyn_storage"
      },
      "t_mapping(t_address,t_uint256)": {
        "encoding": "mapping",
        "key": "t_address",
        "label": "mapping(address => uint256)",
        "numberOfBytes": "32",
        "value": "t_uint256"
      },
      "t_mapping(t_uint256,t_mapping(t_uint256,t_uint256))": {
        "encoding": "mapping",
        "key": "t_uint256",
        "label": "mapping(uint256 => mapping(uint256 => uint256))",
        "numberOfBytes": "32",
        "value": "t_mapping(t_uint256,t_uint256)"
      },
      "t_mapping(t_uint256,t_struct(Consumer)183_storage)": {
        "encoding": "mapping",
        "key": "t_uint256",
        "label": "mapping(uint256 => struct ElectricitySupplyChain.Consumer)",
        "numberOfBytes": "32",
        "value": "t_struct(Consumer)183_storage"
      },
      "t_mapping(t_uint256,t_struct(Distributor)126_storage)": {
        "encoding": "mapping",
        "key": "t_uint256",
        "label": "mapping(uint256 => struct ElectricitySupplyChain.Distributor)",
        "numberOfBytes": "32",
        "value": "t_struct(Distributor)126_storage"
      },
      "t_mapping(t_uint256,t_struct(PowerPlant)160_storage)": {
        "encoding": "mapping",
        "key": "t_uint256",
        "label": "mapping(uint256 => struct ElectricitySupplyChain.PowerPlant)",
        "numberOfBytes": "32",
        "value": "t_struct(PowerPlant)160_storage"
      },
      "t_mapping(t_uint256,t_struct(Substation)144_storage)": {
        "encoding": "mapping",
        "key": "t_uint256",
        "label": "mapping(uint256 => struct ElectricitySupplyChain.Substation)",
        "numberOfBytes": "32",
        "value": "t_struct(Substation)144_storage"
      },
      "t_mapping(t_uint256,t_uint256)": {
        "encoding": "mapping",
        "key": "t_uint256",
        "label": "mapping(uint256 => uint256)",
        "numberOfBytes": "32",
        "value": "t_uint256"
      },
      "t_string_storage": {
        "encoding": "bytes",
        "label": "string",
        "numberOfBytes": "32"
      },
      "t_struct(Consumer)183_storage": {
        "encoding": "inplace",
        "label": "struct ElectricitySupplyChain.Consumer",
        "members": [
          {
            "astId": 162,
            "contract": "contracts/ElectricitySupplyChain.sol:ElectricitySupplyChain",
            "label": "name",
            "offset": 0,
            "slot": "0",
            "type": "t_string_storage"
          },
          {
            "astId": 164,
            "contract": "contracts/ElectricitySupplyChain.sol:ElectricitySupplyChain",
            "label": "homeAddress",
            "offset": 0,
            "slot": "1",
            "type": "t_string_storage"
          },
          {
            "astId": 166,
            "contract": "contracts/ElectricitySupplyChain.sol:ElectricitySupplyChain",
            "label": "consumerAddress",
            "offset": 0,
            "slot": "2",
            "type": "t_address"
          },
          {
            "astId": 168,
            "contract": "contracts/ElectricitySupplyChain.sol:ElectricitySupplyChain",
            "label": "distributorId",
            "offset": 0,
            "slot": "3",
            "type": "t_uint256"
          },
          {
            "astId": 170,
            "contract": "contracts/ElectricitySupplyChain.sol:ElectricitySupplyChain",
            "label": "totalEnergyConsumed",
            "offset": 0,
            "slot": "4",
            "type": "t_uint256"
          },
          {
            "astId": 172,
            "contract": "contracts/ElectricitySupplyChain.sol:ElectricitySupplyChain",
            "label": "isElectricitySupply",
            "offset": 0,
            "slot": "5",
            "type": "t_bool"
          },
          {
            "astId": 174,
            "contract": "contracts/ElectricitySupplyChain.sol:ElectricitySupplyChain",
            "label": "payableAmountForEnergy",
            "offset": 0,
            "slot": "6",
            "type": "t_uint256"
          },
          {
            "astId": 176,
            "contract": "contracts/ElectricitySupplyChain.sol:ElectricitySupplyChain",
            "label": "startCycleTime",
            "offset": 0,
            "slot": "7",
            "type": "t_uint256"
          },
          {
            "astId": 178,
            "contract": "contracts/ElectricitySupplyChain.sol:ElectricitySupplyChain",
            "label": "endCycleTime",
            "offset": 0,
            "slot": "8",
            "type": "t_uint256"
          },
          {
            "astId": 180,
            "contract": "contracts/ElectricitySupplyChain.sol:ElectricitySupplyChain",
            "label": "isLastElectricityBillPaid",
            "offset": 0,
            "slot": "9",
            "type": "t_bool"
          },
          {
            "astId": 182,
            "contract": "contracts/ElectricitySupplyChain.sol:ElectricitySupplyChain",
            "label": "energyConsumedInCurrentCycle",
            "offset": 0,
            "slot": "10",
            "type": "t_uint256"
          }
        ],
        "numberOfBytes": "352"
      },
      "t_struct(Distributor)126_storage": {
        "encoding": "inplace",
        "label": "struct ElectricitySupplyChain.Distributor",
        "members": [
          {
            "astId": 106,
            "contract": "contracts/ElectricitySupplyChain.sol:ElectricitySupplyChain",
            "label": "substationId",
            "offset": 0,
            "slot": "0",
            "type": "t_uint256"
          },
          {
            "astId": 108,
            "contract": "contracts/ElectricitySupplyChain.sol:ElectricitySupplyChain",
            "label": "distributorAddress",
            "offset": 0,
            "slot": "1",
            "type": "t_address"
          },
          {
            "astId": 110,
            "contract": "contracts/ElectricitySupplyChain.sol:ElectricitySupplyChain",
            "label": "name",
            "offset": 0,
            "slot": "2",
            "type": "t_string_storage"
          },
          {
            "astId": 112,
            "contract": "contracts/ElectricitySupplyChain.sol:ElectricitySupplyChain",
            "label": "area",
            "offset": 0,
            "slot": "3",
            "type": "t_string_storage"
          },
          {
            "astId": 114,
            "contract": "contracts/ElectricitySupplyChain.sol:ElectricitySupplyChain",
            "label": "energyAvailable",
            "offset": 0,
            "slot": "4",
            "type": "t_uint256"
          },
          {
            "astId": 117,
            "contract": "contracts/ElectricitySupplyChain.sol:ElectricitySupplyChain",
            "label": "consumerIds",
            "offset": 0,
            "slot": "5",
            "type": "t_array(t_uint256)dyn_storage"
          },
          {
            "astId": 119,
            "contract": "contracts/ElectricitySupplyChain.sol:ElectricitySupplyChain",
            "label": "totalEnergySold",
            "offset": 0,
            "slot": "6",
            "type": "t_uint256"
          },
          {
            "astId": 121,
            "contract": "contracts/ElectricitySupplyChain.sol:ElectricitySupplyChain",
            "label": "totalEnergyBought",
            "offset": 0,
            "slot": "7",
            "type": "t_uint256"
          },
          {
            "astId": 123,
            "contract": "contracts/ElectricitySupplyChain.sol:ElectricitySupplyChain",
            "label": "isEnergySupply",
            "offset": 0,
            "slot": "8",
            "type": "t_bool"
          },
          {
            "astId": 125,
            "contract": "contracts/ElectricitySupplyChain.sol:ElectricitySupplyChain",
            "label": "isLessEnergyWarning",
            "offset": 1,
            "slot": "8",
            "type": "t_bool"
          }
        ],
        "numberOfBytes": "288"
      },
      "t_struct(Payment)190_storage": {
        "encoding": "inplace",
        "label": "struct ElectricitySupplyChain.Payment",
        "members": [
          {
            "astId": 185,
            "contract": "contracts/ElectricitySupplyChain.sol:ElectricitySupplyChain",
            "label": "unitsConsumed",
            "offset": 0,
            "slot": "0",
            "type": "t_uint256"
          },
          {
            "astId": 187,
            "contract": "contracts/ElectricitySupplyChain.sol:ElectricitySupplyChain",
            "label": "startTime",
            "offset": 0,
            "slot": "1",
            "type": "t_uint256"
          },
          {
            "astId": 189,
            "contract": "contracts/ElectricitySupplyChain.sol:ElectricitySupplyChain",
            "label": "endTime",
            "offset": 0,
            "slot": "2",
            "type": "t_uint256"
          }
        ],
        "numberOfBytes": "96"
      },
      "t_struct(PowerPlant)160_storage": {
        "encoding": "inplace",
        "label": "struct ElectricitySupplyChain.PowerPlant",
        "members": [
          {
            "astId": 146,
            "contract": "contracts/ElectricitySupplyChain.sol:ElectricitySupplyChain",
            "label": "name",
            "offset": 0,
            "slot": "0",
            "type": "t_string_storage"
          },
          {
            "astId": 148,
            "contract": "contracts/ElectricitySupplyChain.sol:ElectricitySupplyChain",
            "label": "area",
            "offset": 0,
            "slot": "1",
            "type": "t_string_storage"
          },
          {
            "astId": 150,
            "contract": "contracts/ElectricitySupplyChain.sol:ElectricitySupplyChain",
            "label": "powerplantAddress",
            "offset": 0,
            "slot": "2",
            "type": "t_address"
          },
          {
            "astId": 153,
            "contract": "contracts/ElectricitySupplyChain.sol:ElectricitySupplyChain",
            "label": "substationIds",
            "offset": 0,
            "slot": "3",
            "type": "t_array(t_uint256)dyn_storage"
          },
          {
            "astId": 155,
            "contract": "contracts/ElectricitySupplyChain.sol:ElectricitySupplyChain",
            "label": "totalEnergyProduced",
            "offset": 0,
            "slot": "4",
            "type": "t_uint256"
          },
          {
            "astId": 157,
            "contract": "contracts/ElectricitySupplyChain.sol:ElectricitySupplyChain",
            "label": "totalEnergySold",
            "offset": 0,
            "slot": "5",
            "type": "t_uint256"
          },
          {
            "astId": 159,
            "contract": "contracts/ElectricitySupplyChain.sol:ElectricitySupplyChain",
            "label": "energyAvailableToBuy",
            "offset": 0,
            "slot": "6",
            "type": "t_uint256"
          }
        ],
        "numberOfBytes": "224"
      },
      "t_struct(Substation)144_storage": {
        "encoding": "inplace",
        "label": "struct ElectricitySupplyChain.Substation",
        "members": [
          {
            "astId": 128,
            "contract": "contracts/ElectricitySupplyChain.sol:ElectricitySupplyChain",
            "label": "name",
            "offset": 0,
            "slot": "0",
            "type": "t_string_storage"
          },
          {
            "astId": 130,
            "contract": "contracts/ElectricitySupplyChain.sol:ElectricitySupplyChain",
            "label": "area",
            "offset": 0,
            "slot": "1",
            "type": "t_string_storage"
          },
          {
            "astId": 132,
            "contract": "contracts/ElectricitySupplyChain.sol:ElectricitySupplyChain",
            "label": "powerplantId",
            "offset": 0,
            "slot": "2",
            "type": "t_uint256"
          },
          {
            "astId": 134,
            "contract": "contracts/ElectricitySupplyChain.sol:ElectricitySupplyChain",
            "label": "substationAddress",
            "offset": 0,
            "slot": "3",
            "type": "t_address"
          },
          {
            "astId": 136,
            "contract": "contracts/ElectricitySupplyChain.sol:ElectricitySupplyChain",
            "label": "totalEnergyReceived",
            "offset": 0,
            "slot": "4",
            "type": "t_uint256"
          },
          {
            "astId": 138,
            "contract": "contracts/ElectricitySupplyChain.sol:ElectricitySupplyChain",
            "label": "totalEnergySold",
            "offset": 0,
            "slot": "5",
            "type": "t_uint256"
          },
          {
            "astId": 141,
            "contract": "contracts/ElectricitySupplyChain.sol:ElectricitySupplyChain",
            "label": "distributorIds",
            "offset": 0,
            "slot": "6",
            "type": "t_array(t_uint256)dyn_storage"
          },
          {
            "astId": 143,
            "contract": "contracts/ElectricitySupplyChain.sol:ElectricitySupplyChain",
            "label": "energyAvailableToBuy",
            "offset": 0,
            "slot": "7",
            "type": "t_uint256"
          }
        ],
        "numberOfBytes": "256"
      },
      "t_uint256": {
        "encoding": "inplace",
        "label": "uint256",
        "numberOfBytes": "32"
      }
    }
  }
}